:100000000C9462000C948A000C948A000C948A0070
:100010000C948A000C948A000C948A000C948A0038
:100020000C948A000C948A000C948A000C948A0028
:100030000C948A000C948A000C948A000C948A0018
:100040000C94B6010C948A000C9426020C940002C5
:100050000C948A000C948A000C948A000C948A00F8
:100060000C948A000C948A000000000025002800EF
:100070002B0000000000240027002A0000000000E0
:1000800023002600290004040404040404040202DA
:100090000202020203030303030301020408102007
:1000A0004080010204081020010204081020000012
:1000B0000008000201000003040700000000000027
:1000C00000005E0311241FBECFEFD8E0DEBFCDBF1E
:1000D00011E0A0E0B1E0E6E2F7E002C005900D9289
:1000E000AA34B107D9F721E0AAE4B1E001C01D921A
:1000F000A13FB207E1F710E0C2E6D0E004C02197CB
:10010000FE010E948B03C136D107C9F70E94580235
:100110000C9491030C940000AF92BF92CF92DF92A7
:10012000EF92FF920F931F93CF93DF936C017B01AC
:100130008B01040F151FEB015E01AE18BF08C0173D
:10014000D10759F06991D601ED91FC910190F081B0
:10015000E02DC6010995892B79F7C501DF91CF9173
:100160001F910F91FF90EF90DF90CF90BF90AF90D5
:100170000895FC01538D448D252F30E0842F90E0AD
:10018000821B930B541710F0CF9608950197089592
:10019000FC01918D828D981761F0A28DAE0FBF2F5B
:1001A000B11D5D968C91928D9F5F9F73928F90E0B1
:1001B00008958FEF9FEF0895FC01918D828D981720
:1001C00031F0828DE80FF11D858D90E008958FEF5D
:1001D0009FEF0895FC01918D228D892F90E0805C26
:1001E0009F4F821B91098F739927089584E591E0B1
:1001F0000E94EA0021E0892B09F420E0822F089573
:1002000080E090E0892B29F00E94F60081110C9487
:1002100000000895FC01A48DA80FB92FB11DA35AA9
:10022000BF4F2C91848D90E001968F739927848F16
:10023000A689B7892C93A089B1898C918370806439
:100240008C93938D848D981306C00288F389E02DDA
:1002500080818F7D80830895EF92FF920F931F938B
:10026000CF93DF93EC0181E0888F9B8D8C8D981369
:100270001AC0E889F989808185FF15C09FB7F89475
:10028000EE89FF896083E889F989808183708064C1
:1002900080839FBF81E090E0DF91CF911F910F910C
:1002A000FF90EF900895F62E0B8D10E00F5F1F4F1B
:1002B0000F731127E02E8C8D8E110CC00FB607FC2A
:1002C000FACFE889F989808185FFF5CFCE010E94B8
:1002D0000A01F1CFEB8DEC0FFD2FF11DE35AFF4F1B
:1002E000F0829FB7F8940B8FEA89FB898081806246
:1002F000CFCFCF93DF93EC01888D8823B9F0AA8903
:10030000BB89E889F9898C9185FD03C0808186FDD0
:100310000DC00FB607FCF7CF8C9185FFF2CF80811F
:1003200085FFEDCFCE010E940A01E9CFDF91CF9189
:100330000895CF93DF93FC0101900020E9F73197F6
:10034000AF01481B590BBC0184E591E00E948C0071
:10035000EC0142E050E062E171E084E591E00E944E
:100360008C008C0F9D1FDF91CF9108951F920F92EB
:100370000FB60F9211242F933F938F939F93AF93B8
:10038000BF938091500190915101A0915201B09181
:10039000530130914F0123E0230F2D3758F501967B
:1003A000A11DB11D20934F018093500190935101E5
:1003B000A0935201B093530180914B0190914C0155
:1003C000A0914D01B0914E010196A11DB11D8093E8
:1003D0004B0190934C01A0934D01B0934E01BF91FE
:1003E000AF919F918F913F912F910F900FBE0F90E2
:1003F0001F90189526E8230F0296A11DB11DD2CF9C
:100400001F920F920FB60F9211242F933F934F9389
:100410005F936F937F938F939F93AF93BF93EF936C
:10042000FF9384E591E00E940A01FF91EF91BF9153
:10043000AF919F918F917F916F915F914F913F917C
:100440002F910F900FBE0F901F9018951F920F9233
:100450000FB60F9211242F938F939F93EF93FF93D7
:10046000E0916401F09165018081E0916A01F09171
:100470006B0182FD1BC0908180916D018F5F8F7336
:1004800020916E01821741F0E0916D01F0E0EC5A8D
:10049000FE4F958F80936D01FF91EF919F918F910A
:1004A0002F910F900FBE0F901F9018958081F4CF61
:1004B000789484B5826084BD84B5816084BD85B53F
:1004C000826085BD85B5816085BD80916E0081604B
:1004D00080936E00109281008091810082608093F1
:1004E00081008091810081608093810080918000F3
:1004F0008160809380008091B10084608093B1001E
:100500008091B00081608093B00080917A00846017
:1005100080937A0080917A00826080937A00809143
:100520007A00816080937A0080917A00806880935D
:100530007A001092C100E0916401F091650182E0BF
:100540008083E0916001F09161011082E09162018D
:10055000F091630180E1808310926C01E091680169
:10056000F091690186E08083E0916601F091670176
:10057000808180618083E0916601F09167018081D4
:1005800088608083E0916601F091670180818068D6
:100590008083E0916601F091670180818F7D808387
:1005A00085E191E00E949901C7EAD0E0FE01249123
:1005B00003E910E0F80184918823C9F090E0880FE6
:1005C000991FFC01EE58FF4FA591B491FC01E85929
:1005D000FF4F459154913FB7F8949C91822F80959D
:1005E00098239C93FA019081892380833FBF9BEBE2
:1005F000E92E90E0F92E20E0C22E20E0D22EBB247E
:10060000B394F7018491FE019491F801249122237F
:1006100009F449C0882339F0833071F118F581302D
:1006200089F1823099F1E22FF0E0EE0FFF1FE458DC
:10063000FF4FA591B4912C9180914A01922399F199
:10064000811106C080E491E00E949901B0924A01B4
:10065000C114D104B1F20E94F600882391F20E94E5
:100660000000CFCF8730A9F08830C9F08430D9F6A8
:10067000809180008F7D03C0809180008F77809370
:100680008000D1CF84B58F7784BDCDCF84B58F7DE9
:10069000FBCF8091B0008F778093B000C4CF809162
:1006A000B0008F7DF9CF80914A01882389F28CE3D5
:1006B00091E00E94990110924A01CACFE4E5F1E06D
:1006C0001382128288EE93E0A0E0B0E084839583E9
:1006D000A683B78384E091E09183808385EC90E0EA
:1006E0009587848784EC90E09787868780EC90E0FC
:1006F000918B808B81EC90E0938B828B82EC90E0ED
:10070000958B848B86EC90E0978B868B118E128E66
:10071000138E148E0895EE0FFF1F0590F491E02DB7
:060720000994F894FFCFDC
:10072600000000002C018C00B9007901EA00C80025
:10073600DC000D0A005049522053656E736F72201B
:100746002D2068747470733A2F2F7573696E692E35
:1007560065752F657370726573732F004E4F542045
:0A0766004445544543544544000047
:00000001FF
