:100000000C9464000C948C000C948C000C948C0068
:100010000C948C000C948C000C948C000C948C0030
:100020000C948C000C948C000C948C000C948C0020
:100030000C948C000C948C000C948C000C948C0010
:100040000C94D6090C948C000C94460A0C94200A4B
:100050000C948C000C948C000C948C000C948C00F0
:100060000C94780A0C948C00424D45323830207440
:100070006573740000000000240027002A000000BF
:100080000000250028002B000404040404040404D8
:100090000202020202020303030303030102040833
:1000A00010204080010204081020010204081020E2
:1000B0000000000800020100000304070000000027
:1000C00000000000970B061211241FBECFEFD8E0EE
:1000D000DEBFCDBF11E0A0E0B1E0E2E1F0E302C09D
:1000E00005900D92AE36B107D9F723E0AEE6B1E048
:1000F00001C01D92AE31B207E1F710E0C3E6D0E0D7
:1001000004C02197FE010E943214C236D107C9F7FC
:100110000E94E00B0C94FC170C94000008950895C5
:1001200090E0FC01E055FF4F2491FC01E456FF4FA5
:100130003491FC01E857FF4FE491EE23C9F02223EC
:1001400039F0233001F1A8F4213019F1223029F1DE
:10015000F0E0EE0FFF1FE258FF4FA591B4918FB76B
:10016000F894EC91611126C030953E233C938FBFEB
:1001700008952730A9F02830C9F0243049F780913C
:1001800080008F7D03C0809180008F7780938000F6
:10019000DFCF84B58F7784BDDBCF84B58F7DFBCF78
:1001A0008091B0008F778093B000D2CF8091B00063
:1001B0008F7DF9CF3E2BDACFFC0183858F3F19F07D
:1001C00061E00C9490000895FC0180819181892B5D
:1001D00039F0A281B3819C9111968C919CBD8DBD0B
:1001E00083858F3F19F060E00C9490000895CF93C1
:1001F000DF9390E0FC01E456FF4F249188579F4F16
:10020000FC0184918823D1F090E0880F991FFC01B4
:10021000EC58FF4FA591B491FC01E258FF4FC591F6
:10022000D49161110EC09FB7F8948C91E22FE095A4
:100230008E238C932881E223E8839FBFDF91CF91A7
:1002400008958FB7F894EC91E22BEC938FBFF6CF23
:100250008230910538F0880F991F880F991F0597F4
:100260000197F1F70895AF92BF92CF92DF92EF928C
:10027000FF920F931F93CF93DF93EC0188819981B5
:10028000892B89F06EBD0DB407FEFDCFBEB48B2D5A
:10029000DF91CF911F910F91FF90EF90DF90CF9062
:1002A000BF90AF9008958885998511E0892B09F05A
:1002B00010E8AA24A394862F812309F0A12C062FED
:1002C0002C813D814E815F8160E271EA87E090E0A0
:1002D0000E945B12F22EB02EE12CC22ED12CFF20F8
:1002E00019F0C6010E9428018A85877F09F042C063
:1002F0008D858F3F89F0902F912381E009F480E074
:100300008A1551F0EF85F8898F89992369F19081D9
:10031000892B8083AA24A394E989FA898081998D05
:10032000892B8083FF2019F0C6010E9428018E8549
:100330008F3F39F0EB89FC898081988D892309F002
:10034000E12AE989FA899081898D809589238083C2
:100350008E858F3F09F0BE2C88859985892BB9F54C
:10036000110F1111BCCF93CF908180958923808389
:10037000A12CD2CFE989FA898081998D892B80833C
:10038000FF2019F0C6010E9428018D858F3F49F09A
:10039000EF85F8898F89902F9123A9F09081892B7F
:1003A0008083E989FA899081898D8095892380836A
:1003B0008E858F3F69F2EB89FC898081988D892336
:1003C00039F2E12AC5CF908180958923E9CF16952E
:1003D000C8CFCF92DF92EF92FF920F931F93CF93EC
:1003E000DF938C01EB016A0179010E94E4006881CE
:1003F000C8010E943301E601EC0CFD1C6FEFC8013F
:100400000E9433018993CE15DF05C1F7C8010E9410
:10041000DC0081E0DF91CF911F910F91FF90EF9071
:10042000DF90CF9008953FB7F8948091BC019091F0
:10043000BD01A091BE01B091BF0126B5A89B05C02A
:100440002F3F19F00196A11DB11D3FBFBA2FA92F53
:10045000982F8827BC01CD01620F711D811D911D50
:1004600042E0660F771F881F991F4A95D1F70895BC
:100470008F929F92AF92BF92CF92DF92EF92FF92B4
:100480006B017C010E9413024B015C01C114D10479
:10049000E104F104B9F00E941302681979098A098C
:1004A0009B09683E73408105910580F321E0C21AE3
:1004B000D108E108F10888EE880E83E0981EA11C9F
:1004C000B11CE4CFFF90EF90DF90CF90BF90AF9042
:1004D0009F908F900895AF92BF92CF92DF92EF924C
:1004E000FF920F931F93CF93DF936C017B018B01DE
:1004F000040F151FEB015E01AE18BF08C017D1072E
:1005000059F06991D601ED91FC910190F081E02DB7
:10051000C6010995892B79F7C501DF91CF911F910C
:100520000F91FF90EF90DF90CF90BF90AF90089524
:10053000FC01538D448D252F30E0842F90E0821BE9
:10054000930B541710F0CF96089501970895FC016E
:10055000918D828D981761F0A28DAE0FBF2FB11DC6
:100560005D968C91928D9F5F9F73928F90E008951E
:100570008FEF9FEF0895FC01918D828D981731F0D8
:10058000828DE80FF11D858D90E008958FEF9FEF2C
:100590000895FC01918D228D892F90E0805C9F4F02
:1005A000821B91098F739927089586E392E00E9438
:1005B000C90221E0892B09F420E0822F089580E010
:1005C00090E0892B29F00E94D50281110C94000043
:1005D0000895FC01A48DA80FB92FB11DA35ABF4FD8
:1005E0002C91848D90E001968F739927848FA68932
:1005F000B7892C93A089B1898C91837080648C9386
:10060000938D848D981306C00288F389E02D808134
:100610008F7D80830895EF92FF920F931F93CF9366
:10062000DF93EC0181E0888F9B8D8C8D98131AC02D
:10063000E889F989808185FF15C09FB7F894EE8914
:10064000FF896083E889F989808183708064808371
:100650009FBF81E090E0DF91CF911F910F91FF90BC
:10066000EF900895F62E0B8D10E00F5F1F4F0F7364
:100670001127E02E8C8D8E110CC00FB607FCFACF1F
:10068000E889F989808185FFF5CFCE010E94E902D2
:10069000F1CFEB8DEC0FFD2FF11DE35AFF4FF082F0
:1006A0009FB7F8940B8FEA89FB8980818062CFCF56
:1006B000CF93DF93EC01888D8823B9F0AA89BB8999
:1006C000E889F9898C9185FD03C0808186FD0DC084
:1006D0000FB607FCF7CF8C9185FFF2CF808185FFA5
:1006E000EDCFCE010E94E902E9CFDF91CF910895CD
:1006F00020918F01260F3327331F21323105ECF46F
:1007000020910C02FC0190E080E0243069F082E04E
:100710000895A0918F012191AC0141595E4FA40F22
:10072000B52FB11D2C930196861798F380918F01F8
:10073000680F60938F0180E0089581E00895109222
:100740000C0281E080930B021092E60161E082E1ED
:100750000E94900061E083E10E949000E9EBF0E0EC
:1007600080818E7F808380818D7F808388E48093E9
:10077000B80085E48093BC000895CF93DF9391E0A7
:1007800090936E018823B9F0C091B800D091BA005F
:100790008091BC008A7B8093BC0060E082E10E9473
:1007A000900060E083E10E9490000E949F03D0933C
:1007B000BA00C093B800DF91CF9108958F929F92B5
:1007C000AF92BF92CF92DF92EF92FF920F931F935F
:1007D000CF93DF93D0913502D13208F0D7C0182FD4
:1007E000C09134020E9413026B017C0180910C02C3
:1007F00081116BC082E080930C0210930B028FEF8B
:1008000080930A0210920902D0930802A4E1B2E098
:10081000E8EEF1E080E0D81391C01092E7018091FA
:10082000E701CC0FC82BC093E7018091E60181302E
:1008300009F088C01092E6010E9413026B017C014E
:100840008091E7018093BB0080910E0290910F028E
:10085000A0911002B0911102892B8A2B8B2BA1F051
:100860000E94130200910E0210910F0220911002BB
:10087000309111026C197D098E099F09061717071F
:100880002807390708F442C08091BC0083FDD8CF07
:1008900085EC8093BC000E9413026B017C01809167
:1008A0000C02823009F450C080910A028F3F09F493
:1008B0006FC080910A02803209F46CC080910A02F4
:1008C000803309F469C084E026C080910E029091C3
:1008D0000F02A0911002B0911102892B8A2B8B2B51
:1008E00009F484CF0E94130280900E0290900F02B0
:1008F000A0901002B09011026C197D098E099F0919
:1009000086169706A806B90608F070CF80910D02EA
:100910000E94BD0385E010921302109235021092DE
:100920001202DF91CF911F910F91FF90EF90DF9016
:10093000CF90BF90AF909F908F9008959D9191938D
:100940008F5F69CF85EEA5CF80910E0290910F0247
:10095000A0911002B0911102892B8A2B8B2B09F4E4
:100960009ECF0E94130200910E0210910F0220915F
:100970001002309111026C197D098E099F0906172A
:1009800017072807390708F08ACFC0CF81E0C3CF07
:1009900080E0C1CF82E0BFCF83E0BDCF1F93CF9374
:1009A000DF93EA01122FDC0111968D919C91DC01FD
:1009B000ED91FC910280F381E02D0995C817D907CC
:1009C00029F4812F0E94DE0391E0811190E0892FAC
:1009D000DF91CF911F910895CF93DF93EC018B812D
:1009E0008823A1F0888191E09093120280933402D1
:1009F000109213021092350281E00E94DE0391E012
:100A0000811190E0892FDF91CF9108951092C50157
:100A10001092C40110921302109235020E949F039B
:100A20008EE890E09093C3018093C2018FE890E03C
:100A30009093C1018093C00181E08B83CE010E941D
:100A4000EC04982F8111CECFDDCF0895E091C50140
:100A50008091C401E81730F4F0E0EA53FE4F808142
:100A600090E008958FEF9FEF08959091C5018091D8
:100A7000C4012FEF3FEF981748F4E92FF0E0EA5355
:100A8000FE4F208130E09F5F9093C501C90108951A
:100A90008091C4019091C501891B990B0895CF9253
:100AA000DF92EF92FF920F931F93CF93DF937C011E
:100AB000CB018A0120911202222389F0EB016B0104
:100AC000C40ED51ECC15DD0569F06991D701ED91F5
:100AD000FC910190F081E02DC7010995F3CF642FBF
:100AE0000E947803C801DF91CF911F910F91FF9071
:100AF000EF90DF90CF900895CF93DF931F92CDB703
:100B0000DEB76983209112022223F9F02091350289
:100B1000203258F021E030E0FC013383228390E062
:100B200080E00F90DF91CF91089580911302E82F1C
:100B3000F0E0EC5EFD4F998190838F5F809313020C
:100B40008093350281E090E0ECCF61E0CE01019628
:100B50000E947803F7CF90E080E00895FC010190B7
:100B60000020E9F73197AF01481B590BBC0186E320
:100B700092E00C946B028F929F92AF92BF920F9370
:100B80001F93CF93DF93CDB7DEB7A1970FB6F8943D
:100B9000DEBF0FBECDBF19A2423008F44AE08E017D
:100BA0000F5D1F4F842E912CB12CA12CA501940117
:100BB0000E945B12E62FB901CA01EA30F4F4E05D4D
:100BC000D801EE938D01232B242B252B79F790E070
:100BD00080E0109719F0CD010E94AE05A1960FB6E6
:100BE000F894DEBF0FBECDBFDF91CF911F910F9163
:100BF000BF90AF909F908F900895E95CE1CFCF9325
:100C0000DF930E94AE05EC018AE291E00E94AE05FE
:100C10008C0F9D1FDF91CF9108954F925F926F923D
:100C20007F928F929F92AF92BF92CF92DF92EF927C
:100C3000FF920F931F93CF936B017C01742EAC0135
:100C40009B010E94D216882399F08DE291E0CF910A
:100C50001F910F91FF90EF90DF90CF90BF90AF90DA
:100C60009F908F907F906F905F904F900C94AE0507
:100C700046015701E894B7F82FEF3FEF4FE75FE7E2
:100C8000C501B4010E94D21681110DC02FEF3FEFB4
:100C90004FE75FE7C501B4010E94B41418161CF4B5
:100CA00081E391E0D4CF2FEF3FEF4FE75FE4C7013F
:100CB000B6010E94601618161CF485E391E0C7CFB8
:100CC0002FEF3FEF4FE75FECC701B6010E94B4146E
:100CD00087FDF3CF20E030E0A901C701B6010E94F3
:100CE000B41410E000E087FF0AC06DE286E392E0F2
:100CF0000E940B038C01F7FAF094F7F8F094C0E02F
:100D000060E070E080E09FE37C1641F020E030E09E
:100D100040E251E40E94B914CF5FF6CFA7019601DB
:100D20000E9448142B013C010E942B154B015C01D1
:100D30004AE00E94BB057C01E00EF11ECC23C1F10C
:100D4000C501B4010E9460159B01AC01C301B20151
:100D50000E9447144B015C016EE286E392E00E9420
:100D60000B03E80EF91EC15018F120E030E040E21C
:100D700051E4C501B4010E9465162B013C010E949B
:100D80002B154B01B12CA12C4AE0C501B4010E94E6
:100D9000BB05E80EF91EC501B4010E9460159B0158
:100DA000AC01C301B2010E9447144B015C01DBCFCF
:100DB000C701CF911F910F91FF90EF90DF90CF90DF
:100DC000BF90AF909F908F907F906F905F904F906B
:100DD00008950F931F93CF93DF9300D0CDB7DEB765
:100DE0006A83E091DF02F091E0023097F9F08983A5
:100DF00084819581029798F0808191E0909312020E
:100E000080933402109213021092350221E042E0E6
:100E100050E0BE016F5F7F4FCF010E94CE040F9064
:100E20000F90DF91CF911F910F9108958F77898354
:100E30000091E1021091E202C8010E94E400698180
:100E4000C8010E9433016A81C8010E943301C801B0
:100E50000E94DC00E4CF2F923F924F925F926F92FC
:100E60007F928F929F92AF92BF92CF92DF92EF923A
:100E7000FF920F931F93CF93DF93DC011496ED91B4
:100E8000FC911597EF2B09F425C169012A01EC01AA
:100E9000888191E0909312028093340210921302A1
:100EA0001092350220E041E050E0CD010E94CE04D6
:100EB000782E882309F40EC1F12CE12C33243394CD
:100EC0008C819D8186010E191F098017910708F4F6
:100ED0008C0128800E9413024B015C0180910C025E
:100EE000811173C0602EB0E2B01710F480E2682E5A
:100EF00030920C0221E0C601801B910BE816F90626
:100F000008F420E020930B02EFEFE0930A02109226
:100F100009028FEF860D809308023092E7018091DD
:100F2000E701220C282A2092E7018091E601813016
:100F300009F090C01092E6010E9413024B015C017F
:100F40008091E7018093BB0080910E0290910F0287
:100F5000A0911002B0911102892B8A2B8B2BA1F04A
:100F60000E94130220910E0230910F024091100254
:100F700050911102681979098A099B0926173707C8
:100F80004807590708F442C08091BC0083FDD8CFC0
:100F9000F5ECF093BC000E9413024B015C018091C0
:100FA0000C02813009F45AC080910902861510F4B0
:100FB00060900902A8EEB1E0E6ECF1E080E0861571
:100FC00051F19D9191938F5FFACF80910E02909194
:100FD0000F02A0911002B0911102892B8A2B8B2B4A
:100FE00009F47CCF0E94130220910E0230910F026F
:100FF0004091100250911102681979098A099B09E0
:10100000261737074807590708F068CF80910D0267
:101010000E94BD03612C1092C5016092C40160164C
:10102000110609F057C042018E0C9F1C5401C501E6
:10103000881999098017910798F589819A81DC01AF
:10104000ED91FC910284F385E02D0995F5018193E2
:101050005F01EDCF85EE8093BC009DCF80910E02A5
:1010600090910F02A0911002B0911102892B8A2B4E
:101070008B2B09F494CF0E94130220910E02309121
:101080000F024091100250911102681979098A09E2
:101090009B09261737074807590708F080CFB6CFB6
:1010A000E00EF11EEC14FD0408F40ACF872DDF9149
:1010B000CF911F910F91FF90EF90DF90CF90BF9055
:1010C000AF909F908F907F906F905F904F903F90E8
:1010D0002F900895712CEACFCF93DF9300D0CDB736
:1010E000DEB7E091DF02F091E002898322E030E098
:1010F000AE014F5F5F4FBA01309769F0CF010E9498
:101100002B0789819A819827892798270F900F901C
:10111000DF91CF9108958091E1029091E2020E94C7
:10112000E901EFCF0E946C08982789279827089536
:10113000CF93DF9300D01F92CDB7DEB7E091DF02EF
:10114000F091E002898323E030E0AE014F5F5F4F12
:10115000BA013097A9F0CF010E942B0729816A813B
:1011600070E090E080E0982F872F762F6627822B03
:101170002B81622B0F900F900F90DF91CF910895EC
:101180008091E1029091E2020E94E901E7CF4F9243
:101190005F926F927F928F929F92AF92BF92CF9207
:1011A000DF92EF92FF928AEF0E9498086115710515
:1011B00020E88207910509F49BC06B017C0184E063
:1011C000F594E794D794C7948A95D1F74090F602A6
:1011D0005090F702C701B60128E030E040E050E04F
:1011E0000E947D12712C612CD301C201880F991FBE
:1011F000AA1FBB1F281B390B4A0B5B0BA091F802DF
:10120000B091F9020E94A7124B015C01C701B6011F
:1012100020E130E040E050E00E947D12CA01B901B7
:1012200064197509860997099B01AC010E944B124C
:101230009B01AC017CE055954795379527957A95AC
:10124000D1F7A091FA02B091FB020E94A7122B01E4
:101250003C01C501B40120E038E040E050E00E94CC
:101260007D1269017A01C301B20120E030E440E05F
:1012700050E00E947D122C0D3D1D4E1D5F1D809182
:10128000F2029091F302A091F402B091F502280FBE
:10129000391F4A1F5B1F2093EE023093EF024093E9
:1012A000F0025093F102A5E0B0E00E949C12605859
:1012B0007F4F8F4F9F4F20E031E040E050E00E9491
:1012C0007D12CA01B9010E94621520E030E048ECAD
:1012D00052E40E94B914FF90EF90DF90CF90BF903E
:1012E000AF909F908F907F906F905F904F900895F8
:1012F00060E070E080EC9FE7EECFCF93DF931F922A
:10130000CDB7DEB7E091DF02F091E002898321E002
:1013100030E0AE014F5F5F4FBA01309741F0CF012F
:101320000E942B0789810F90DF91CF9108958091C2
:10133000E1029091E2020E94E901F4CF85ED8093F1
:10134000BC0080910E0290910F02A0911002B0910A
:1013500011020796A11DB11D23E0B695A79597959B
:1013600087952A95D1F72091BC0024FD03C01092E7
:101370000C02089540910E0250910F0260911002EC
:1013800070911102452B462B472B69F30097A1055D
:10139000B10541F025E32A95F1F700000197A10975
:1013A000B109E1CF80910D020C94BD031F920F9201
:1013B0000FB60F9211242F933F938F939F93AF9368
:1013C000BF938091B8019091B901A091BA01B091F9
:1013D000BB013091B70123E0230F2D3758F501965B
:1013E000A11DB11D2093B7018093B8019093B9015D
:1013F000A093BA01B093BB018091BC019091BD0153
:10140000A091BE01B091BF010196A11DB11D8093B5
:10141000BC019093BD01A093BE01B093BF01BF91E9
:10142000AF919F918F913F912F910F900FBE0F9091
:101430001F90189526E8230F0296A11DB11DD2CF4B
:101440001F920F920FB60F9211242F933F934F9339
:101450005F936F937F938F939F93AF93BF93EF931C
:10146000FF9386E392E00E94E902FF91EF91BF9122
:10147000AF919F918F917F916F915F914F913F912C
:101480002F910F900FBE0F901F9018951F920F92E3
:101490000FB60F9211242F938F939F93EF93FF9387
:1014A000E0914602F09147028081E0914C02F09178
:1014B0004D0282FD1BC0908180914F028F5F8F7320
:1014C00020915002821741F0E0914F02F0E0EA5C77
:1014D000FD4F958F80934F02FF91EF919F918F91D8
:1014E0002F910F900FBE0F901F9018958081F4CF11
:1014F0001F920F920FB60F9211242F933F934F9389
:101500005F936F937F938F939F93AF93BF93EF936B
:10151000FF938091B900887F803609F44AC0F0F5C6
:10152000883209F4A7C018F5803109F49BC0B8F4DB
:10153000882309F4F9C0883009F494C0FF91EF9131
:10154000BF91AF919F918F917F916F915F914F91DB
:101550003F912F910F900FBE0F901F9018958831DB
:1015600009F488C0803251F780930A0214C0803495
:1015700009F49DC040F48033B9F38833F9F68093C1
:101580000A0285ECB0C0803509F485C0883509F4BD
:1015900096C0883499F60E949E09D0CF883909F404
:1015A0008CC038F5883729F050F4883611F0803730
:1015B00029F683E080930C021092B10157C088385D
:1015C00009F47BC0803919F0803809F0B7CF8091D9
:1015D000B101803208F071C0E091B10181E08E0F5D
:1015E0008093B1018091BB00F0E0EF56FE4F808305
:1015F0003DC0803B39F0E0F4803A09F479C0883A84
:1016000009F09CCF84E080930C021092900110921C
:101610008F01E091C201F091C301099580918F0182
:1016200081110FC081E080938F0110926F0109C07A
:10163000803C09F4A6CF883C09F4A3CF883B09F08D
:101640007DCFE091900181E08E0F80939001F0E0DA
:10165000E159FE4F80818093BB0090919001809171
:101660008F0129C08091E7018093BB0085EC8093B6
:10167000BC0064CF9091090280910802981758F538
:10168000E091090281E08E0F80930902F0E0E851B9
:10169000FE4F8081E9CFE091090281E08E0F8093B7
:1016A00009028091BB00F0E0E851FE4F80839091E9
:1016B0000902809108029817C8F285E8D8CFE09116
:1016C000090281E08E0F809309028091BB00F0E057
:1016D000E851FE4F808380910B0281115CCF81E045
:1016E0008093E60184EA8093BC0010920C0226CF1E
:1016F00085EC8093BC0010920C028091B101803285
:1017000030F4E091B101F0E0EF56FE4F10826091AD
:10171000B10170E0E091C001F091C10181E991E077
:1017200009951092B1010ACF10920A0234CFE6E374
:10173000F2E01382128288EE93E0A0E0B0E08483AE
:101740009583A683B7832AE031E03183208325EC9B
:1017500030E03587248724EC30E03787268720EC7B
:1017600030E0318B208B21EC30E0338B228B22EC6C
:1017700030E0358B248B26EC30E0378B268B118EB6
:10178000128E138E148EE3EDF2E0138212828483A4
:101790009583A683B7838CE191E091838083EFEDFD
:1017A000F2E0118210821382128215821482178253
:1017B000168211861086138A148A158A168A08954D
:1017C000CF93DF93CDB7DEB76B970FB6F894DEBF3C
:1017D0000FBECDBF789484B5826084BD84B581602E
:1017E00084BD85B5826085BD85B5816085BD8091EC
:1017F0006E00816080936E00109281008091810064
:10180000826080938100809181008160809381005B
:10181000809180008160809380008091B10084601D
:101820008093B1008091B00081608093B00080917E
:101830007A00846080937A0080917A00826080933D
:101840007A0080917A00816080937A0080917A009A
:10185000806880937A001092C100E0914602F09176
:10186000470282E08083E0914202F09143021082BD
:10187000E0914402F091450280E1808310924E0293
:10188000E0914A02F0914B0286E08083E0914802A9
:10189000F0914902808180618083E0914802F0915B
:1018A0004902808188608083E0914802F09149027A
:1018B000808180688083E0914802F09149028081B4
:1018C0008F7D808328E630E039872887E885F98591
:1018D0006491662361F086E392E00E940B03288501
:1018E00039852F5F3F4F39872887892B79F78AE21F
:1018F00091E00E94AE054091E1025091E2025987C9
:101900004887452B09F0EAC38091DF029091E002FD
:10191000009711F00E94731786E090E00E94D7169E
:101920009987888786E7A885B9858C9383ED92E0AF
:1019300012969C938E93119713961C92139780E2A4
:1019400090E015969C938E931497B093E002A09329
:10195000DF021092C5011092C4011092130210927E
:1019600035020E949F038EE890E09093C30180931C
:10197000C2018FE890E09093C1018093C00181E0A3
:10198000E885F9858383CF010E94EC048111F3C3BC
:1019900082E390E0A0E0B0E08093B3019093B401C3
:1019A000A093B501B093B6018AE291E00E94AE0522
:1019B00089E391E00E94AE050E94C70842E00E94C0
:1019C0000D0688E491E00E94FF058DE491E00E94FD
:1019D000AE050E94C70887EF0E949808688779873C
:1019E0008A879B87611571058048910509F400C5B8
:1019F0008091EE029091EF02A091F002B091F1027D
:101A00006C017D01FF0CCC08DC2C76019C01AD0142
:101A10006C2D7C2D8C2D9C2D345F4140510961092A
:101A20007109810991092B8F3A8F49835A836B83FE
:101A30007C838D839E8359016A017B018C010E9406
:101A4000AF122F833C874D875E876F87788B898B9A
:101A50009A8B3091FF022091FE02932F990F990BE0
:101A6000492F592F692F792F892F0E94AF120CE02F
:101A70000E94DE1319012A013B014C013091010340
:101A800020910003932F990F990BAF80BC84CD84D4
:101A9000DE84EF84F88809891A89492F592F692F24
:101AA000792F892F0E94AF12F22E032F142FB52FFA
:101AB000F62FE72FD82EE92EA0E00E94261484F4FA
:101AC00021503F4F4F4F5F4F6F4F7F4F8F4F9F4F73
:101AD000F22E032F142FB52FF62FE72FD82EE92E35
:101AE0002F2D302F412F5B2F6F2F7E2F8D2D9E2D71
:101AF00008E00E94F71351016201730184010E9402
:101B0000141470588F4F9F4F2090FC023090FD02AC
:101B10005101C12CD12CE12CF12C00E010E00E94ED
:101B2000AF12F22E032F142FB52FF62FE72FD82E3A
:101B3000E92EA0E00E94261484F4215031094109C5
:101B400051096E4F7F4F8F4F9F4FF22E032F142F4F
:101B5000B52FF62FE72FD82EE92E2F2D302F412F1E
:101B60005B2F6F2F7E2F8D2D9E2D01E20E94F7138C
:101B70002B8B3C8B4D8B5E8B6F8B788F898F692E77
:101B8000A0E00E94261409F438C430910703209184
:101B90000603932F990F990BAF80BC84CD84DE840C
:101BA000EF84F88809891A89492F592F692F792FCD
:101BB000892F0E94AF1219012A016F83772E4C01E1
:101BC0003091050320910403932F990F990BAB8C4F
:101BD000BA8CC980DA80EB80FC800D811E81492F90
:101BE000592F692F792F892F0E94AF1201E10E948E
:101BF000DE1351016201EF80F72C84010E9414145E
:101C000059016A017B01782E192F88859985AA854B
:101C1000BB85E4E0B595A79597958795EA95D1F7AB
:101C200020E030E040E150E0281B390B4A0B5B0B11
:101C300019012A01550C2208322C2101622D722D26
:101C4000822D922D0FE10E94DE1349014A835983B0
:101C5000B62FA72FF82FE92F30910303209102030D
:101C6000932F990F990B492F592F692F792F892F6E
:101C700003E20E94DE13072D0E94141459016A0129
:101C80007B018C0194014A8159816B2F7A2F8F2F10
:101C90009E2F0E941D14A5E3AA2EBCE0BB2EC12CD2
:101CA000D12CE12CF12C00E010E00E94AF12AB88A7
:101CB000BC88CD88DE88EF88F88C098D162D0E94AF
:101CC00009132F83232E2A013B014C01022F132FCE
:101CD0004983B52DF62FE72D7C01A0E00E94261444
:101CE00074F42150304E4F4F5F4F6F4F7F4F8F4FE7
:101CF0009F4F89014983B52FF62FE72F7C0198016B
:101D000049815B2F6F2F7E2FC7010DE00E94F713D3
:101D1000322E39834A835B836C837D838E839887DD
:101D200030910D0320910C03932F990F990BA32C45
:101D3000B9806A017B01082F1885492F592F692F17
:101D4000792F892F0E94AF120E94AF128901498317
:101D5000B52FF62FE72F7C01A0E00E94261474F423
:101D60002150310941095E4F6F4F7F4F8F4F9F4F79
:101D700089014983B52FF62FE72F7C01980149810E
:101D80005B2F6F2F7E2FC70109E10E94F713AF80F1
:101D9000B22C6201730184010E941414322E398323
:101DA0004A835B836C837D838E83988730910B039A
:101DB00020910A03932F990F990B492F592F692FBF
:101DC000792F892F0E94AF1289014F83B52FF62FEB
:101DD000E72F7C01A0E00E94261474F42150310901
:101DE000484F5F4F6F4F7F4F8F4F9F4F89014F83FA
:101DF000B52FF62FE72F7C0198014F815B2F6F2FB6
:101E00007E2FC70103E10E94F71359016A017B018C
:101E10008C01232D39814A815B816C817D818E818A
:101E200098850E941414122F3A834983B52FF62FF8
:101E3000E72FF82E092FA0E00E94261484F42150E9
:101E40003F4F4F4F5F4F6F4F7F4F8F4F9F4F122F1F
:101E50003A834983B52FF62FE72FF82E092F212F2C
:101E60003A8149815B2F6F2F7E2F8F2D902F08E0B5
:101E70000E94F7132983F32F6A017B01E82F192FA2
:101E80008091080390910903092E000CAA0BBB0B4B
:101E90004C015D01BB0C8808982C54019C01AD01DC
:101EA000682D782D882D982D04E00E94DE13A980DE
:101EB000BF2E0E2F0E9414140E945A1520E030E00D
:101EC00040E85BE30E94651620E030E048EC52E415
:101ED0000E94B91442E00E940D0689E591E00E943B
:101EE000FF058EE591E00E94AE050E94C7088DEFC8
:101EF0000E946C08B0E0A0E0811530E89307A105CE
:101F0000B10509F47EC2C090EE02D090EF02E090DD
:101F1000F002F090F1024CE2D41A41E0E40AF10838
:101F20004C015D013EE0880C991CAA1CBB1C3A9533
:101F3000D1F78091120390911303092E000CAA0B84
:101F4000BB0B44E1880F991FAA1FBB1F4A95D1F70D
:101F5000881A990AAA0ABB0AA0911403B091150322
:101F6000A70196010E94A712861A970AA80AB90A21
:101F7000C501B401705C8F4F9F4F20E030E840E016
:101F800050E00E947D1229013A01A0911103B0E0B6
:101F9000A70196010E949C1220E038E040E050E04A
:101FA0000E947D1249015A0180E8980EA11CB11CC3
:101FB000A09116030A2E000CBB0BA70196010E94EC
:101FC000A71220E034E040E050E00E947D12CA01F8
:101FD000B901A50194010E944B1220E034E040E0D9
:101FE00050E00E947D12405E5F4FA0910F03B091C0
:101FF00010030E94A712705E8F4F9F4F20E030E4C5
:1020000040E050E00E947D12C301B2010E944B12D9
:102010006B017C0120E030E840E050E00E947D123E
:10202000CA01B9010E944B129B01AC0167E05595B2
:102030004795379527956A95D1F7A0910E03B0E0A3
:102040000E949C1220E130E040E050E00E947D12AE
:10205000C21AD30AE40AF50AF7FE03C0C12CD12C38
:102060007601C701B601613071058105A9E19A07C2
:1020700024F060E070E080E099E12CE09595879590
:10208000779567952A95D1F70E94601520E030E09A
:1020900040E85AE30E94651642E00E940D068AE677
:1020A00091E00E94FF058AE291E00E94AE056091F6
:1020B000B3017091B4018091B5019091B6010E9475
:1020C0003802E0E0F0E0EF2B09F472CC0E94D50278
:1020D000882309F46DCC0E9400006ACCA885B985DC
:1020E0001B968C918F3F49F061E00E94F70061E000
:1020F000E885F98583850E949000A885B9858D9132
:102100009C91892B09F443C11FB7F8948091B201C7
:10211000811127C0E2E9F0E08491E6EAF0E09491D1
:10212000E82FF0E0EE0FFF1FEC58FF4FA591B491A0
:10213000EC91E92321F461E08AE00E94900061E0E3
:102140008AE00E94F7008CB580618CBD8CB58064FC
:102150008CBD61E08DE00E94F70061E08BE00E94A1
:10216000F7008091B2018F5F8093B2011FBF81E0C1
:10217000E885F985838F80ED0E947D0990E0B0E0CD
:10218000A0E08093EA029093EB02A093EC02B0935C
:10219000ED0280369105A105B10509F0F9CB66EB9A
:1021A00080EE0E94E9066AE070E080E090E00E9424
:1021B000380283EF0E947D0980FDF5CF88E80E94F8
:1021C00092089093F7028093F6028AE80E949208A0
:1021D0009093F9028093F8028CE80E949208909301
:1021E000FB028093FA028EE80E9492089093FD020F
:1021F0008093FC0280E90E9492089093FF028093F2
:10220000FE0282E90E9492089093010380930003EA
:1022100084E90E949208909303038093020386E965
:102220000E949208909305038093040388E90E941A
:10223000920890930703809306038AE90E9492080C
:1022400090930903809308038CE90E94920890936D
:102250000B0380930A038EE90E94920890930D036A
:1022600080930C0381EA0E947D0980930E0381EE26
:102270000E9492089093100380930F0383EE0E94B4
:102280007D098093110384EE0E947D09898385EE88
:102290000E947D09F98140E1F402900111248F70C0
:1022A000282B309313032093120386EE0E947D099E
:1022B000898385EE0E947D09B981E0E1BE02D001EB
:1022C000112490E004E0959587950A95E1F78A2B13
:1022D0009B2B909315038093140387EE0E947D0936
:1022E000809316038DEE80931803809119038F71EC
:1022F000806A8093190380911703807C8F77809385
:10230000170360E084EF0E94E9066091190362956B
:102310006695677082EF0E94E90680911703682F27
:102320006770F0E26F9FB0011124282F2695269543
:102330002695277044E0249F90011124622B87FB8F
:10234000882780F9682B85EF0E94E90680911803A1
:10235000682F677050E2659FB0011124282F2695E1
:1023600026952695277094E0299F90011124622BD1
:102370008295869586958370682B84EF0E94E90686
:1023800064E670E080E090E00E94380201CB61E0FA
:10239000E885F98584850E94F700A885B9851A9695
:1023A0008C911A978B7FF9F460E01C968C910E94B7
:1023B0009000A885B9851D968C918F3F49F061E00A
:1023C0000E94F70061E0E885F98585850E9490000C
:1023D000A885B9851E968C918F3F09F4C8CE60E020
:1023E0000E94F700C4CE61E0E885F9858485DFCFDF
:1023F00060E070E080EC9FE767CD60E070E0CB01CB
:1024000063CD60E070E080EC9FE746CECF93DF9332
:10241000C091E102D091E202209749F08A819B812C
:10242000009711F00E947317CE010E9473178091DC
:10243000DF029091E002009711F00E9473178091E3
:10244000E3029091E402009739F0DC01ED91FC91F8
:102450000280F381E02D09958091E5029091E602DA
:10246000009739F0DC01ED91FC910280F381E02DC1
:1024700009958091E7029091E802009749F0DC010C
:10248000ED91FC910280F381E02DDF91CF910994D1
:10249000DF91CF910895DB018F939F930E949C124F
:1024A000BF91AF91A29F800D911DA39F900DB29FF0
:1024B000900D11240895A1E21A2EAA1BBB1BFD0149
:1024C0000DC0AA1FBB1FEE1FFF1FA217B307E40713
:1024D000F50720F0A21BB30BE40BF50B661F771F6B
:1024E000881F991F1A9469F760957095809590954B
:1024F0009B01AC01BD01CF010895052E97FB1EF491
:1025000000940E94941257FD07D00E945B1207FCB2
:1025100003D04EF40C94941250954095309521952B
:102520003F4F4F4F5F4F08959095809570956195FF
:102530007F4F8F4F9F4F08950E943814A59F900D95
:10254000B49F900DA49F800D911D11240895B7FF95
:102550000C949C120E949C12821B930B0895DF9393
:10256000CF931F930F939A9DF02D219FF00D8B9D7C
:10257000F00D8A9DE02DF10D039FF00D029FE00DFF
:10258000F11D4E9DE00DF11D5E9DF00D4F9DF00D76
:102590007F936F93BF92AF925F934F93D5010E9449
:1025A00038148B01AC01D7010E943814EB01E80FFD
:1025B000F91FD6010E94FE122F913F91D6010E9471
:1025C0003814C60FD71FE81FF91FAF91BF910E94A3
:1025D000FE122F913F910E943814C60FD71FE81F9B
:1025E000F91FD6010E943814E60FF71F9801BE01AB
:1025F000CF010F911F91CF91DF9108950E94381460
:10260000460F571FC81FD91F08F4319608956894C4
:1026100001C0E894F92FF12B12F00C943B13A0E0C9
:10262000B0E0E5E1F3E10C94AD13092E059422F43A
:102630000E949713112392F4F0E80F26FFEFE09425
:10264000F09400951095B094C094D094A194BF0AD2
:10265000CF0ADF0AEF0AFF0A0F0B1F0B0E94461377
:1026600007FC0E949713CDB7DEB7ECE00C94C913BA
:10267000689401C0E8948F929F92CF93DF930E9459
:102680004613DF91CF919F908F90089588249924CD
:10269000F401E401B0E49F93AA279A158B049C04EB
:1026A000ED05FE05CF05D007A10798F4AD2FDC2F6F
:1026B000CF2FFE2FE92D982C892E982F872F762F3C
:1026C000652F542F432F322F2227B85031F7BF9157
:1026D00027C01B2EBF91BB27220F331F441F551F3E
:1026E000661F771F881F991F881C991CEE1FFF1FEC
:1026F000CC1FDD1FAA1FBB1F8A149B04EC05FD0520
:10270000CE05DF05A007B10748F08A189B08EC0941
:10271000FD09CE09DF09A00BB10B21601A94E1F687
:102720002EF49401AF01BE01CD01000C0895609517
:1027300070958095909530954095509521953F4F97
:102740004F4F5F4F6F4F7F4F8F4F9F4F08952F9287
:102750003F924F925F926F927F928F929F92AF9231
:10276000BF92CF92DF92EF92FF920F931F93CF937E
:10277000DF93CDB7DEB7CA1BDB0B0FB6F894DEBF15
:102780000FBECDBF09942A88398848885F846E843B
:102790007D848C849B84AA84B984C884DF80EE8085
:1027A000FD800C811B81AA81B981CE0FD11D0FB68E
:1027B000F894DEBF0FBECDBFED010895002E0830A6
:1027C00090F0982F872F762F652F542F432F322F7D
:1027D00022270850F4CF220F331F441F551F661FB6
:1027E000771F881F991F0A95B2F7002D089597FD4E
:1027F0001094002E083098F00850232F342F452FC6
:10280000562F672F782F892F912DF4CF15949795F8
:1028100087957795679557954795379527950A95A5
:10282000AAF71124002D08952A0D3B1D4C1D5D1D96
:102830006E1D7F1D801F911F08952A193B094C09A9
:102840005D096E097F09800B910B08950024A7FD97
:1028500000942A1730054005500560057005800575
:1028600090050895EE0FFF1F0590F491E02D099457
:10287000A29FB001B39FC001A39F700D811D1124C1
:10288000911DB29F700D811D1124911D0895505806
:10289000BB27AA270E945F140C9426160E941816C4
:1028A00038F00E941F1620F039F49F3F19F426F4E7
:1028B0000C9405160EF4E095E7FB0C94FF15E92F38
:1028C0000E94371658F3BA176207730784079507F3
:1028D00020F079F4A6F50C9459160EF4E0950B2E21
:1028E000BA2FA02D0B01B90190010C01CA01A00162
:1028F0001124FF27591B99F0593F50F4503E68F1BD
:102900001A16F040A22F232F342F4427585FF3CFFD
:10291000469537952795A795F0405395C9F77EF4CE
:102920001F16BA0B620B730B840BBAF09150A1F017
:10293000FF0FBB1F661F771F881FC2F70EC0BA0F9D
:10294000621F731F841F48F4879577956795B79525
:10295000F7959E3F08F0B0CF9395880F08F0992720
:10296000EE0F9795879508950E94DB1508F481E096
:1029700008950E94CD140C9426160E941F1658F03C
:102980000E94181640F029F45F3F29F00C94FF15BF
:1029900051110C945A160C9405160E94371668F3C0
:1029A0009923B1F3552391F3951B550BBB27AA2708
:1029B00062177307840738F09F5F5F4F220F331F42
:1029C000441FAA1FA9F335D00E2E3AF0E0E832D00A
:1029D00091505040E695001CCAF72BD0FE2F29D00D
:1029E000660F771F881FBB1F261737074807AB07DF
:1029F000B0E809F0BB0B802DBF01FF2793585F4F54
:102A00003AF09E3F510578F00C94FF150C945A163D
:102A10005F3FE4F3983ED4F3869577956795B79535
:102A2000F7959F5FC9F7880F911D9695879597F940
:102A30000895E1E0660F771F881FBB1F62177307B9
:102A40008407BA0720F0621B730B840BBA0BEE1FCE
:102A500088F7E09508950E943F1688F09F5798F0F8
:102A6000B92F9927B751B0F0E1F0660F771F881F93
:102A7000991F1AF0BA95C9F714C0B13091F00E94AD
:102A80005916B1E008950C945916672F782F8827AE
:102A9000B85F39F0B93FCCF3869577956795B395D4
:102AA000D9F73EF490958095709561957F4F8F4F43
:102AB0009F4F089597FB16F40E9408160C949E15DC
:102AC000E89409C097FB3EF49095809570956195C8
:102AD0007F4F8F4F9F4F9923A9F0F92F96E9BB277E
:102AE0009395F695879577956795B795F111F8CFFA
:102AF000FAF4BB0F11F460FF1BC06F5F7F4F8F4F65
:102B00009F4F16C0882311F096E911C0772321F05A
:102B10009EE8872F762F05C0662371F096E8862FF2
:102B200070E060E02AF09A95660F771F881FDAF749
:102B3000880F9695879597F90895E894F92F96EB65
:102B4000FF2381F0121613061406440B9395F69595
:102B500087957795679557954040FF23B9F71BC038
:102B600099270895882351F49850D2F7872B762F10
:102B7000652F542F432F322F20E0B1F31216130686
:102B80001406440B88233AF09A95440F551F661F8C
:102B9000771F881FCAF755234AF4440F551F11F4B5
:102BA00060FF04C06F5F7F4F8F4F9F4F880F9695D8
:102BB000879597F90895990F0008550FAA0BE0E83B
:102BC000FEEF16161706E807F907C0F012161306EF
:102BD000E407F50798F0621B730B840B950B39F42F
:102BE0000A2661F0232B242B252B21F408950A2695
:102BF00009F4A140A6958FEF811D811D089597F9D5
:102C00009F6780E870E060E008959FEF80EC089592
:102C1000909580957095609550954095309521954B
:102C20003F4F4F4F5F4F6F4F7F4F8F4F9F4F0895D5
:102C300000240A941616170618060906089500249B
:102C40000A9412161306140605060895092E039415
:102C5000000C11F4882352F0BB0F40F4BF2B11F489
:102C600060FF04C06F5F7F4F8F4F9F4F089557FDE8
:102C70009058440F551F59F05F3F71F04795880FEA
:102C800097FB991F61F09F3F79F087950895121681
:102C900013061406551FF2CF4695F1DF08C016162D
:102CA00017061806991FF1CF8695710561050894DE
:102CB0000895E894BB2766277727CB0197F90895F5
:102CC0000E94DB1508F48FEF08950E9478160C948B
:102CD00026160E94181638F00E941F1620F0952321
:102CE00011F00C94FF150C94051611240C945A162F
:102CF0000E94371670F3959FC1F3950F50E0551F52
:102D0000629FF001729FBB27F00DB11D639FAA2740
:102D1000F00DB11DAA1F649F6627B00DA11D661F8F
:102D2000829F2227B00DA11D621F739FB00DA11DB0
:102D3000621F839FA00D611D221F749F3327A00D6A
:102D4000611D231F849F600D211D822F762F6A2F06
:102D500011249F5750409AF0F1F088234AF0EE0F6B
:102D6000FF1FBB1F661F771F881F91505040A9F798
:102D70009E3F510580F00C94FF150C945A165F3F4E
:102D8000E4F3983ED4F3869577956795B795F795D4
:102D9000E7959F5FC1F7FE2B880F911D969587954C
:102DA00097F908950E94DB15880B990B08950F93EE
:102DB0001F93CF93DF938230910510F482E090E06F
:102DC000E0911C03F0911D0330E020E0B0E0A0E0B2
:102DD000309799F42115310509F44AC0281B390BA5
:102DE00024303105D8F58A819B816115710589F1FF
:102DF000FB0193838283FE0111C0408151810281D6
:102E0000138148175907E0F04817590799F41097AC
:102E100061F012960C93129713961C933296CF0181
:102E2000DF91CF911F910F91089500931C03109390
:102E30001D03F4CF2115310551F04217530738F027
:102E4000A901DB019A01BD01DF01F801C1CFEF014A
:102E5000F9CF90931D0380931C03CDCFFE01E20FA9
:102E6000F31F819391932250310939832883D7CF5F
:102E700020911A0330911B03232B41F4209102016E
:102E80003091030130931B0320931A03209100011A
:102E9000309101012115310541F42DB73EB7409124
:102EA000040150910501241B350BE0911A03F091A8
:102EB0001B03E217F307A0F42E1B3F0B281739075B
:102EC00078F0AC014E5F5F4F2417350748F04E0F86
:102ED0005F1F50931B0340931A03819391939FCFDD
:102EE000F0E0E0E09CCFCF93DF930097E9F0FC01A6
:102EF000329713821282A0911C03B0911D03ED0141
:102F000030E020E01097A1F420813181820F931FDF
:102F100020911A0330911B032817390709F061C06B
:102F2000F0931B03E0931A03DF91CF910895EA0118
:102F3000CE17DF07E8F54A815B819E0141155105F7
:102F4000B1F7E901FB83EA8349915991C40FD51F79
:102F5000EC17FD0761F4808191810296840F951F23
:102F6000E90199838883828193819B838A83F0E03E
:102F7000E0E012968D919C9113970097B9F52D91F1
:102F80003C911197CD010296820F931F20911A0355
:102F900030911B032817390739F6309751F51092F5
:102FA0001D0310921C03B0931B03A0931A03BCCF04
:102FB000D383C28340815181840F951FC817D907DD
:102FC00061F44E5F5F4F88819981480F591F51838B
:102FD00040838A819B81938382832115310509F087
:102FE000B0CFF0931D03E0931C039ECFFD01DC01E5
:102FF000C0CF13821282D7CF10E0C3E6D0E004C066
:10300000FE010E9432142196C436D107C9F7F89404
:02301000FFCFF0
:1030120000001E038000000000000B036B029802F8
:103022005803C902A702BB02000000007C054F053D
:10303200AB0525054805350526050D0A006E616EAE
:1030420000696E66006F76660054656D7065726128
:1030520074757265203D200020C2B0430050726535
:103062007373757265203D200020685061004875B9
:0E3072006D6964697479203D200020250000FE
:00000001FF
