:100000000C944F050C9477050C9477050C947705A8
:100010000C9477050C9477050C9477050C94770570
:100020000C9477050C9477050C9477050C94770560
:100030000C9477050C9477050C9477050C94770550
:100040000C941B130C9477050C948B130C94651370
:100050000C9477050C9477050C9477050C94770530
:100060000C94BD130C94770500000000003E5B4F1C
:100070005B3E3E6B4F6B3E1C3E7C3E1C183C7E3C08
:10008000181C577D571C1C5E7F5E1C00183C180016
:10009000FFE7C3E7FF0018241800FFE7DBE7FF30A6
:1000A000483A060E2629792926407F050507407F14
:1000B00005253F5A3CE73C5A7F3E1C1C08081C1C87
:1000C0003E7F14227F22145F5F005F5F06097F017D
:1000D0007F006689956A606060606094A2FFA29468
:1000E00008047E040810207E201008082A1C080836
:1000F0001C2A08081E101010100C1E0C1E0C303884
:100100003E3830060E3E0E06000000000000005F84
:1001100000000007000700147F147F14242A7F2AA0
:100120001223130864623649562050000807030062
:10013000001C2241000041221C002A1C7F1C2A08AE
:10014000083E080800807030000808080808000011
:1001500060600020100804023E5149453E00427F85
:10016000400072494949462141494D331814127FD4
:100170001027454545393C4A494931412111090774
:100180003649494936464949291E000014000000F5
:1001900040340000000814224114141414140041C7
:1001A00022140802015909063E415D594E7C121184
:1001B000127C7F494949363E414141227F414141BC
:1001C0003E7F494949417F090909013E4141517337
:1001D0007F0808087F00417F41002040413F017FA8
:1001E000081422417F404040407F021C027F7F0470
:1001F00008107F3E4141413E7F090909063E4151B9
:10020000215E7F09192946264949493203017F01A8
:10021000033F4040403F1F2040201F3F4038403FA9
:10022000631408146303047804036159494D4300BF
:100230007F4141410204081020004141417F0402F6
:10024000010204404040404000030708002054548D
:1002500078407F284444383844444428384444286B
:100260007F385454541800087E090218A4A49C78BE
:100270007F0804047800447D40002040403D007F1A
:100280001028440000417F40007C047804787C08FA
:100290000404783844444438FC18242418182424CE
:1002A00018FC7C08040408485454542404043F44B3
:1002B000243C4040207C1C2040201C3C4030403CE2
:1002C00044281028444C9090907C4464544C440042
:1002D00008364100000077000000413608000201A6
:1002E0000204023C2623263C1EA1A161123A404092
:1002F000207A38545455592155557941225454780F
:1003000042215554784020545579400C1E527212A7
:100310003955555559395454545939555454580030
:1003200000457C410002457D420001457C407D1234
:1003300011127DF0282528F07C5455450020545496
:100340007C547C0A097F4932494949323A44444441
:100350003A324A4848303A4141217A3A424020787C
:10036000009DA0A07D3D4242423D3D4040403D3C7D
:1003700024FF2424487E4943662B2FFC2F2BFF09A2
:1003800029F620C0887E0903205454794100004496
:100390007D413048484A32384040227A007A0A0A81
:1003A000727D0D19317D2629292F282629292926F4
:1003B00030484D4020380808080808080808382F39
:1003C00010C8ACBA2F102834FA00007B00000814C3
:1003D0002A142222142A14085500550055AA55AA99
:1003E00055AAFF55FF55FF000000FF00101010FF39
:1003F00000141414FF001010FF00FF1010F010F094
:10040000141414FC001414F700FF0000FF00FF1484
:1004100014F404FC141417101F10101F101F1414D0
:10042000141F00101010F0000000001F101010101A
:100430001F10101010F010000000FF10101010100E
:1004400010101010FF10000000FF140000FF00FF4C
:1004500000001F10170000FC04F4141417101714E8
:1004600014F404F40000FF00F7141414141414140A
:10047000F700F7141414171410101F101F1414147D
:10048000F4141010F010F000001F101F0000001FE7
:1004900014000000FC140000F010F01010FF10FF1A
:1004A000141414FF141010101F00000000F010FFAF
:1004B000FFFFFFFFF0F0F0F0F0FFFFFF0000000093
:1004C00000FFFF0F0F0F0F0F3844443844FC4A4A17
:1004D0004A347E02020606027E027E0263554941CC
:1004E000633844443C04407E201E2006027E020203
:1004F00099A5E7A5991C2A492A1C4C7201724C3017
:100500004A4D4D303048784830BC625A463D3E49ED
:100510004949007E0101017E2A2A2A2A2A44445F91
:10052000444440514A444040444A51400000FF0185
:1005300003E080FF000008086B6B08361236243693
:10054000060F090F060000181800000010100030F8
:1005500040FF0101001F01011E00191D1712003C80
:100560003C3C3C0000000000000103070F1F3F7FE0
:100570000080C0E0F0F8FCFEDB40A4A62EAF200017
:10058000A1C8D300408DAED580A800006000000057
:100590000000000000000000000000E0000000007B
:1005A00000000000000000000001E000000000006A
:1005B000000000000000000001F00000000000004A
:1005C0000000000000000003F00000000000000038
:1005D00000000000000007F0000000000000000024
:1005E000000000000007F80000000000000000000C
:1005F000000000000FF800000003C0007E000001B2
:10060000E0007F0FF800000003C000FE000001E0E2
:1006100000FFEFF800000003C000FE000001E00052
:10062000FFFFF800000003C000F00000000F007F93
:10063000FE7FC0000003C000F00000000F003FFE7E
:100640007FF83FF1FBCFFCFEF3BC3DEFE01FFE7FE8
:10065000FF7FFBFFDFFEFEFFBC3DEFE01FC6FFFF9D
:100660007FFBFFDFFEFEFFBC3DEFE00FE3C7FE7840
:100670007BC3DE1EF0FFBC3DEF0007FF87FC787BED
:10068000C3DE1EF0F83C3DEF0001FFFFF0007BC32E
:10069000C01EF0F03C3DEF0001F37FE03FFBC3CF15
:1006A000FEF0F03C3DEF0003E33F807FFBC3DFFE45
:1006B000F0F03C3DEF0007E73C00787BC3DE1EF026
:1006C000F03C3DEF0007FFBE00787BC3DE1EF0F07C
:1006D0003C3DEF0007FFFE00787BC3DE1EF0F03CE0
:1006E0003DEF000FFFFE007FFBFFDFFEF0F03FFD60
:1006F000EFE00FFFFF007FFBFFDFFEF0F03FFDEFBD
:10070000E00FF9FF003E79F9CF9EF0F01F3DE7E0E2
:100710001FF1FF0000000000000000000000001FAB
:1007200080FF007FFFFFFFFFFFFFFFFFFFE01C00D8
:100730007F007FFFFFFFFEB46D888D18E000001F73
:10074000007FFFFFFFFE95AD7DB577E000000F0055
:100750007FFFFFFFFEA5AD9D8D19E0000006007F25
:10076000FFFFFFFEB5ADEDB57EE00000000000012B
:100770008000000000000000000003800000000076
:10078000000000000007C0000000000000000000A2
:1007900007C00000000000000000000FC0000000C3
:1007A0000000000000001FE000000000000000004A
:1007B000001FE00000000000000000003FE000001B
:1007C000000000000000003FF000000000000000FA
:1007D00000007FF0000000000000001FF87FF00024
:1007E0000000000000003FFE7FF00000000000005D
:1007F000003FFF7FF0000000000000001FFFFBE053
:10080000000000000000000FFFF9FFC00000000022
:1008100000000FFFF9FFF800000000000007FFF1E3
:10082000FFFF00000000000003FC73FFFF800000DA
:1008300000000001FE3FFFFF80000000000000FFFD
:100840001E0FFF000000000000007FFE1FFC0000E4
:1008500000000000003FFFFFF80000000000000063
:100860000FDFFFE0000000000000001F19FFC000C4
:100870000000000000003F3CFF00000000000000FE
:10088000007E7CF800000000000000007FFE7C007D
:1008900000000000000000FFFFFC0000000000005E
:1008A0000000FFFFFE0000000000000000FFFFFE50
:1008B0000000000000000001FFEFFE00000000004B
:1008C000000001FFCFFE0000000000000003FF0752
:1008D000FE0000000000000003FC07FE0000000016
:1008E00000000003F003FE00000000000000018093
:1008F00000FE000000000000000000007E0000007C
:10090000000000000000003E0000000000000000A9
:1009100000000C000000000000078000FC00000345
:10092000C0000000078001FC000003C000000007B9
:100930008001FC000003C0000000078001E000000F
:10094000001E000000078001E00000001E007FE3A1
:10095000F79FF9FDE7787BDFC0FFF7FFBFFDFDFFE5
:10096000787BDFC0FFF7FFBFFDFDFF787BDFC0F0C6
:10097000F787BC3DE1FF787BDE00F0F787BC3DE107
:10098000F0787BDE0000F787803DE1E0787BDE00D9
:100990007FF7879FFDE1E0787BDE00FFF787BFFDF3
:1009A000E1E0787BDE00F0F787BC3DE1E0787BDEBC
:1009B00000F0F787BC3DE1E0787BDE00F0F787BC14
:1009C0003DE1E0787BDE00FFF7FFBFFDE1E07FFB6C
:1009D000DFC0FFF7FFBFFDE1E07FFBDFC07CF3F38B
:1009E0009F3DE1E03E7BCFC0000000000000000022
:1009F000000000FFFFFFFFFFFFFFFFFFFFC0FFFF43
:100A0000FFFFFD68DB111A31C0FFFFFFFFFD2B5A0E
:100A1000FB6AEFC0FFFFFFFFFD4B5B3B1A33C0FFDC
:100A2000FFFFFFFD6B5BDB6AFDC02200FF2100536F
:100A300053443133303620616C6C6F636174696F7D
:100A40006E206661696C65640000000008000201A8
:100A50000000030407000000000000000000000088
:100A600000250028002B0000000000240027002A99
:100A70000004040404040404040202020202020347
:100A80000303030303010204081020408001020451
:100A900008102001020408102000DC143019112471
:100AA0001FBECFEFD8E0DEBFCDBF11E0A0E0B1E0C8
:100AB000EAE4F5E302C005900D92A837B107D9F733
:100AC00023E0A8E7B1E001C01D92A832B207E1F728
:100AD00015E0CEE4D5E004C02197FE010E94611923
:100AE000CD34D107C9F70E945F150C94981A0C9465
:100AF000000090E0FC01EB57F54F24918F58954F83
:100B0000FC018491882399F090E0880F991FFC01E3
:100B1000E959F54FA591B491FC01E35AF54F859140
:100B200094918FB7F894EC91E22BEC938FBF0895DA
:100B3000089590E0FC01E75BF54F2491FC01EB5731
:100B4000F54F3491FC01EF58F54FE491EE23C9F0D5
:100B5000222339F0233001F1A8F4213019F1223099
:100B600029F1F0E0EE0FFF1FE35AF54FA591B49184
:100B70008FB7F894EC91611126C030953E233C93D9
:100B80008FBF08952730A9F02830C9F0243049F7E5
:100B9000809180008F7D03C0809180008F7780934B
:100BA0008000DFCF84B58F7784BDDBCF84B58F7DA8
:100BB000FBCF8091B0008F778093B000D2CF80912F
:100BC000B0008F7DF9CF3E2BDACF3FB7F8948091FC
:100BD000330290913402A0913502B091360226B5CD
:100BE000A89B05C02F3F19F00196A11DB11D3FBF65
:100BF000BA2FA92F982F8827BC01CD01620F711D34
:100C0000811D911D42E0660F771F881F991F4A952D
:100C1000D1F7089508950895AF92BF92CF92DF92D1
:100C2000EF92FF920F931F93CF93DF936C017B01A1
:100C30008B01040F151FEB015E01AE18BF08C01732
:100C4000D10759F06991D601ED91FC910190F081A5
:100C5000E02DC6010995892B79F7C501DF91CF9168
:100C60001F910F91FF90EF90DF90CF90BF90AF90CA
:100C70000895FC01538D448D252F30E0842F90E0A2
:100C8000821B930B541710F0CF9608950197089587
:100C9000FC01918D828D981761F0A28DAE0FBF2F50
:100CA000B11D5D968C91928D9F5F9F73928F90E0A6
:100CB00008958FEF9FEF0895FC01918D828D981715
:100CC00031F0828DE80FF11D858D90E008958FEF52
:100CD0009FEF0895FC01918D228D892F90E0805C1B
:100CE0009F4F821B91098F73992708958BE392E0A0
:100CF0000E946A0621E0892B09F420E0822F0895E2
:100D000080E090E0892B29F00E94760681110C94F6
:100D100000000895FC01A48DA80FB92FB11DA35A9E
:100D2000BF4F2C91848D90E001968F739927848F0B
:100D3000A689B7892C93A089B1898C91837080642E
:100D40008C93938D848D981306C00288F389E02DCF
:100D500080818F7D80830895EF92FF920F931F9380
:100D6000CF93DF93EC0181E0888F9B8D8C8D98135E
:100D70001AC0E889F989808185FF15C09FB7F8946A
:100D8000EE89FF896083E889F989808183708064B6
:100D900080839FBF81E090E0DF91CF911F910F9101
:100DA000FF90EF900895F62E0B8D10E00F5F1F4F10
:100DB0000F731127E02E8C8D8E110CC00FB607FC1F
:100DC000FACFE889F989808185FFF5CFCE010E94AD
:100DD0008A06F1CFEB8DEC0FFD2FF11DE35AFF4F8B
:100DE000F0829FB7F8940B8FEA89FB89808180623B
:100DF000CFCFCF93DF93EC01888D8823B9F0AA89F8
:100E0000BB89E889F9898C9185FD03C0808186FDC5
:100E10000DC00FB607FCF7CF8C9185FFF2CF808114
:100E200085FFEDCFCE010E948A06E9CFDF91CF91F9
:100E30000895EF92FF920F931F93CF93DF93EC01EE
:100E4000EC80FD806E157F050CF070C057FF04C06C
:100E5000240F351F50E040E08E819F81FA01E20FA0
:100E6000F31F8E179F071CF49C01241B350B1216D1
:100E700013060CF05BC0922F842F8695869586957D
:100E80008E9DD0018F9DB00D11246A0F7B1FAF8DF9
:100E9000B8A1A60FB71F477049F188E0841B482FFF
:100EA000682F70E0FB01E059FA4FE491281708F031
:100EB00063C0621B71092FEF30E002C035952795A2
:100EC0006A95E2F7E2230130110539F0B0F1023002
:100ED000110561F58C91E82702C08C91E82BEC9309
:100EE000941720F12C813D81A20FB31FE92FE41B41
:100EF000E83078F00230110521F58E2F9C91909505
:100F00009C932C813D81A20FB31F88508830B0F78D
:100F1000E770EE2359F0F0E0E859FA4FE491013020
:100F20001105F9F010F10230110519F1DF91CF919F
:100F30001F910F91FF90EF900895E0958C91E82319
:100F4000CECF81E00115110509F480E081959E2F37
:100F50008C932C813D81A20FB31F98509830C0F71D
:100F6000D7CF8C91E82BEC93E1CFE0958C91E823DF
:100F7000FACF8C91E827F7CF0130110509F4ADCFF6
:100F8000E0F20230110509F4A5CFAE0DBF1DAECFC2
:100F90000F931F93CF93DF9377FF04C0260F371F64
:100FA00070E060E0DC011496CD91DC91FB01E20F72
:100FB000F31FCE17DF071CF49E01261B370B1216FA
:100FC00013064CF5FA0157FD3796A3E0F595E79522
:100FD000AA95E1F7EC9FD001ED9FB00DFC9FB00DFD
:100FE00011246A0F7B1FDC015F96ED91FC91E60FE7
:100FF000F71F4770552781E090E001C0880F4A95A0
:10100000EAF7482F0130110559F0A8F02E0F3F1FC5
:1010100002301105E1F0DF91CF911F910F910895FA
:101020002E0F3F1FE217F307B1F38191DF011197F4
:10103000842B8C93F7CF80952E0F3F1FE217F30779
:1010400051F39191DF01119798239C93F7CFE21709
:10105000F30709F38191DF01119784278C93F7CF70
:101060000F931F93FA01DC0156964C91569742302C
:10107000E9F04330A1F1413061F514964D915C9156
:10108000DA01AE1BBF0BFD01E21BF30B77FD0BC0BA
:10109000DC0116964D915C916417750724F4AB0141
:1010A000BF010E94C8071F910F91089514964D919A
:1010B0005C91DA01A61BB70BBD0161507109DC011F
:1010C00016964D915C91DA01AE1BBF0BFD01E21B40
:1010D000F30B77FDE8CFAF010E941907E4CF169616
:1010E0004D915C91DA01A61BB70BBD0161507109EE
:1010F000CDCF0F931F93FA01DC0156964C91569772
:101100004230A9F0433091F1413019F514964D91D8
:101110005C91DA01AE1BBF0BFD013197F7FD04C0F6
:10112000AB01BF010E9419071F910F9108951496FA
:101130004D915C91DA01A61BB70BBD01DC0116963F
:101140004D915C91DA01AE1BBF0BFD013197621B23
:10115000730BF7FDE9CFDC0116964D915C91E41716
:10116000F50714F7AF010E94C807DECF16964D9120
:101170005C91DA01A61BB70BBD01621B730BCECFCE
:10118000FC0177FD64C080859185681779070CF0B4
:101190005EC057FD5CC082859385481759070CF0E7
:1011A00056C086898230B1F0833029F1813041F414
:1011B00084819581841B950BAB01BC016150710941
:1011C0002130310509F108F443C02230310509F41A
:1011D00063C0089584819581DC01A61BB70BBD0116
:1011E0006150710986819781DC01A41BB50BAD01AB
:1011F00041505109E5CF86819781861B970BBA0133
:10120000AC0141505109DCCFCA0157FD0796A3E05C
:1012100095958795AA95E1F7A481B5818A9F90015C
:101220008B9F300D9A9F300D1124620F731F078C16
:10123000F0A1E02DE60FF71F4770552721E030E0C1
:1012400001C0220F4A95EAF78081822B808308959E
:10125000CA0157FD079633E0959587953A95E1F7D2
:10126000A481B5818A9F90018B9F300D9A9F300D8C
:101270001124620F731F078CF0A1E02DE60FF71FFA
:101280004770552781E090E001C0880F4A95EAF742
:10129000809590818923DACFCA0157FD079623E014
:1012A000959587952A95E1F7A481B5818A9F90014C
:1012B0008B9F300D9A9F300D1124620F731F078C86
:1012C000F0A1E02DE60FF71F4770552721E030E031
:1012D00001C0220F4A95EAF780818227B7CF08958F
:1012E0008EBD00000DB407FEFDCF8EB508958CBDF8
:1012F0009DBD08950895FC016370668B848195817E
:1013000026813781613039F0633029F091878087F9
:1013100033872287089531872087938782870895AE
:101320002F923F924F925F926F927F928F929F92F5
:10133000AF92BF92CF92DF92EF92FF920F931F93E3
:10134000CF93DF93CDB7DEB76A970FB6F894DEBFC1
:101350000FBECDBF9A8F898F7A8369834A01D22EBF
:1013600018870F833701BC2CDC0159962D913C91D5
:101370005A972115310509F015C118968D919C9148
:101380001997681779070CF0D7C11A968D919C911F
:10139000481759070CF0D0C14C2C512CB6E0CB9E0D
:1013A000600D711D11247C876B87161617060CF0D3
:1013B000C3C1EA2DF0E0FA87E98793E0EE0FFF1F43
:1013C0009A95E1F7F88BEF87CF01840F951F1816D8
:1013D00019060CF0B1C1A98DBA8D58968C91811166
:1013E00004C0BFEABD1508F4D394A98DBA8DED9160
:1013F000FC9111970284F385E02DCD010995B5E0AC
:10140000DB9EC0011124E981FA81FC83EB83312C3E
:10141000212C9C0128593F4F388F2F8B4A2D50E0AB
:101420005E8B4D8BEF89F88DE20DF31D44919E820A
:101430008D82D12CC12C69817A81620D731D7A8BCA
:10144000698B842F90E09C8B8B8BE98DFA8DA0812A
:10145000B18140FF82C0F1E0BF126FC0AF126DC01A
:101460001C96ED91FC912F813885A4014C0D5D1DDA
:1014700069897A89898D9A8D0995EB89FC89F59519
:10148000E7954E2F5FEFC51AD50A6D817E818D8954
:101490009E89680F791F7E836D8398E0C916D104F9
:1014A00081F6AFEF2A1A3A0AEB81FC81E40DF51DB3
:1014B000FC83EB83F5E02F16310409F0B3CF2F81C5
:1014C000388526153705B9F0A98DBA8DED91FC91B7
:1014D000B1E0BB1257C0AB1255C069817A816B5F16
:1014E0007F4F0088F189E02D830128E030E0A401DE
:1014F000898D9A8D0995A98DBA8DED91FC911197E1
:101500000688F789E02DCD016A960FB6F894DEBF04
:101510000FBECDBFDF91CF911F910F91FF90EF9044
:10152000DF90CF90BF90AF909F908F907F906F9003
:101530005F904F903F902F9009941E96ED91FC91F3
:10154000EF80F88409851A8592014D815E816B8157
:101550007C81898D9A8D099590CF2F8138852615AC
:10156000370509F48ACF31E0B31207C0A31205C0D2
:101570001C96ED91FC91930178CF1E96ED91FC9114
:101580007301E0CF6B857C85641975090684F78546
:10159000E02D73010F8518899201A401898D9A8D20
:1015A0000995A9CFF90134969491329745915491B8
:1015B000D91AB7E0DB9E400D511D1124F901259188
:1015C00034913C8B2B8BFA0125903490FA013296A2
:1015D000749031963491398B329664903196449060
:1015E00041E04C1518F04A1508F07FC0662D062C16
:1015F000000C770B7C836B83842D042C000C990BDF
:101600009E838D83A98DBA8DED91FC9111970284F3
:10161000F385E02DCD010995512CD12CC12CEA2D5B
:10162000F0E0FA87E9872B2D30E03C872B87A40177
:10163000440D511D47FC5A95588F4F8B69817A8113
:10164000660D711D67FC7A957E876D877989C7164F
:1016500008F051CF2C2D30E04D815E81420F531F99
:10166000A985BA854A9FC0014B9F900D5A9F900D46
:101670001124FC01E80DF91DF88BEF87852D612CF5
:101680004F89588D420F531F5E8B4D8B671408F0A6
:1016900050C044244394480E877041F4C101019620
:1016A000EB89FC89E20DF31DD4901C01D7FE19C013
:1016B000A98DBA8DED91FC91662D70E0B1E0BB1261
:1016C00019C0AB1217C02D853E85620F731F0484AD
:1016D000F585E02D2F8138854D895E89898D9A8D1C
:1016E0000995DD0C6394842DD1CF1E821D821C824E
:1016F0001B8288CF4B815C81640F751FAB85BC85D5
:101700006A9FC0016B9F900D7A9F900D1124698193
:101710007A81680F791F0684F785E02DEF80F884C1
:1017200009851A859D014F855889898D9A8D09955E
:10173000D8CF570CC3948ACF6A960FB6F894DEBF01
:101740000FBECDBFDF91CF911F910F91FF90EF9012
:10175000DF90CF90BF90AF909F908F907F906F90D1
:101760005F904F903F902F9008958F929F92AF92ED
:10177000CF92EF92FF920F931F93CF93DF93EC01E1
:10178000262F898D9A8D009709F051C06A30D1F4C7
:101790001D861C868D8948E0849F900111248E85CA
:1017A0009F85820F931F9F878E8781E090E0DF9156
:1017B000CF911F910F91FF90EF90CF90AF909F909E
:1017C0008F9008956D3089F3CC88AD888F898823F8
:1017D000C1F08C859D8536E0C39E800D911D11243E
:1017E000488559854817590764F44E855F851D86DD
:1017F0001C8638E0A39EC0011124840F951F9F878B
:101800008E87EA88FB88088919894E855F856C85F3
:101810007D85CE010E9490092C898C859D8546E0AE
:10182000249F800D911D11249D878C87BECF6A3027
:1018300069F41D861C86FC013896E4912D898E85FD
:101840009F85E29F800D911D1124ADCF6D3009F46D
:10185000ACCFFC0134963491631708F4A6CF3296CE
:10186000E491E61708F4A1CFFC013296859094909C
:10187000462F431B342F47E0349F800C911C1124CA
:10188000F401329634913196E4913323A9F1EE2399
:1018900099F1CC88F4013596E491AD884F894423C1
:1018A00001F10E2E000CFF0BE30FF11DCE9EA001E7
:1018B000CF9E500D11246C857D85460F571F68857E
:1018C0007985641775076CF44E855F851D861C86C7
:1018D000FC013896E491AE9E400D511D11245F87A6
:1018E0004E87EA88FB88088919894E855F856C8553
:1018F0007D85CE010E949009F4013496E4912C89F3
:101900008C859D85E29F800D911D11248DCF6F9256
:101910007F928F929F92AF92BF92CF92DF92EF927F
:10192000FF920F931F93CF93DF93EC016B015A014A
:1019300039014801E881F9810284F385E02D099598
:10194000E881F9810288F389E02D87019301A501DF
:10195000B601CE010995A501480D591D4150510907
:10196000E881F9810288F389E02D9301B601CE0167
:101970000995E881F9810088F189E02D9401A5019C
:10198000B601CE010995C60CD71CB601615071098C
:10199000E881F9810088F189E02D9401A501CE014B
:1019A0000995E881F9810688F789E02DCE01DF915C
:1019B000CF911F910F91FF90EF90DF90CF90BF904C
:1019C000AF909F908F907F906F9009946F927F92CD
:1019D0008F929F92AF92BF92CF92DF92EF92FF923F
:1019E0000F931F93CF93DF935C01EB016A014901D1
:1019F00038018701DC01ED91FC916217730719F53D
:101A0000641675062CF0962D872D3A01C92ED82E16
:101A10009601261937092F5F3F4F048CF58DE02D75
:101A2000A301BE01C5010995DF91CF911F910F91CF
:101A3000FF90EF90DF90CF90BF90AF909F908F90EE
:101A40007F906F9008954615570591F42617370734
:101A500024F0892D4B01C22FD82F9E012819390956
:101A60002F5F3F4F068CF78DE02DA601B401DACF32
:101A70000284F385E02D0995D501ED91FC91048850
:101A8000F589E02D83019401A601BE01C5010995E8
:101A9000D501ED91FC910688F789E02DC501DF9114
:101AA000CF911F910F91FF90EF90DF90CF90BF905B
:101AB000AF909F908F907F906F900994EF92FF92DC
:101AC0000F931F93DC011A960D911C911B9718968A
:101AD0002D913C911997ED91FC9100A0F1A1E02D81
:101AE0007B0150E040E070E060E009951F910F91AC
:101AF000FF90EF9008954F925F926F927F928F9236
:101B00009F92AF92BF92CF92DF92EF92FF920F938C
:101B10001F93CF93DF936C012B015A0139014801C8
:101B2000DC01ED91FC910284F385E02D0995E20141
:101B3000640C751CD601ED91FC91C615D7055CF4BB
:101B40000088F189E02D87019401A501BE01C6013D
:101B500009952196EFCF0688F789E02DC601DF9120
:101B6000CF911F910F91FF90EF90DF90CF90BF909A
:101B7000AF909F908F907F906F905F904F9009945F
:101B80008F929F92AF92BF92CF92DF92EF92FF928D
:101B90000F931F93CF93DF93EC015B014A0169011F
:101BA000E881F9810284F385E02D099595012C0DDA
:101BB0003D1D21503109E881F9810488F589E02D26
:101BC00078018401A401B501CE010995E881F9816C
:101BD0000688F789E02DCE01DF91CF911F910F91FB
:101BE000FF90EF90DF90CF90BF90AF909F908F903D
:101BF00009948F929F92AF92BF92CF92DF92EF9211
:101C0000FF920F931F93CF93DF93EC015B014A0187
:101C100069017801E881F9810284F385E02D099555
:101C2000C80CD91C860101501109E881F98104888A
:101C3000F589E02D9501A401B501CE010995E88152
:101C4000F9810688F789E02DCE01DF91CF911F91B0
:101C50000F91FF90EF90DF90CF90BF90AF909F904B
:101C60008F900994EF92FF920F931F93DC01ED91F7
:101C7000FC9100A0F1A1E02D09951F910F91FF901B
:101C8000EF9008950F931F93DC01ED91FC91068C6A
:101C9000F78DE02D09951F910F9108950F931F93D4
:101CA000DC01ED91FC91048CF58DE02D09951F91DF
:101CB0000F910895DC01ED91FC910084F185E02DF8
:101CC00009943F924F925F926F927F928F929F9270
:101CD000AF92BF92CF92DF92EF92FF920F931F933A
:101CE000CF93DF935C017B014A016901390187E0F1
:101CF000680E711C93E0759467949A95E1F72B0137
:101D0000400E511E10E000E0312CD0E0C0E0CE01CA
:101D100087709927330C892B59F4FE0183E0F595E0
:101D2000E7958A95E1F7E00FF11FE80DF91D349072
:101D300037FE0AC021E030E0A701B5016C0F7D1F1E
:101D400084EE92E00E945A0E2196CC16DD06F9F63A
:101D50008FEFE81AF80A060D171DE414F504A9F62A
:101D6000DF91CF911F910F91FF90EF90DF90CF9077
:101D7000BF90AF909F908F907F906F905F904F90AB
:101D80003F9008952F923F924F925F926F927F9271
:101D90008F929F92AF92BF92CF92DF92EF92FF927B
:101DA0000F931F93CF93DF9300D000D000D0CDB717
:101DB000DEB73C016A013E832D83FC82EB82580131
:101DC000A41AB50AB7FE03C0B194A194B1088D80DE
:101DD0009E80861A970A97FE03C091948194910879
:101DE0008A149B045CF0902F812F0D811E819D83AE
:101DF0008E839C2D8D2D6B01692F782F0C151D0561
:101E00005CF09D818E817E836D83692F782F902F6A
:101E1000812F8601C92ED82E1601201A310A2B01D6
:101E20002D813E81421A530A57FE03C051944194BA
:101E30005108710137FE03C03FEFE31AF30AF5942E
:101E4000E7948D819E81861797075CF5A1E0B0E04D
:101E5000BA83A983C016D1064CF1D301ED91FC9150
:101E60000484F585E02D2B813C81A8016D817E8164
:101E70008A149B041CF04D815E81B801C301099551
:101E8000E418F508F7FE0AC02D813E8189819A8108
:101E9000280F391F3E832D83E20CF31C0F5F1F4F69
:101EA000D9CF2FEF3FEF3A832983D4CF26960FB6B1
:101EB000F894DEBF0FBECDBFDF91CF911F910F9180
:101EC000FF90EF90DF90CF90BF90AF909F908F905A
:101ED0007F906F905F904F903F902F90089508955E
:101EE0002091DE01260F3327331F21323105ECF418
:101EF00020910202FC0190E080E0243069F082E051
:101F00000895A091DE012191AC0142545E4FA40FCF
:101F1000B52FB11D2C930196861798F38091DE01A1
:101F2000680F6093DE0180E0089581E008951092CB
:101F3000020281E0809304021092030261E082E1D8
:101F40000E94990561E083E10E949905E9EBF0E0C8
:101F500080818E7F808380818D7F808388E48093E1
:101F6000B80085E48093BC000895CF93DF9391E09F
:101F70009093BD018823B9F0C091B800D091BA0008
:101F80008091BC008A7B8093BC0060E082E10E946B
:101F9000990560E083E10E9499050E94970FD09314
:101FA000BA00C093B800DF91CF910895E0912D025F
:101FB00080912C02E81730F4F0E0E856FE4F808163
:101FC00090E008958FEF9FEF089590912D028091FA
:101FD0002C022FEF3FEF981748F4E92FF0E0E85676
:101FE000FE4F208130E09F5F90932D02C90108953C
:101FF00080912C0290912D02891B990B0895CF920C
:10200000DF92EF92FF920F931F93CF93DF937C01A8
:10201000CB018A0120913A02222389F0EB016B0166
:10202000C40ED51ECC15DD0569F06991D701ED917F
:10203000FC910190F081E02DC7010995F3CF642F49
:102040000E94700FC801DF91CF911F910F91FF90F7
:10205000EF90DF90CF900895CF93DF931F92CDB78D
:10206000DEB7698320913A022223F9F020913702EA
:10207000203258F021E030E0FC013383228390E0ED
:1020800080E00F90DF91CF91089580913802E82F82
:10209000F0E0E858FE4F998190838F5F809338027B
:1020A0008093370281E090E0ECCF61E0CE010196B1
:1020B0000E94700FF7CFCF92DF92EF92FF920F93B3
:1020C0001F93CF93DF93D091370281E0D13208F094
:1020D0009CC0C09139020E94E5056B017C01809192
:1020E000020281116CC082E08093020281E0809341
:1020F00004028FEF8093010210922602D0932502F2
:10210000A8E7B1E0E5E0F2E080E0D8138DC01092DE
:10211000270280912702CC0FC82BC0932702809101
:102120000302813009F084C0109203020E94E50589
:102130006B017C01809127028093BB008091B901E3
:102140009091BA01A091BB01B091BC01892B8A2B5F
:102150008B2BA1F00E94E5050091B9011091BA0105
:102160002091BB013091BC016C197D098E099F093A
:10217000061717072807390708F442C08091BC00EA
:1021800083FDD8CF85EC8093BC000E94E5056B01F0
:102190007C0180910202823009F44CC080910102DE
:1021A0008F3F09F469C080910102803209F466C052
:1021B00080910102803309F463C084E026C08091DD
:1021C000B9019091BA01A091BB01B091BC01892BDA
:1021D0008A2B8B2B09F483CF0E94E5050091B9016E
:1021E0001091BA012091BB013091BC016C197D099D
:1021F0008E099F09061717072807390708F06FCFC0
:102200008091B8010E94B50F85E0109238021092BB
:10221000370210923A02DF91CF911F910F91FF90F8
:10222000EF90DF90CF9008959D9191938F5F6DCF48
:1022300085EEA9CF8091B9019091BA01A091BB011F
:10224000B091BC01892B8A2B8B2B09F4A2CF0E9461
:10225000E5050091B9011091BA012091BB013091BF
:10226000BC016C197D098E099F09061717072807FD
:10227000390708F08ECFC4CF80E0C7CF82E0C5CF4A
:1022800083E0C3CFEF92FF920F931F93CF93DF931F
:102290007C01C62F8091010390910203009709F4FD
:1022A00059C02091050331E030933A02209339025E
:1022B0001092380210923702DC01ED91FC910190EE
:1022C000F081E02D60E009958701EE24E394F12C84
:1022D000D1E0C1508091010390910203CF3F91F171
:1022E000B0E2EB16F104D8F00E945B10809101037C
:1022F0009091020320910503D0933A022093390272
:102300001092380210923702DC01ED91FC9101909D
:10231000F081E02D60E00995EE24E394F12C8091AA
:10232000010390910203F8016491DC01ED91FC91AD
:102330000190F081E02D0995BFEFEB1AFB0A0F5FCA
:102340001F4FC7CFDF91CF911F910F91FF90EF905B
:102350000C945B10E0911103F09112039081809135
:1023600017038095892380838701C15008F438C002
:10237000F80184912091FF0230910003232B29F072
:102380000E9470090F5F1F4FF0CF28E030E040E857
:10239000E0910D03F0910E0390911503582F5423F3
:1023A000D9F05081952B9083E0910F03F0911003A9
:1023B000908150911603952B9083E0910F03F0913B
:1023C0001003508190911603909595239083469524
:1023D00021503109E9F6D6CF508190959523E3CF6E
:1023E000DF91CF911F910F91FF90EF9008951F9370
:1023F000CF93DF93EC018D8D9E8D009721F1162FE9
:1024000029A131E030933A02209339021092380228
:1024100010923702DC01ED91FC910190F081E02DEA
:1024200060E009958D8D9E8DDC01ED91FC91019010
:10243000F081E02D612F09958D8D9E8DDF91CF91DB
:102440001F910C945B10ADA5BEA59C918BA98095A6
:1024500089238C938B8D9C8D892B31F0862FDF9176
:10246000CF911F910C94700928E030E080E8A9A575
:10247000BAA599A9462F4823C1F04C91942B9C935F
:10248000ABA5BCA59C914AA9942B9C93ABA5BCA5DC
:102490004C919AA9909594239C938695215031094B
:1024A00031F7DF91CF911F9108954C91909594232E
:1024B000E6CF1F93CF93DF93EC01162F8D8D9E8D6A
:1024C000892BB1F12DA93EA94FA958AD60E074E266
:1024D00084EF90E00E943F192051310941095109D0
:1024E00056954795379527952093B80066EA1111C0
:1024F00067EACE010E94F7118D8D9E8D892B41F1E7
:1025000029AD3AAD4BAD5CAD60E074E284EF90E094
:102510000E943F19205131094109510956954795AB
:10252000379527952093B800DF91CF911F9108959B
:102530008B8D9C8D892B21F08EAD9FAD0E947709EC
:10254000EFA5F8A990818CA9809589238083CECFAF
:10255000EFA5F8A980819CA9892B8083E5CF90E025
:1025600080E008952091EA023091EB02C9010796BC
:1025700097FD079623E0959587952A95E1F7209199
:10258000E8023091E902829FA001839F500D929F43
:10259000500D112470E060E08091030390910403DA
:1025A0000C94911A0E948C1AFB0101900020E9F70B
:1025B0003197AF01461B570BDC01ED91FC91028076
:1025C000F381E02D099485ED8093BC008091B901E1
:1025D0009091BA01A091BB01B091BC010796A11DD9
:1025E000B11D23E0B695A795979587952A95D1F7C4
:1025F0002091BC0024FD03C0109202020895409176
:10260000B9015091BA016091BB017091BC01452B99
:10261000462B472B69F30097A105B10541F025E34F
:102620002A95F1F700000197A109B109E1CF809146
:10263000B8010C94B50F1F920F920FB60F92112490
:102640002F933F938F939F93AF93BF9380912F02CC
:1026500090913002A0913102B091320230912E025D
:1026600023E0230F2D3758F50196A11DB11D2093AE
:102670002E0280932F0290933002A0933102B093E8
:1026800032028091330290913402A0913502B091D0
:1026900036020196A11DB11D80933302909334023E
:1026A000A0933502B0933602BF91AF919F918F9165
:1026B0003F912F910F900FBE0F901F90189526E815
:1026C000230F0296A11DB11DD2CF1F920F920FB6FC
:1026D0000F9211242F933F934F935F936F937F93A8
:1026E0008F939F93AF93BF93EF93FF938BE392E00E
:1026F0000E948A06FF91EF91BF91AF919F918F91B8
:102700007F916F915F914F913F912F910F900FBEED
:102710000F901F9018951F920F920FB60F921124D1
:102720002F938F939F93EF93FF93E0914B02F09140
:102730004C028081E0915102F091520282FD1BC057
:102740009081809154028F5F8F7320915502821780
:1027500041F0E0915402F0E0E55CFD4F958F8093ED
:102760005402FF91EF919F918F912F910F900FBE87
:102770000F901F9018958081F4CF1F920F920FB683
:102780000F9211242F933F934F935F936F937F93F7
:102790008F939F93AF93BF93EF93FF938091B90073
:1027A000887F803609F44AC0F0F5883209F4A7C062
:1027B00018F5803109F49BC0B8F4882309F4F9C0F6
:1027C000883009F494C0FF91EF91BF91AF919F9130
:1027D0008F917F916F915F914F913F912F910F90CA
:1027E0000FBE0F901F901895883109F488C0803271
:1027F00051F78093010214C0803409F49DC040F465
:102800008033B9F38833F9F68093010285ECB0C0C8
:10281000803509F485C0883509F496C0883499F666
:102820000E94E312D0CF883909F48CC038F588377C
:1028300029F050F4883611F0803729F683E0809330
:1028400002021092000257C0883809F47BC0803918
:1028500019F0803809F0B7CF80910002803208F07B
:1028600071C0E091000281E08E0F809300028091A0
:10287000BB00F0E0E052FE4F80833DC0803B39F06A
:10288000E0F4803A09F479C0883A09F09CCF84E0FA
:10289000809302021092DF011092DE01E0912A0281
:1028A000F0912B0209958091DE0181110FC081E02A
:1028B0008093DE011092BE0109C0803C09F4A6CFCE
:1028C000883C09F4A3CF883B09F07DCFE091DF017C
:1028D00081E08E0F8093DF01F0E0E254FE4F8081B3
:1028E0008093BB009091DF018091DE0129C080912F
:1028F00027028093BB0085EC8093BC0064CF90914D
:10290000260280912502981758F5E091260281E071
:102910008E0F80932602F0E0EB5FFD4F8081E9CFC0
:10292000E091260281E08E0F809326028091BB0009
:10293000F0E0EB5FFD4F80839091260280912502AD
:102940009817C8F285E8D8CFE091260281E08E0F73
:10295000809326028091BB00F0E0EB5FFD4F808307
:102960008091040281115CCF81E08093030284EAAC
:102970008093BC001092020226CF85EC8093BC00AD
:102980001092020280910002803230F4E091000245
:10299000F0E0E052FE4F10826091000270E0E091A2
:1029A0002802F091290280EE91E009951092000230
:1029B0000ACF1092010234CFEBE3F2E013821282CD
:1029C00048EE53E060E070E044835583668377838C
:1029D0008AE091E09183808385EC90E095878487FD
:1029E00084EC90E09787868780EC90E0918B808BD9
:1029F00081EC90E0938B828B82EC90E0958B848BC2
:102A000086EC90E0978B868B118E128E138E148E2F
:102A1000A8EDB2E013961C921E92129714964D9355
:102A20005D936D937C9317978CE191E011969C9345
:102A30008E93E4EEF2E01382128220E830E03583D8
:102A4000248380E490E0978386833187208793876F
:102A50008287168A158614861786168681E0858BEE
:102A6000848B2FEF3FEF338B228B318B208B878B27
:102A7000108E128E118E8EE291E091838083148EDF
:102A8000138EB68FA58F10A2178E8FEF84A385A308
:102A900086A387A380A780E89AE1A6E0B0E085AB93
:102AA00096ABA7ABB0AF80EA96E8A1E0B0E081AF0B
:102AB00092AFA3AFB4AF80E586AF17AE0895789418
:102AC00084B5826084BD84B5816084BD85B5826033
:102AD00085BD85B5816085BD80916E0081608093E4
:102AE0006E0010928100809181008260809381004D
:102AF000809181008160809381008091800081605D
:102B0000809380008091B10084608093B1008091B7
:102B1000B00081608093B00080917A0084608093DF
:102B20007A0080917A00826080937A0080917A00A6
:102B3000816080937A0080917A00806880937A0027
:102B40001092C100E0914B02F0914C0282E0808330
:102B5000E0914702F09148021082E0914902F09121
:102B60004A0280E1808310925302E0914F02F0917B
:102B7000500286E08083E0914D02F0914E02808108
:102B800080618083E0914D02F0914E0280818860E7
:102B90008083E0914D02F0914E02808180688083B5
:102BA000E0914D02F0914E0280818F7D808366E539
:102BB00071E08BE392E00E94D41263E671E08BE354
:102BC00092E00E94D41210922D0210922C021092C8
:102BD0003802109237020E94970F8AE096E0909395
:102BE0002B0280932A028BE096E090932902809337
:102BF00028028091030390910403892B11F10E9414
:102C0000B2122091EA023091EB028091E802909199
:102C1000E902213231050CF04AC0B9016052710954
:102C200077FF02C06F5F7F4F759567958357910956
:102C300097FD019600E210E023E730E04AE855E016
:102C400049C02091EA023091EB02C901079697FD35
:102C50000796B3E095958795BA95E1F72091E8023C
:102C60003091E902AC01429FC001439F900D529FF9
:102C7000900D11240E94671990930403809303031D
:102C8000892B09F0BCCFCFE2DAE0FE016491662324
:102C900039F08BE392E00E94AC062196892BA9F7CC
:102CA00063E671E08BE392E00E94D412FFCFB9019A
:102CB0006054710977FF02C06F5F7F4F759567950C
:102CC0008255910997FD019600E410E022E530E07D
:102CD0004AE657E0959587950E94610E82E08093C1
:102CE00006038091010390910203892B09F46CC1C2
:102CF0008CE3809305038091010390910203892B5B
:102D000009F4E9C12091190330911A0340911B0382
:102D100050911C0360E074E284EF90E00E943F1940
:102D20002051310941095109569547953795279505
:102D30002093B80064E086E895E00E94421160911B
:102D4000EA02615084EE92E00E94F71164E082E8AA
:102D500095E00E9442118091060360E1813009F004
:102D600064E184EE92E00E94F71164E08EE795E062
:102D70000E9442118FE8809321038091E802909194
:102D8000E9028038910509F0BFC18091EA02909173
:102D9000EB028034910509F0C7C1809106038130B0
:102DA00009F0B0C18FE980932103C2E16AED84EE9E
:102DB00092E00E94F7116C2F84EE92E00E94F711CE
:102DC00061E884EE92E00E94F7116091210384EEA5
:102DD00092E00E94F71169ED84EE92E00E94F711F3
:102DE0008091060362E2813009F061EF84EE92E0A7
:102DF0000E94F71166E088E795E00E9442118091F9
:102E0000010390910203892B09F492C120911D03C3
:102E100030911E0340911F035091200360E074E243
:102E200084EF90E00E943F19205131094109510976
:102E300056954795379527952093B8000E94B21272
:102E400081E08093F8028093F90281E090E0909312
:102E5000F7028093F6029093F5028093F4021092A9
:102E6000F1021092F0028AE090E09093F3028093D6
:102E7000F20266E671E084EE92E00E94D41263E60C
:102E800071E084EE92E00E94D4128091010390914F
:102E90000203892B09F456C12091190330911A03BA
:102EA00040911B0350911C0360E074E284EF90E0BA
:102EB0000E943F1920513109410951095695479502
:102EC000379527952093B80065E08AE29AE00E9442
:102ED00042116091E802615084EE92E00E94F71185
:102EE0002091EA023091EB02C901079697FD0796FF
:102EF00033E0959587953A95E1F72091E802309176
:102F0000E902829F8001839F100D929F100D112472
:102F1000C0910303D09104038091010390910203B7
:102F20000C0F1D1F009709F450C12091050331E0DB
:102F300030933A02209339021092380210923702ED
:102F4000DC01ED91FC910190F081E02D60E40995A8
:102F5000EE24E394F12CDD24D3948091010390912D
:102F600002030C171D0709F404C1B0E2EB16F104CB
:102F7000D8F00E945B108091010390910203209190
:102F80000503D0923A02209339021092380210922F
:102F90003702DC01ED91FC910190F081E02D60E4BD
:102FA0000995EE24E394F12C8091010390910203A2
:102FB0006991DC01ED91FC910190F081E02D099582
:102FC000BFEFEB1AFB0AC9CF80910A030E94790573
:102FD00080910B030E94790580910A03082E000C52
:102FE000990BFC01EF58F54FE491F0E0EE0FFF1F55
:102FF000E35AF54F25913491309312032093110336
:10300000FC01EB57F54FE491E093170380910B031C
:10301000082E000C990BFC01EF58F54FE491F0E0FD
:10302000EE0FFF1FE35AF54FA591B491B09314032F
:10303000A0931303FC01EB57F54FE491E0931803C1
:103040008C91E82BEC938091FF0290910003892BE7
:1030500009F051CE809108030E94790580910903FF
:103060000E94790580910803082E000C990BFC0141
:10307000EF58F54FE491F0E0EE0FFF1FE35AF54FE4
:103080002591349130930E0320930D03FC01EB57EF
:10309000F54FE491E093150380910903082E000C8D
:1030A000990BFC01EF58F54FE491F0E0EE0FFF1F94
:1030B000E35AF54FA591B491B0931003A0930F0379
:1030C000FC01EB57F54FE491E09316038C91E095EA
:1030D000E823EC9310CE8091FF0290910003892B9E
:1030E00031F080912203909123030E947709E091AF
:1030F0001303F09114039081809118038095892324
:10310000808318CE8FEC4FCE8036910569F4809184
:10311000EA029091EB02409739F4809106038130E6
:1031200029F480E180932103C2E040CE8FEAFACFF8
:10313000E0911303F0911403808190911803892B7F
:1031400080837CCE8091FF0290910003892B31F027
:1031500080912203909123030E947709E091130349
:10316000F0911403908180911803809589238083C6
:10317000ABCE0E945B108091010390910203892BDA
:1031800009F464C020911D0330911E0340911F0378
:103190005091200360E074E284EF90E00E943F19B8
:1031A0002051310941095109569547953795279581
:1031B0002093B800C0E0D0E02097F1F30E9476069B
:1031C0008823D1F30E940000F7CFE0911103F09122
:1031D0001203808190911703892B8083C017D10738
:1031E00051F289912091FF0230910003232B19F0B5
:1031F0000E947009F3CF28E030E040E8E0910D0331
:10320000F0910E0390911503542F5823D9F050815B
:10321000952B9083E0910F03F091100390815091D2
:103220001603952B9083E0910F03F09110035081CA
:1032300090911603909595239083469521503109DE
:10324000E9F6CCCF508190959523E3CFE09113031D
:10325000F0911403808190911803892B8083AACF69
:103260008EE291E09093E5028093E4028091030363
:1032700090910403009711F00C94031A0895A1E2B1
:103280001A2EAA1BBB1BFD010DC0AA1FBB1FEE1FE0
:10329000FF1FA217B307E407F50720F0A21BB30B2B
:1032A000E40BF50B661F771F881F991F1A9469F7A7
:1032B00060957095809590959B01AC01BD01CF0103
:1032C0000895EE0FFF1F0590F491E02D09940F93E0
:1032D0001F93CF93DF938230910510F482E090E04A
:1032E000E0912603F091270330E020E0B0E0A0E079
:1032F000309799F42115310509F44AC0281B390B80
:1033000024303105D8F58A819B816115710589F1D9
:10331000FB0193838283FE0111C0408151810281B0
:10332000138148175907E0F04817590799F4109787
:1033300061F012960C93129713961C933296CF015C
:10334000DF91CF911F910F91089500932603109361
:103350002703F4CF2115310551F04217530738F0F8
:10336000A901DB019A01BD01DF01F801C1CFEF0125
:10337000F9CF9093270380932603CDCFFE01E20F70
:10338000F31F819391932250310939832883D7CF3A
:103390002091240330912503232B41F42091020135
:1033A00030910301309325032093240320910001E1
:1033B000309101012115310541F42DB73EB74091FF
:1033C000040150910501241B350BE0912403F09179
:1033D0002503E217F307A0F42E1B3F0B281739072C
:1033E00078F0AC014E5F5F4F2417350748F04E0F61
:1033F0005F1F5093250340932403819391939FCFA4
:10340000F0E0E0E09CCFCF93DF930097E9F0FC0180
:10341000329713821282A0912603B0912703ED0107
:1034200030E020E01097A1F420813181820F931FBA
:1034300020912403309125032817390709F061C032
:10344000F0932503E0932403DF91CF910895EA01DF
:10345000CE17DF07E8F54A815B819E0141155105D2
:10346000B1F7E901FB83EA8349915991C40FD51F54
:10347000EC17FD0761F4808191810296840F951FFE
:10348000E90199838883828193819B838A83F0E019
:10349000E0E012968D919C9113970097B9F52D91CC
:1034A0003C911197CD010296820F931F2091240326
:1034B000309125032817390739F6309751F51092C6
:1034C000270310922603B0932503A0932403BCCFB7
:1034D000D383C28340815181840F951FC817D907B8
:1034E00061F44E5F5F4F88819981480F591F518366
:1034F00040838A819B81938382832115310509F062
:10350000B0CFF0932703E09326039ECFFD01DC01AB
:10351000C0CF13821282D7CF81E090E0F8940C9450
:10352000981ADC0101C06D9341505040E0F70895B6
:1035300015E0CEE4D5E004C0FE010E946119219699
:0A354000CF34D107C9F7F894FFCF8C
:10354A0000002803800000000000AC060C063906C3
:10355A00F9066A0648065C06000000002C10FF0FF8
:10356A00AF129805F80FE50FD60F00000000B50B53
:10357A000C06AF126F0FC00898055A0E320E4E0E87
:10358A00420EC20E98057B095912300879087B0D44
:10359A005E0DE60C870C53534431333036205465A4
:1035AA007374000D0A007573696E692E65752F654F
:0835BA00737072657373000069
:00000001FF
