:100000000C9462000C948A000C948A000C948A0070
:100010000C948A000C948A000C948A000C948A0038
:100020000C948A000C948A000C948A000C948A0028
:100030000C948A000C948A000C948A000C948A0018
:100040000C94FA010C948A000C946A020C944402F9
:100050000C948A000C948A000C948A000C948A00F8
:100060000C948A000C948A000000000024002700F1
:100070002A000000000023002600290000000000E4
:10008000250028002B0004040404040404040202D4
:100090000202020203030303030301020408102007
:1000A0004080010204081020010204081020000012
:1000B0000008000201000003040700000000000027
:1000C00000008E0311241FBECFEFD8E0DEBFCDBFEE
:1000D00011E0A0E0B1E0E6E8F7E002C005900D9283
:1000E000A034B107D9F721E0A0E4B1E001C01D922E
:1000F000A63EB207E1F710E0C2E6D0E004C02197C7
:10010000FE010E94BB03C136D107C9F70E949C02C1
:100110000C94C1030C940000833081F028F48130EA
:1001200099F08230A9F008958730A9F08830C9F09D
:100130008430B1F4809180008F7D03C08091800075
:100140008F7780938000089584B58F7784BD08955C
:1001500084B58F7DFBCF8091B0008F778093B00006
:1001600008958091B0008F7DF9CF1F93CF93DF93D7
:10017000EBEBF0E09491E7EAF0E0D491E3E9F0E012
:10018000C491CC23B9F0182F992319F0892F0E941C
:100190008C00EC2FF0E0EE0FFF1FE458FF4FA5910D
:1001A000B4918FB7F894EC91111108C0D095DE236B
:1001B000DC938FBFDF91CF911F910895DE2BF8CF95
:1001C000AF92BF92CF92DF92EF92FF920F931F9365
:1001D000CF93DF936C017B018B01040F151FEB01A3
:1001E0005E01AE18BF08C017D10759F06991D6015A
:1001F000ED91FC910190F081E02DC6010995892BCC
:1002000079F7C501DF91CF911F910F91FF90EF908A
:10021000DF90CF90BF90AF900895FC01538D448D37
:10022000252F30E0842F90E0821B930B541710F0A1
:10023000CF96089501970895FC01918D828D9817AE
:1002400061F0A28DAE0FBF2FB11D5D968C91928D86
:100250009F5F9F73928F90E008958FEF9FEF0895B7
:10026000FC01918D828D981731F0828DE80FF11D80
:10027000858D90E008958FEF9FEF0895FC01918D9B
:10028000228D892F90E0805C9F4F821B91098F7394
:100290009927089589E491E00E943E0121E0892B8D
:1002A00009F420E0822F089580E090E0892B29F066
:1002B0000E944A0181110C9400000895FC01A48D54
:1002C000A80FB92FB11DA35ABF4F2C91848D90E078
:1002D00001968F739927848FA689B7892C93A0895B
:1002E000B1898C91837080648C93938D848D9813E5
:1002F00006C00288F389E02D80818F7D8083089578
:10030000EF92FF920F931F93CF93DF93EC0181E065
:10031000888F9B8D8C8D98131AC0E889F98980810C
:1003200085FF15C09FB7F894EE89FF896083E8893F
:10033000F98980818370806480839FBF81E090E031
:10034000DF91CF911F910F91FF90EF900895F62EBE
:100350000B8D10E00F5F1F4F0F731127E02E8C8D58
:100360008E110CC00FB607FCFACFE889F98980819D
:1003700085FFF5CFCE010E945E01F1CFEB8DEC0F32
:10038000FD2FF11DE35AFF4FF0829FB7F8940B8FBA
:10039000EA89FB8980818062CFCFCF93DF93EC0124
:1003A000888D8823B9F0AA89BB89E889F9898C915D
:1003B00085FD03C0808186FD0DC00FB607FCF7CF19
:1003C0008C9185FFF2CF808185FFEDCFCE010E9419
:1003D0005E01E9CFDF91CF910895FC0101900020EB
:1003E000E9F73197AF01481B590BBC0189E491E053
:1003F0000C94E0001F920F920FB60F9211242F93CE
:100400003F938F939F93AF93BF93809145019091BA
:100410004601A0914701B09148013091440123E089
:10042000230F2D3758F50196A11DB11D20934401CE
:100430008093450190934601A0934701B0934801F2
:100440008091400190914101A0914201B0914301FE
:100450000196A11DB11D8093400190934101A0938D
:100460004201B0934301BF91AF919F918F913F9112
:100470002F910F900FBE0F901F90189526E8230F15
:100480000296A11DB11DD2CF1F920F920FB60F92EF
:1004900011242F933F934F935F936F937F938F9389
:1004A0009F93AF93BF93EF93FF9389E491E00E94F2
:1004B0005E01FF91EF91BF91AF919F918F917F91DD
:1004C0006F915F914F913F912F910F900FBE0F90C1
:1004D0001F9018951F920F920FB60F9211242F9311
:1004E0008F939F93EF93FF93E0915901F0915A01FD
:1004F0008081E0915F01F091600182FD1BC09081DD
:10050000809162018F5F8F7320916301821741F0A8
:10051000E0916201F0E0E75BFE4F958F809362010E
:10052000FF91EF919F918F912F910F900FBE0F90A0
:100530001F9018958081F4CF789484B5826084BD33
:1005400084B5816084BD85B5826085BD85B58160D7
:1005500085BD80916E00816080936E001092810055
:100560008091810082608093810080918100816010
:1005700080938100809180008160809380008091D1
:10058000B10084608093B1008091B000816080935D
:10059000B00080917A00846080937A0080917A0024
:1005A000826080937A0080917A00816080937A00E3
:1005B00080917A00806880937A001092C100E09167
:1005C0005901F0915A0182E08083E0915501F09148
:1005D00056011082E0915701F091580180E180832B
:1005E00010926101E0915D01F0915E0186E08083EF
:1005F000E0915B01F0915C01808180618083E091FA
:100600005B01F0915C01808188608083E0915B01F7
:10061000F0915C01808180688083E0915B01F091C2
:100620005C0180818F7D808382E191E00E94ED01F9
:1006300084E391E00E94ED01C6EAD0E0FE0124913E
:1006400002E910E0F80184918823C9F090E0880F56
:10065000991FFC01E859FF4FA591B491FC01E458A2
:10066000FF4F459154919FB7F8943C91822F80950C
:1006700083238C93FA018081282B20839FBFE7EA94
:10068000F0E02491E3E9F0E08491882399F090E090
:10069000880F991FFC01E859FF4FA591B491FC0107
:1006A000E458FF4F859194918FB7F894EC91E22B29
:1006B000EC938FBF9AEBE92E90E0F92E20E0C22E4A
:1006C00020E0D22EF7018491FE01A490F801B490AD
:1006D000BB2079F081110E948C00EB2DF0E0EE0F31
:1006E000FF1FEE58FF4FA591B4918C91A82280E096
:1006F00049F487E391E00E94ED0184E391E00E94D8
:10070000ED0181E00E94B500C114D104D9F20E942C
:100710004A018823B9F20E940000D4CFE9E4F1E055
:100720001382128288EE93E0A0E0B0E08483958388
:10073000A683B78384E091E09183808385EC90E089
:100740009587848784EC90E09787868780EC90E09B
:10075000918B808B81EC90E0938B828B82EC90E08C
:10076000958B848B86EC90E0978B868B118E128E06
:10077000138E148E0895EE0FFF1F0590F491E02D57
:060780000994F894FFCF7C
:10078600000000008001E0000D01CD013E011C01CA
:100796003001537769746368202D20687474707310
:1007A6003A2F2F7573696E692E65752F6573707292
:1007B600657373000D0A00507265737365640000FB
:00000001FF
