:100000000C945E010C9486010C9486010C9486017C
:100010000C9486010C9486010C9486010C94860144
:100020000C9486010C9486010C9486010C94860134
:100030000C9486010C9486010C9486010C94860124
:100040000C94751A0C9486010C9486010C9486010C
:100050000C9486010C9486010C9486010C94860104
:100060000C9486010C948601000000000000000042
:100070000000000000000000000000000000000080
:10008000010101010101010101010101020202025C
:10009000020202020303030303030404040405052C
:1000A00005050506060606070707080808090909E1
:1000B0000A0A0A0B0B0B0C0C0D0D0D0E0E0F0F1078
:1000C00010111112121313141415151616171818EF
:1000D00019191A1B1B1C1D1D1E1F1F202122222344
:1000E000242526262728292A2A2B2C2D2E2F30316D
:1000F00032333435363738393A3B3C3D3E3F404168
:10010000424445464748494B4C4D4E505152545538
:100110005658595A5C5D5E606163646667696A6CD3
:100120006D6F7072737577787A7C7D7F818284863B
:1001300088898B8D8F91929496989A9C9EA0A2A468
:10014000A6A8AAACAEB0B2B4B6B8BABCBFC1C3C55B
:10015000C7CACCCED1D3D5D7DADCDFE1E3E6E8EB12
:10016000EDF0F2F5F7FAFCFF808386898C8F92958B
:10017000989B9EA2A5A7AAADB0B3B6B9BCBEC1C498
:10018000C6C9CBCED0D3D5D7DADCDEE0E2E4E6E8F0
:10019000EAEBEDEEF0F1F3F4F5F6F8F9FAFAFBFC20
:1001A000FDFDFEFEFEFFFFFFFFFFFFFFFEFEFEFD6B
:1001B000FDFCFBFAFAF9F8F6F5F4F3F1F0EEEDEBED
:1001C000EAE8E6E4E2E0DEDCDAD7D5D3D0CECBC98C
:1001D000C6C4C1BEBCB9B6B3B0ADAAA7A5A29E9B0A
:1001E0009895928F8C898683807C797673706D6AFE
:1001F0006764615D5A5855524F4C494643413E3BF6
:10020000393634312F2C2A282523211F1D1B19177D
:10021000151412110F0E0C0B0A090706050504032D
:1002200002020101010000000000000001010102C2
:1002300002030405050607090A0B0C0E0F11121420
:100240001517191B1D1F212325282A2C2F31343661
:10025000393B3E414346494C4F5255585A5D6164C3
:10026000676A6D707376797C0000000024002700B7
:100270002A0000000000250028002B0004040404CC
:100280000404040402020202020203030303030340
:10029000010204081020408001020408102001021D
:1002A00004081020000000080002010000030407F9
:1002B0000000000000000000661CC11D11241FBECC
:1002C000CFEFD8E0DEBFCDBF12E0A0E0B1E0EEECB2
:1002D000F0E402C005900D92AE31B107D9F722E0EB
:1002E000AEE1B2E001C01D92AE36B207E1F711E017
:1002F000CDE5D1E004C02197FE010E94001FCC355E
:10030000D107C9F70E94BF1A0C945A200C94000020
:1003100090E0FC01EC55FD4F2491FC01E057FD4FAE
:100320003491FC01E458FD4FE491EE23B9F022230F
:1003300039F02330F1F098F4213009F1223019F12D
:10034000F0E0EE0FFF1FEE58FD4FA591B4918FB76F
:10035000F894EC9130953E233C938FBF089527305D
:10036000A9F02830C9F0243059F7809180008F7DA2
:1003700003C0809180008F7780938000E1CF84B5A7
:100380008F7784BDDDCF84B58F7DFBCF8091B000AA
:100390008F778093B000D4CF8091B0008F7DF9CF5C
:1003A000CF92DF92EF92FF92282F2095253500F50E
:1003B0003DEF3203B001112461507F4F6B01770F85
:1003C000EE08FF087601DD24CC2443E0249FC00121
:1003D0001124092E000CAA0BBB0BBC01CD016C290A
:1003E0007D298E299F29FF90EF90DF90CF9008956F
:1003F0002A3AC0F4255583E0289F600111240D2C72
:10040000000CEE08FF08FE2CED2CDC2CCC244DEF6C
:1004100042039001112421503F4FB901330F880B43
:10042000990BDDCF2A5A3DEF3203B0011124615000
:100430007F4F6B01770FEE08FF08FE2CED2CDC2CB4
:10044000CC2443E0249FB0011124072E000C880B1C
:10045000990BCB0177276627C2CFCF93DF9390E02C
:10046000FC01E057FD4F249184589D4FFC0184917D
:100470008823D1F090E0880F991FFC01E859FD4FC7
:10048000A591B491FC01EE58FD4FC591D491611135
:100490000EC09FB7F8948C91E22FE0958E238C9339
:1004A0002881E223E8839FBFDF91CF9108958FB722
:1004B000F894EC91E22BEC938FBFF6CF3FB7F89412
:1004C00080912B0290912C02A0912D02B0912E02CE
:1004D00026B5A89B05C02F3F19F00196A11DB11D9F
:1004E0003FBFBA2FA92F982F8827BC01CD01620FDB
:1004F000711D811D911D42E0660F771F881F991F96
:100500004A95D1F708950F931F93CF93DF93CDB7FB
:10051000DEB729970FB6F894DEBF0FBECDBFE091CE
:100520005702F0915802309709F0C7C08091380205
:1005300090913902892B09F47CC00E945E020091DF
:100540003E0210913F02209140023091410260171B
:1005500071078207930740F460933E0270933F0255
:10056000809340029093410200913E0210913F021D
:100570002091400230914102601B710B820B930B62
:100580006C32714081059105C0F2F894809133027C
:10059000909134029A838983E0913802F091390274
:1005A000DF0111968081898790912F02E0914202AC
:1005B000F091430280914402992309F445C090814F
:1005C000982B98879081809589238F838F818C8346
:1005D00088E08B8358856F8149853B812C81898197
:1005E0009A81508347FD252F3A952083262F39F095
:1005F000441F00C000006083000000C0F2CF38E05C
:100600004D9160830000019761F7F0934302E093FE
:10061000420249873B832C839A83898378940E9482
:100620005E0260933E0270933F028093400290937B
:10063000410229960FB6F894DEBF0FBECDBFDF9101
:10064000CF911F910F9108959081982B9887908159
:10065000809589238F838F818E8388E08D83588551
:100660006F8149853D812E8189819A81508347FD23
:10067000252F00C000C0208300C000C000C000C003
:1006800000C060830000262F3A9541F0441F00000F
:1006900000C000C000C000C000C0E8CF38E04D91ED
:1006A00000C0608300C0019709F7F0934302E09314
:1006B000420249873D832E83AFCF29960FB6F89427
:1006C000DEBF0FBECDBFDF91CF911F910F91099477
:1006D000DC019696ED91FC910994DC019496ED91E4
:1006E000FC910994DC019296ED91FC910994DC0156
:1006F0009096ED91FC910994DC015E96ED91FC9150
:100700000994DC015C96ED91FC910994DC015A9608
:10071000ED91FC910994DC015896ED91FC910994BE
:10072000FC016689778945E058E0649F9001659FE8
:10073000300D749F300D1124275E394C378B268B7A
:10074000832F820F0895EF92FF920F931F93CF9301
:100750008C017B010E949003C82FC8010E94900366
:100760002C2F30E0322F2227280F311DD7010E9475
:10077000C91ECF911F910F91FF90EF9008950F9395
:100780001F93CF93DF938C01C62FD0E0C8010E9446
:1007900090039E01281B310937FF03C03195219535
:1007A0003109922F9095291708F4922F9A3270F3FD
:1007B000DF91CF911F910F910895EF92FF920F93C8
:1007C0001F93DC0118968C911897882381F0489F1D
:1007D000A0011124452F829F90011124232F809F77
:1007E00080011124012F8E9D70011124EF2C1E9683
:1007F0008C911E971996ED91FC911A971B969C91DE
:100800001B97891320C0CB01880F991F680F791F90
:100810006E0F7F1F1B96EC911B97E60FF72FF11DB4
:1008200040831C96EC911C97E60FF72FF11D208357
:100830001D968C91680F711DFB0100831F910F9114
:10084000FF90EF900895660F771F660F771F6E0F6A
:100850007F1FFB01E80FF11DE082DCCFEF920F93C9
:10086000CF93DF93EC01AA81BB81EDA9FEA937816B
:1008700033FF14C0EE2DF0E0E859FF4FE490E02F75
:10088000F0E0E859FF4F0491E22FF0E0E859FF4F04
:100890002491E42FF0E0E859FF4F44916A177B0759
:1008A00010F40E94DD03DF91CF910F91EF90089536
:1008B0002F923F924F925F926F927F928F929F9270
:1008C000AF92BF92CF92DF92EF92FF920F931F935E
:1008D000CF93DF9300D000D0CDB7DEB79C838B835E
:1008E000DC01D596ED91FC91C084D184E284F3843F
:1008F0004F2C5524662477244701AA24BB24482D75
:1009000033272F2D1E2D0D2D202E3C2C842D4814E9
:1009100008F4882D831508F48C2D821508F4802F97
:1009200090E00E94EC1E5B01C080D180E32DF0E0DE
:10093000FA83E983312C842E912CAB81BC81D5962E
:100940002D913C91D697F901828193818C159D055B
:1009500048F1CD010E949003F82FFA9DC001FB9D44
:10096000900D1124892F99277201E81AF90AF7FCD2
:10097000E12C09811A81081B190B17FD00E0910178
:10098000281B390B37FD20E0A401481B590B57FDEC
:1009900040E0B6018B819C810E942E042FEFC21A89
:1009A000D20ACBCFEB81FC81A7A9B0AD1D968C916B
:1009B0001D9780641D968C93D90114968D919C91FE
:1009C00061AD72AD0E94D81ECB010F900F900F90B9
:1009D0000F90DF91CF911F910F91FF90EF90DF90DB
:1009E000CF90BF90AF909F908F907F906F905F90CF
:1009F0004F903F902F90089561E070E00C94580460
:100A000066E070E00C94580463E070E00C945804C5
:100A10004F925F926F927F92CF92DF92EF92FF920E
:100A20000F931F93FB0189019A01C32EDD24EE244D
:100A3000FF24412E522E632E7724A90166277727A3
:100A4000EC2C242DBF010E942E041F910F91FF90CA
:100A5000EF90DF90CF907F906F905F904F900895D0
:100A60002F923F924F925F926F927F928F929F92BE
:100A7000AF92BF92CF92DF92EF92FF920F931F93AC
:100A8000CF93DF93EC016A017B010FA918ADF80148
:100A9000608571858285938529E030E040E050E0F3
:100AA0000E94A71E362EF80144805580668077800C
:100AB000C301B2016F5F7F4F8F4F9F4F29AD3AAD9A
:100AC00050E040E00E94A71E4B015C01F8E03F1699
:100AD00009F445C030FC05C0CC24CA94DC2CEC2CB5
:100AE000F12CEDA9FEA9878187FF29C0628173815E
:100AF00064197509A7019601CE010E940805EDA9A8
:100B0000FEA96281738168197909A7019601CE0156
:100B10000E9408058EE190E0DF91CF911F910F9127
:100B2000FF90EF90DF90CF90BF90AF909F908F900D
:100B30007F906F905F904F903F902F9008956081CD
:100B40007181640D751DA7019601CE010E940805F3
:100B5000EDA9FEA960817181680D791DD6CFF801DC
:100B600084829582A682B78289288A288B2859F4A4
:100B70006485CE010E94BF03F8018487EFA9F8AD18
:100B8000858580648587EDA9FEA98481958169ADFD
:100B90007AAD0E94D81ECB01BFCFCF93DF93EC017B
:100BA000EFA9F8AD84850E94D001AB01BC01CE0154
:100BB000DF91CF910C943005DC01D596ED91FC913D
:100BC00040855185628573850C9430052F923F9244
:100BD0004F925F926F927F928F929F92AF92BF924D
:100BE000CF92DF92EF92FF920F931F93CF93DF93F9
:100BF000CDB7DEB72D970FB6F894DEBF0FBECDBFD1
:100C00001C014F83588769877A8728013901DC01E5
:100C1000D596ED91FC91878190E095958795FC01A3
:100C2000E370FF27FE83ED8381E090E09C010D805F
:100C300002C0220F331F0A94E2F73A8329833981D5
:100C40003B87812C912C5401D101D9960D90BC91F8
:100C5000A02DBD87AC87D101D796ED91FC91648121
:100C6000758186819781680D791D8A1D9B1DEC8594
:100C7000FD859F0150E040E00E94A71E8B01898105
:100C80009A81800F911F6C857D850E94D81E9C8360
:100C90008B8389819A814B815C81840F951F6C8540
:100CA0007D850E94D81E9D878C87D101D596ED91B8
:100CB000FC91878187FF93C062817381601B710BF8
:100CC0002F81388549855A85C1010E940805D101C7
:100CD000D596ED91FC9162817381EB81FC816E1B55
:100CE0007F0BA3019201C1010E940805D101D59695
:100CF000ED91FC9162817381EC85FD856E1B7F0B0C
:100D0000A7019601C1010E940805FFEF8F1A9F0AF3
:100D1000AF0ABF0A2B85821608F496CFD101D79669
:100D20000D90BC91A02DBA83A9831496CD90DD902F
:100D3000ED90FC901797F10101AD12AD980150E0D4
:100D400040E083E090E00D8002C0880F991F0A9474
:100D5000E2F7092E000CAA0BBB0B8C0D9D1DAE1DDE
:100D6000BF1D82179307A407B50741F4A981BA8173
:100D70001D968C911D9780641D968C93C701B601BA
:100D80006F5F7F4F8F4F9F4F0E94A71EE981FA81AF
:100D90006483758386839783D101D596ED91FC9109
:100DA00084819581B8010E94D81ECB012D960FB683
:100DB000F894DEBF0FBECDBFDF91CF911F910F9191
:100DC000FF90EF90DF90CF90BF90AF909F908F906B
:100DD0007F906F905F904F903F902F90089560812B
:100DE0007181600F711F2F81388549855A85C10136
:100DF0000E940805D101D596ED91FC916081718129
:100E0000EB81FC816E0F7F1FA3019201C1010E9443
:100E10000805D101D596ED91FC9160817181EC8539
:100E2000FD856E0F7F1F6CCFCF92DF92EF92FF9206
:100E30000F931F93CF93DF93EC01EFA9F8AD69AD4A
:100E40007AAD80E091E00E94D81E94818085969FC3
:100E5000800D11240E94D001AB01BC01C12CD12C0A
:100E6000760100E010E09801CE010E94E605DF91D6
:100E7000CF911F910F91FF90EF90DF90CF90089549
:100E8000CF92DF92EF92FF920F931F93CF93DF9356
:100E9000EC01EFA9F8AD69AD7AAD80E091E00E9478
:100EA000D81E94818085969F800D11240E94D001C8
:100EB000AB01BC01CC24CA94DC2CEC2CF12C0FEF40
:100EC0001FEF2FEF30E0CE010E94E605DF91CF91BA
:100ED0001F910F91FF90EF90DF90CF9008957F9238
:100EE0008F929F92AF92BF92CF92DF92EF92FF923A
:100EF0000F931F93CF93DF93EC01EFA9F8ADC4805C
:100F0000D580E680F78009AD1AAD70849C2D8827C6
:100F1000B8010E94D81E872D860F0E94D0014B0178
:100F20005C01C701B6016F5F7F4F8F4F9F4F9801E4
:100F300050E040E00E94A71E962F8827B8010E942B
:100F4000D81E872D860F0E94D0016B017C01950170
:100F500084014FEF5FEF6FEF70E0CE010E94E60576
:100F6000DF91CF911F910F91FF90EF90DF90CF9085
:100F7000BF90AF909F908F907F900895CF92DF9217
:100F8000EF92FF920F931F93CF93DF93EC010FA982
:100F900018ADF80184819581A681B781892B8A2BB0
:100FA0008B2B31F46485CE010E94BF03F801848746
:100FB000EFA9F8AD84850E94D001AB01BC01CC241F
:100FC000CA94DC2CEC2CF12C0FEF1FEF2FEF30E04C
:100FD000CE010E94E605DF91CF911F910F91FF9006
:100FE000EF90DF90CF900895CF92DF92EF92FF9233
:100FF0000F931F93DC01D596ED91FC91008511852F
:1010000022853385680179014FEF5FEF6FEF70E064
:101010000E94E6051F910F91FF90EF90DF90CF9017
:101020000895CF92DF92EF92FF920F931F93DC010E
:10103000D596ED91FC914085518562857385C12CD3
:10104000D12C760100E010E098010E94E6051F9186
:101050000F91FF90EF90DF90CF900895CF92DF92A5
:10106000EF92FF920F931F93DC01D596ED91FC91C7
:101070004085518562857385CC24CA94DC2CEC2C88
:10108000F12C0FEF1FEF2FEF30E00E94E6051F91CC
:101090000F91FF90EF90DF90CF900895CF92DF9265
:1010A000EF92FF920F931F93DC01D596ED91FC9187
:1010B000C088D188E288F388048515852685378520
:1010C00040855185628573850E94E6051F910F91C9
:1010D000FF90EF90DF90CF9008952F923F924F9224
:1010E0005F926F927F928F929F92AF92BF92CF92B8
:1010F000DF92EF92FF920F931F93CF93DF93CDB7C1
:10110000DEB762970FB6F894DEBF0FBECDBF9A8BE5
:10111000898BDC01D5960D911C91F801848595850C
:10112000A685B7852780312C24E0359427942A950D
:10113000E1F7F22DF7702F2E2F2F30E0A9014E5E30
:101140005E4FFA013080265F3E4FF901F0804B2F51
:1011500055276627772758874F832A2F30E03A870D
:101160002987492F5A2F6B2F7727FA01FF27FC87F2
:10117000EB879C0133273E872D87D8010D90BC91CA
:10118000A02DB88BAF871A821982CF84D888E981C5
:10119000FA81CE0EDF1EA989BA89D596ED91FC9110
:1011A000D697828193818C159D0508F479C112969A
:1011B0008D919C91139720E030E0A901C816D906C3
:1011C00008F06EC01E969C911E971B961C911B9753
:1011D0001996ED91FC911A9718968C901897692F93
:1011E00070E01C962C911C9730E01D964C9150E0BD
:1011F00091136BC0C601880F991F8C0D9D1D8E0F1A
:101200009F1F680F791FFB017081280F391FD901BB
:10121000EC90840F951FFC0110818820B9F1912C6E
:10122000B12CA12C672F70E0762F6627072E000CBB
:10123000880B990BA50194010E94A71E3901552422
:1012400044246E2D70E0762F6627072E000C880B45
:10125000990BA50194010E94A71E542F432F322FF2
:101260002227422A532A642A752A612F70E0762F9A
:101270006627072E000C880B990BA50194010E948C
:10128000A71E24293529462957290AC02E2D30E0CA
:1012900050E040E0542F432F322F2227472B212BA1
:1012A00021107EC056954795379527952F773F7724
:1012B0004F775F77B60189899A890E940805E9818D
:1012C000FA813196FA83E98360CFC601880F991FAE
:1012D000880F991FE80FF91F6E0F7F1FDB019C918C
:1012E000DF01A10FB11D0C912E0F3F1FD9011C91E1
:1012F000E40FF51FE080882009F447C0912CB12C41
:10130000A12C692F70E0762F6627072E000C880B22
:10131000990BA50194010E94A71E722E66245524E4
:101320004424602F70E0762F6627072E000C880B70
:10133000990BA50194010E94A71EA901332722271A
:10134000422A532A642A752A6E2D70E0762F66276A
:10135000072E000C880B990BA50194010E94A71E73
:10136000422A532A642A752A612F70E0762F662755
:10137000072E000C880B990BA50194010E94A71E53
:10138000542F432F322F22277CCF202F30E050E0E4
:1013900040E0A90133272227592B2E29312B80CF5A
:1013A000852E9924AA24BB24BA01882799276B8308
:1013B0007C838D839E83432E542E652E7724EF816C
:1013C000F885E819F909CB019927A985BA85A81BE1
:1013D000B90BCD01B2017727AB85BC85A61BB70B36
:1013E000BD01D901BB270D851E850A1B1B0BDF0123
:1013F0001296159778F0DF01032C02C0B595A795DA
:101400000A94E2F70F2C02C0F595E7950A94E2F7EB
:10141000EA0FFB1FDC011296159778F0DC01032C14
:1014200002C0B595A7950A94E2F70F2C02C09595D6
:1014300087950A94E2F78A0F9B1FDB011296159796
:1014400078F0DB01032C02C0B595A7950A94E2F76A
:101450000F2C02C0759567950A94E2F76A0F7B1FFF
:10146000D8011296159778F0D801032C02C0B595D3
:10147000A7950A94E2F70F2C02C0159507950A94D8
:10148000E2F70A0F1B1FE82CEE0E020F460E4B81EF
:10149000480F242DB60189899A890E942E040FCF06
:1014A00062960FB6F894DEBF0FBECDBFDF91CF912D
:1014B0001F910F91FF90EF90DF90CF90BF90AF9072
:1014C0009F908F907F906F905F904F903F902F9064
:1014D00008952F923F924F925F926F927F928F92D8
:1014E0009F92AF92BF92CF92DF92EF92FF920F93B3
:1014F0001F93CF93DF93CDB7DEB728970FB6F8943D
:10150000DEBF0FBECDBF98878F832A016D837E8398
:10151000922E832EDC01D596ED91FC91D697878192
:1015200090E0959587958370992721E030E05901E7
:1015300002C0AA0CBB1C8A95E2F77A2C770C672CA8
:101540006A0CD796ED91FC91262D30E050E040E0FA
:1015500064817581868197810E94A71ECB01312C01
:10156000212CE62DF0E0FA83E983272D30E03C833F
:101570002B83AF81B885D9962D913C9122163306E5
:1015800090F569817A810E94D81E3C0192014D81BB
:101590005E818A159B0550F0EB81FC819801492DF5
:1015A000582D8E179F0710F09601A701AF81B885BF
:1015B000D596ED91FC91D697878187FF0DC060810C
:1015C0007181620D731DCD010E940805BFEF2B1ABA
:1015D0003B0AC3010196CDCF628173816219730901
:1015E0008F819885F1CFEF81F88507A910ADD801DB
:1015F00014966D917D918D919C9117976F5F7F4FA0
:101600008F4F9F4FF801648375838683978350E0E3
:1016100040E00E94A71E672B682B692B39F4D80184
:101620001D968C911D9780641D968C93AF81B88513
:10163000D596ED91FC918481958124E096958795CE
:101640002A95E1F728960FB6F894DEBF0FBECDBFFE
:10165000DF91CF911F910F91FF90EF90DF90CF908E
:10166000BF90AF909F908F907F906F905F904F90C2
:101670003F902F900895CF92DF92EF92FF920F93B9
:101680001F93CF93DF93EC01EFA9F8AD84858F5FB3
:1016900084870E94D001AB01BC01EDA9FEA904859D
:1016A00015852685378568017901CE010E94690A72
:1016B000DF91CF911F910F91FF90EF90DF90CF902E
:1016C0000895CF92DF92EF92FF920F931F93DC0168
:1016D000D596ED91FC910485158526853785408545
:1016E000518562857385680179010E94690A1F919D
:1016F0000F91FF90EF90DF90CF900895CF92DF92FF
:10170000EF92FF920F931F93C12CD12C76010FEF14
:101710001FEF2FEF30E040E050E06FEF70E00E94ED
:10172000690A1F910F91FF90EF90DF90CF9008957D
:10173000CF92DF92EF92FF920F931F93DC01D59629
:10174000ED91FC91C088D188E288F38804851585E5
:101750002685378540855185628573850E94690A93
:101760001F910F91FF90EF90DF90CF9008958F928F
:101770009F92AF92BF92CF92DF92EF92FF920F9320
:101780001F93CF93DF93EC014A015B01A9019801FC
:101790006E2DEFA9F8AD84819581A681B781C9AC82
:1017A000DAACF12CE12CEDA9FEA977818C159D0511
:1017B000AE05BF0508F045C077FF3EC0628173816A
:1017C000681B790BA5019401CE010E940805EFA8C2
:1017D000F8AC09AD1AAD000F111FF70164817581D6
:1017E000868197816F5F7F4F8F4F9F4F980150E0A9
:1017F00040E00E94A71EF701648375838683978368
:10180000672B682B692B19F4858580648587EDA982
:10181000FEA984819581B8010E94D81ECB01DF9179
:10182000CF911F910F91FF90EF90DF90CF90BF90DD
:10183000AF909F908F90089560817181680F791F9C
:10184000C1CF8C199D09AE09BF0977FF07C061118F
:1018500007C062817381681B790BB6CF6111F9CF24
:1018600060817181680F791FAFCFEF920F931F9343
:10187000CF93DF93EC010FA918AD29AD3AAD50E03D
:1018800040E0F80164817581868197810E94A71EDE
:10189000672B682B692B39F4F8016485CE010E940F
:1018A000BF03F8018487EFA9F8AD84850E94D001B9
:1018B000AB01BC01EE24E3948A019C01CE010E949D
:1018C000B70B880F991FDF91CF911F910F91EF9068
:1018D0000895EF920F931F93CF93DF93EC010FA91D
:1018E00018AD29AD3AAD50E040E0F8016481758152
:1018F000868197810E94A71E672B682B692B39F47C
:10190000F8016485CE010E94BF03F8018487EFA926
:10191000F8AD84850E94D001AB01BC01E12C8A01A5
:101920009C01CE010E94B70B880F991FDF91CF91C8
:101930001F910F91EF900895EF920F931F93DC0189
:10194000D596ED91FC9100851185228533854485DE
:10195000558566857785EE24E3940E94B70B1F9129
:101960000F91EF900895EF920F931F93DC01D5969E
:10197000ED91FC9104851585268537854085518537
:1019800062857385EE24E3940E94B70B1F910F913B
:10199000EF900895EF920F931F93DC01D596ED9190
:1019A000FC910085118522853385448555856685A2
:1019B0007785E12C0E94B70B1F910F91EF9008954E
:1019C000EF920F931F93DC01D596ED91FC91048566
:1019D0001585268537854085518562857385E12C7F
:1019E0000E94B70B1F910F91EF900895EF92FF9215
:1019F0000F931F93CF93DF93EC010E946D08EDA925
:101A0000FEA987812085318542855385AFA9B8AD70
:101A100087FF37C06281738114968D919C91681BFA
:101A2000790BCE010E9408050FA918ADE9ACFAACFC
:101A3000F80164817581868197816F5F7F4F8F4F39
:101A40009F4F970150E040E00E94A71EF801648379
:101A5000758386839783672B682B692B19F485859B
:101A600080648587EDA9FEA984819581B7010E94D4
:101A7000D81ECB01DF91CF911F910F91FF90EF9076
:101A8000089514966D917C9180819181680F791FE2
:101A9000C8CFCF92DF92EF92FF920F931F93CF9315
:101AA000DF93EC010E946D08EFA9F8ADC480D580EA
:101AB000E680F78089AD9AAD8C0130E020E0EDA999
:101AC000FEA9C016D106E206F30608F047C020853D
:101AD000318542855385878187FF3BC06281738151
:101AE0006C197D09CE010E940805EFA9F8AD84812B
:101AF0009581A681B7810196A11DB11D848395832F
:101B0000A683B78369AD7AAD61507048660F771FC1
:101B10008B0130E020E080179107A207B30738F06F
:101B20001482158216821782858580648587EDA9C7
:101B3000FEA96E5F7F4F848195810E94D81ECB01E4
:101B4000DF91CF911F910F91FF90EF90DF90CF9099
:101B50000895608171816C0D7D1DC4CF880F991F20
:101B600002978C199D0920853185428553856781AF
:101B700067FF05C062817381681B790BB3CF6081F9
:101B80007181680F791FAECF0F931F93CF93DF93AF
:101B9000EC01EDA9FEA900811181EDA9FEA98281C8
:101BA00093818017910770F0CE010E9490030E94EC
:101BB000D0019B01AC01B801CE010E9408050F5F66
:101BC0001F4FEBCFAFA9B8AD1D968C911D978064C8
:101BD0001D968C938481958196958795969587958A
:101BE000DF91CF911F910F910895CF92DF92EF92E5
:101BF000FF920F931F93CF93DF93EC01EFA9F8AD02
:101C000080859185A285B385892B8A2B8B2BC9F47E
:101C1000EDA9FEA900811181EDA9FEA98281938120
:101C20008017910770F0CE010E9490030E94D001AE
:101C30009B01AC01B801CE010E9408050F5F1F4F48
:101C4000EBCFCE010E9490030E94D0016B017C017A
:101C5000EDA9FEA90081118169AD7AADCE010E9486
:101C6000A303B801680F791FA7019601CE010E9456
:101C70000805EFA9F8AD858580648587EDA9FEA9E3
:101C80008481958124E0969587952A95E1F7DF91E7
:101C9000CF911F910F91FF90EF90DF90CF9008951B
:101CA0002F923F924F925F926F927F928F929F926C
:101CB000AF92BF92CF92DF92EF92FF920F931F935A
:101CC000CF93DF9300D000D01F92CDB7DEB7DC01F9
:101CD0004A015B0112964D915C9113975D834C8391
:101CE0002417350708F07CC00115110539F0020FE3
:101CF000131F0417150710F41D830C83A982292CC8
:101D00004B2D5527662777274A833A01C90110E0F2
:101D100000E08B82EC81FD818E179F0708F060C088
:101D200012964D915C9113978417950708F040C067
:101D30003B801896FC901897422C5980FF2069F040
:101D4000F981FF9DA0011124552EF29CA0011124C0
:101D5000452EF89CA0011124352E1E96EC901E975E
:101D60001996CD90DC901A971B964C911B97B90150
:101D7000600F711FE41220C07B01EE0CFF1C6E0D82
:101D80007F1D6C0D7D1D1B96EC911B97E60FF72FA9
:101D9000F11D50821C96EC911C97E60FF72FF11D58
:101DA00040821D964C911D97640F711DFB0130827E
:101DB00001960F5F1F4FAECF660F771F660F771F1D
:101DC0006C0D7D1D4A81FF2031F0F69CA001F79C2F
:101DD000500D1124452FFB01EE0DF11D4083D3CF93
:101DE0000F900F900F900F900F90DF91CF911F9158
:101DF0000F91FF90EF90DF90CF90BF90AF909F90AA
:101E00008F907F906F905F904F903F902F900895AC
:101E10004F925F926F927F929F92AF92BF92CF92BA
:101E2000DF92EF92FF920F931F93CF93DF93EC011A
:101E30002A013B010E946D0849855A859E858B8544
:101E400023E0981324E0EDA9FEA930E0828193817C
:101E5000289FB001299F700D389F700D112480813B
:101E600091810196829FF001839FF00D929FF00D6A
:101E70001124E40FF51FCF01841B950B86179707DC
:101E8000F8F4DF01A21BB30B8C9190E09595879538
:101E900095958795A0818A0F911DDF01A20FB31F31
:101EA000AC91B0E0B595A795B595A7958A0F9B1F06
:101EB0008F3F910519F010F08FEF90E08193DBCF09
:101EC000EDA9FEA9878190E0959587958370992764
:101ED00022E030E0790102C0EE0CFF1C8A95E2F7A7
:101EE0008BA5D12CC12C81113AC044E1A42EB12C78
:101EF0005AE0952E89AD9AAD61E070E0843191058C
:101F000018F0B5010E94D81EC616D70608F056C0B4
:101F1000CE010E949003899DC001112491111BC024
:101F2000EDA9FEA90081118169AD7AAD6F5F7F4F88
:101F30006E197F09CE010E94A3039801280F391F53
:101F40008701B301A201CE010E94500EEFA9F8ADA6
:101F50008585806485878FEFC81AD80ACBCF3AE091
:101F6000A32EB12C29AD3AAD61E070E02A303105E5
:101F700020F0C901B5010E94D81EEDA9FEA9C61620
:101F8000D706E0F400811181B9016F5F7F4F6E19B0
:101F90007F09CE010E94A3039801280F391F8701F2
:101FA000B301A201CE010E94500EEFA9F8AD8585C4
:101FB000806485878FEFC81AD80AD4CFEDA9FEA90F
:101FC0008481958124E0969587952A95E1F7DF91A4
:101FD000CF911F910F91FF90EF90DF90CF90BF9026
:101FE000AF909F907F906F905F904F900895CF93A8
:101FF000DF93EC010E9490030E94D001AB01BC0171
:10200000CE01DF91CF910C94080FFF920F931F9395
:10201000CF93DF938C0143E0F42EF801C5A9D6A934
:10202000C8010E9490038F9DC0011124892F992718
:102030000296880F991F880F991FC80FD91F4881D2
:1020400059816A817B81411551056105710529F32B
:10205000C801DF91CF911F910F91FF900C94080F51
:102060004F925F926F927F928F929F92AF92BF92A8
:10207000EF92FF920F931F93CF93DF93EC014A01EE
:102080005B0128013901EFA9F8AD84819581A68112
:10209000B781892B8A2B8B2B49F409AD1AADEDA999
:1020A000FEA920813181CE010E94500EEDA9FEA92A
:1020B000878190E0959587958370992721E030E09E
:1020C000790102C0EE0CFF1C8A95E2F7AFA9B8AD0A
:1020D0001E962D913C9180819181280F391F870197
:1020E000B501A401CE010E94500EAFA8B8AC69ADF5
:1020F0007AAD6F5F7F4F6E197F09CE010E94A303F7
:10210000F50197878687ADA9BEA9EFA9F8AD2D91F6
:102110003C9186859785280F391FB301A201CE0116
:102120000E94500EEFA9F8AD858580648587EDA9E2
:10213000FEA98481958135E0969587953A95E1F7DA
:10214000DF91CF911F910F91FF90EF90BF90AF90D3
:102150009F908F907F906F905F904F9008950F9316
:102160001F93DC01D596ED91FC91408551856285E8
:1021700073850FEF1FEF2FEF30E00E9430101F919B
:102180000F9108950F931F93DC01D596ED91FC916B
:10219000008511852285338544855585668577853B
:1021A0000E9430101F910F9108958F929F92AF92CD
:1021B000BF92EF92FF920F931F93CF93DF93EC01A7
:1021C0004A015B010E946D08CE010E94900323E04A
:1021D000829FC0011124911127C0EDA9FEA9E080C2
:1021E000F180478150E0559547954370552701E0B0
:1021F00010E002C0000F111F4A95E2F769AD7AADF9
:102200006F5F7F4F601B710BCE010E94A30397018C
:10221000280F391FB501A401CE010E94500EEFA96D
:10222000F8AD858580648587EDA9FEA984819581B7
:1022300024E0969587952A95E1F7DF91CF911F913C
:102240000F91FF90EF90BF90AF909F908F90089567
:10225000CF93DF93EC010E9490030E94D001AB0169
:10226000BC01CE01DF91CF910C94D510DC01D59645
:10227000ED91FC9140855185628573850C94D51054
:102280007F928F929F92AF92BF92CF92DF92EF9206
:10229000FF920F931F93CF93DF93EC014A015B01F1
:1022A000B901A801EFA9F8AD8485FF24F394882330
:1022B00011F0FF24FA94EDA9FEA9878190E095958D
:1022C00087958370992721E030E0690102C0CC0C2A
:1022D000DD1C8A95E2F77C2C09AD1AAD2081318195
:1022E000CE010E94500E10E000E0ADA9BEA91796E5
:1022F0008C91179787FD02C0EE2081F0EFA9F8AD11
:1023000012966D917C9184819581681B790B601B7D
:10231000710BA5019401CE010E940805EDA9FEA94B
:10232000878187FF02C0EE2081F0AFA9B8AD149677
:102330006D917C9180819181680F791F600F711F71
:10234000A5019401CE010E9408050F5F1F4F0715DC
:1023500060F2EFA9F8AD8F2DFF0C990BAA0BBB0B08
:102360004481558166817781840F951FA61FB71F11
:1023700084839583A683B7830097A105B10521F4D3
:10238000148625852064258769AD7AAD8B010C19EB
:102390001D0930E020E080179107A207B30710F075
:1023A00081E08487EDA9FEA9660F771F848195815E
:1023B0000E94D81ECB01DF91CF911F910F91FF900A
:1023C000EF90DF90CF90BF90AF909F908F907F90D5
:1023D0000895EF920F931F93DC01D596ED91FC9138
:1023E00004851585268537854085518562857385E9
:1023F000EE24E3940E9440111F910F91EF900895F5
:10240000EF920F931F93DC01D596ED91FC9104851B
:102410001585268537854085518562857385E12C34
:102420000E9440111F910F91EF900895DF92EF925B
:10243000FF920F931F93CF93DF93EC01F02FE12FC7
:10244000922F832F2DA93EA9D9011796FC900FA991
:1024500018ADD8011896DC9009AD1AADD9012D91AF
:102460003C91D0FE21C0F7FE04C0F42FE52F962F3B
:10247000872F4F2F5E2F692F782FCE010E94500E8D
:10248000EFA9F8AD858580648587EDA9FEA98481D3
:102490009581EE20D1F04497DF91CF911F910F915C
:1024A000FF90EF90DF900895F7FE04C04F2F5E2F4E
:1024B000692F782FCE010E94500E84E190E0E11048
:1024C000EBCFEDA9FEA98481958196958795E4CF00
:1024D000EF920F931F93CF93DF93EC01EFA9F8AD29
:1024E0008085880F880F0E94D001AB01BC01EDA947
:1024F000FEA90485158526853785EE24E394CE0153
:102500000E941612DF91CF911F910F91EF900895C5
:10251000EF920F931F93DC01D596ED91FC9104850A
:102520001585268537854085518562857385EE241E
:10253000E3940E9416121F910F91EF900895EF926D
:102540000F931F93CF93DF93EC01EFA9F8AD808534
:10255000880F880F0E94D001AB01BC01EDA9FEA934
:102560000485158526853785E12CCE010E9416123B
:10257000DF91CF911F910F91EF900895EF920F93FC
:102580001F93DC01D596ED91FC9104851585268578
:1025900037854085518562857385E12C0E9416122E
:1025A0001F910F91EF900895EF92FF920F931F9359
:1025B000CF93DF93EC01EDA9FEA909AD1AAD2081FF
:1025C000318144855585668577850E94500EEDA939
:1025D000FEA924813581C90164E670E00E94D81EFD
:1025E0007B014FEFE41AF40AEE0CFF1CAFA9B8AD63
:1025F00014968D919D910D90BC91A02DA70170E036
:1026000060E084179507A607B707A0F1C9016AE043
:1026100070E00E94D81E2CE9AC0124038001259FA4
:10262000100D1124045B1B4F0FA8D8ADC02D6C8179
:102630007D818E819F816F5F7F4F8F4F9F4F5FEFB7
:10264000E51AF50A970150E040E00E94A71E6C834E
:102650007D838E839F83672B682B692B19F48D856F
:1026600080648D87C801DF91CF911F910F91FF90FA
:10267000EF90089502E310E080FDD6CF09AD1AADCA
:10268000208131814085518562857385CE010E940C
:10269000500E04E110E0C8CFAF92BF92CF92DF920C
:1026A000EF92FF920F931F93CF93DF93EC01EDA96D
:1026B000FEA909AD1AAD2081318140855185628521
:1026C00073850E94500EEDA9FEA9878190E0959533
:1026D00087958370992721E030E0790102C0EE0CE4
:1026E000FF1C8A95E2F768E0A62EEDA9FEA9C0803E
:1026F000D18009AD1AAD0F5F1F4F0E191F09CE0112
:102700000E949003B82ECE010E9490032B2D30E042
:10271000322F2227280F311DD8010E94C91E960191
:10272000280F391F87014FEF5FEF6FEF70E0CE0189
:102730000E94500EAA94A110D8CFEFA9F8AD8585BC
:1027400080648587EDA9FEA98481958125E0969511
:1027500087952A95E1F7DF91CF911F910F91FF9017
:10276000EF90DF90CF90BF90AF9008950F931F939D
:10277000CF93DF93EC01EFA9F8AD84810E94D001E3
:10278000AB01BC0109AD1AADEDA9FEA920813181D3
:10279000CE010E94500EEFA9F8AD84819581A681EB
:1027A000B7810196A11DB11D9927AA27BB27848354
:1027B0009583A683B783892B8A2B8B2B19F4858568
:1027C00080648587EDA9FEA9858190E0DF91CF9196
:1027D0001F910F9108950F931F93CF93DF93EC01F7
:1027E0000FA918ADF80164850E94BF03F801848722
:1027F000EFA9F8AD84850E94D001AB01BC0109AD01
:102800001AADEDA9FEA920813181CE010E94500EA2
:10281000EFA9F8AD858580648587EDA9FEA984813F
:102820009581DF91CF911F910F9108950F931F9381
:10283000CF93DF93EC01EDA9FEA909AD1AAD20817C
:10284000318140855185628573850E94500EEFA9C4
:10285000F8AD858580648587EDA9FEA98481958181
:10286000DF91CF911F910F91089588EE93E0089525
:1028700088EE93E0089588EE93E0089588EE93E063
:10288000089588EE93E0089588EE93E0089588EE29
:1028900093E0089588EE93E00895CF93C82F409178
:1028A000620250E0682F70E080915F0290916002B8
:1028B0000E942B20892BC9F0E0915D02F0915E020D
:1028C00084E1C89FE00DF11D112410821182128253
:1028D0001382148215821682178210861186128640
:1028E00013861486158617861686CF910895CF9382
:1028F000C0E080916102C81728F48C2F0E944D140B
:10290000CF5FF7CFCF910895CF92DF92EF92FF92F2
:102910000F931F93CF93DF93D82FC92F942F852F19
:1029200044E050E0222399F12F3F69F1E92FF82F7D
:102930008B01CD2EDC2E7F0184E0E80EF11C30E00F
:102940006191D8018D918D01681B770B629FA00169
:10295000639F500D729F500D112457FF02C04150CC
:102960005F4F850FD6018D936D01EE16FF0641F77F
:102970008D2F9C2FDF91CF911F910F91FF90EF90A2
:10298000DF90CF90089544E050E0692F782F8D2F8D
:102990009C2F0E943820ECCF2F923F924F925F9253
:1029A0006F927F928F929F92AF92BF92CF92DF925F
:1029B000EF92FF920F931F93CF93DF93CDB7DEB7C4
:1029C000A7970FB6F894DEBF0FBECDBF9E8F8D8F39
:1029D000DC01D596ED91FC91878190E095958795E6
:1029E0008370992721E030E0A90102C0440F551FF0
:1029F0008A95E2F75AA349A359A15FA3608571851F
:102A0000828593856BA37CA38DA39EA3C484D58468
:102A1000E684F784408851886288738820803180FA
:102A200018A21F8EAD8DBE8DD5962D913C91D69757
:102A3000D796ED91FC91D90112968D919C911397A7
:102A40008215930508F49AC04F8D58A165E078E08F
:102A5000469F9001479F300D569F300D1124275EF1
:102A6000394C832F9927820F931F269FA001279F00
:102A7000500D369F500D1124DA01A75EB94CB8A352
:102A8000AF8F2B2F33272A0F3B1F277033272F5F42
:102A90003F4F220F331F3085E82F329FE00D112466
:102AA000F0E0E859FE4F14912BA13CA14DA15EA18D
:102AB000232B242B252BB9F50E94D001698F7A8F07
:102AC0008B8F9C8FCD8ADE8AEF8AF88E212FAE0104
:102AD0004B5E5F4FBE01675E7F4FCE0101960E9445
:102AE000841489809A80AB80BC808101AD8DBE8DBD
:102AF000D596ED91FC91D6978281938180179107AD
:102B000030F0A5019401B801CD010E9408050F5FC6
:102B10001F4F802F8219BFA18B1740F3E9A1FAA1A3
:102B20002E0E3F1E7FCF411451046104710491F0B9
:102B300087FF10C0498A5A8A6B8A7C8ACD86DE86D6
:102B4000EF86F88A212FAE01435F5F4FBE016F5EB3
:102B50007F4FC3CF4BA15CA16DA17EA149875A874E
:102B60006B877C87CD82DE82EF82F886212FAE01D3
:102B70004B5F5F4FBE01675F7F4FAFCF858580643E
:102B8000858714968D919C9125E0969587952A9539
:102B9000E1F7A7960FB6F894DEBF0FBECDBFDF9169
:102BA000CF911F910F91FF90EF90DF90CF90BF904A
:102BB000AF909F908F907F906F905F904F903F90DD
:102BC0002F900895DF92EF92FF920F931F93CF9370
:102BD000DF93CDB7DEB72C970FB6F894DEBF0FBEEC
:102BE000CDBF8C01DC01D596ED91FC91D697278164
:102BF00030E03595279523703327D9966D917C91D8
:102C000080E091E00E94D81ECB01022E02C0880F06
:102C1000991F0A94E2F7DD24D394892B49F081E0CF
:102C200090E001C0880F2A95EAF7869FD02C1124E6
:102C3000F12CE12CF80161AD72AD27A930ADF9019D
:102C400084819581A681B781F80145A956A9E61628
:102C5000F70608F041C08E0D9F1DA11DB11DD89E25
:102C6000E02D1124F0E0E859FE4F2491FA0184850B
:102C70009585A685B7854085518562857385498789
:102C80005A876B877C878D839E83AF83B887AE011D
:102C90004B5F5F4FBE01675F7F4FCE0101960E9481
:102CA000841429813A814B815C81D801D596ED91BC
:102CB000FC91878187FF0BC0608171816E0D7F1D44
:102CC000C8010E940805BFEFEB1AFB0AB3CF62816F
:102CD00073816E197F09F4CF0196A11DB11D99274B
:102CE000AA27BB27F90184839583A683B783892B01
:102CF0008A2B8B2B19F4858580648587DA011496DD
:102D00008D919C910E94D81ECB012C960FB6F89401
:102D1000DEBF0FBECDBFDF91CF911F910F91FF900E
:102D2000EF90DF900895EF92FF920F931F93CF9350
:102D3000DF93CDB7DEB72C970FB6F894DEBF0FBE8A
:102D4000CDBF7C01DC01D796ED91FC9124813581CA
:102D50002F3F310539F034F08FEF91E0FC01E21B99
:102D6000F30B9F01D701D596ED91FC91808591855C
:102D7000A285B385448555856685778549875A87B9
:102D80006B877C878D839E83AF83B887AE014B5F53
:102D90005F4FBE01675F7F4FCE0101960E94841492
:102DA00049815A816B817C81F70101AD12AD05A883
:102DB000F6A9E02D20813181C7010E94500ED70174
:102DC000D796ED91FC9184819581A681B781049677
:102DD000A11DB11D811522E09207A105B105E0F406
:102DE00084839583A683B783D701D596ED91FC9113
:102DF00084819581880F892F881F990B91952C9636
:102E00000FB6F894DEBF0FBECDBFDF91CF911F91FB
:102E10000F91FF90EF900895148215821682178209
:102E2000858580648587E0CFCF92DF92EF92FF9215
:102E30000F931F93CF93DF93CDB7DEB72C970FB6C9
:102E4000F894DEBF0FBECDBF6C01DC01D796ED91CB
:102E5000FC91248135812F3F310539F034F08FEF1B
:102E600091E0FC01E21BF30B9F017AECE72E73E08B
:102E7000F72E2F30310541F166E2E62EF12C2A3192
:102E8000310514F154E2E52EF12C23333105E4F041
:102E90004CE1E42EF12C2C343105B4F0253631050B
:102EA00084F09EE0E92EF12C2E3731056CF0EAE03B
:102EB000EE2EF12C273931053CF48BE0E82EF12C75
:102EC00003C034E1E32EF12CD601D596ED91FC91AF
:102ED00080859185A285B3854485558566857785EE
:102EE00049875A876B877C878D839E83AF83B8879A
:102EF000AE014B5F5F4FBE01675F7F4FCE01019612
:102F00000E94841449815A816B817C81F60101AD54
:102F100012AD05A8F6A9E02D20813181C6010E94DD
:102F2000500ED601D796ED91FC9184819581A681B2
:102F3000B7810296A11DB11D823F21E09207A10534
:102F4000B105A0F484839583A683B783C7012C962B
:102F50000FB6F894DEBF0FBECDBFDF91CF911F91AA
:102F60000F91FF90EF90DF90CF9008958FE090E069
:102F7000A0E0B0E084839583A683B78385858064D1
:102F80008587E4CFFC01DB01BA01818592855385F9
:102F90004685E4E0541301C0E3E0F0E0E29FA001C5
:102FA000E39F500DF29F500D1124E69F9001E79F83
:102FB000300DF69F300D1124BC01620F731FEA9F84
:102FC0009001EB9F300DFA9F300D1124820F931F5B
:102FD0000C9438206F927F928F929F92AF92BF9203
:102FE000DF92EF92FF920F931F93CF93DF93EC0149
:102FF00079016DA87EA8F301D7802FA938ADAD2D3A
:10300000B0E0B595A795A370BB2782E090E002C021
:10301000880F991FAA95E2F7092E000CAA0BBB0B8B
:10302000F90184809580A680B78088219921AA2102
:10303000BB21892B8A2B8B2B11F08A017B0129ADB7
:103040003AAD21503109F30180819181BC016F5F5C
:103050007F4FD7FE42C0AB01BC01CE010E94C21718
:10306000EDA9FEA9628173819801A701CE010E949A
:1030700008050FA918ADF8016481758186819781D3
:103080006F5F7F4F8F4F9F4F29AD3AAD50E040E0CB
:103090000E94A71EF8016483758386839783672B3C
:1030A000682B692B19F4858580648587EDA9FEA9B5
:1030B0008481958124E0969587952A95E1F7DF91A3
:1030C000CF911F910F91FF90EF90DF90BF90AF9045
:1030D0009F908F907F906F900895AC01CE010E94D9
:1030E000C217EDA9FEA960817181BECF0F931F9316
:1030F000CF93DF93EC010FA918ADEDA9FEA92781AD
:1031000030E0359527952370332782E090E002C0A8
:10311000880F991F2A95E2F70197092E000CAA0B38
:10312000BB0BF80144815581668177818423952307
:10313000A623B723892B8A2B8B2B31F46485CE01F0
:103140000E94BF03F8018487EFA9F8AD84850E942F
:10315000D001AB01BC018A019C01CE010E94EA179B
:10316000DF91CF911F910F9108950F931F9300E06E
:1031700010E32FEF30E040E850E060E470E00E94A0
:10318000EA171F910F9108950F931F9300E01FEF0F
:1031900020E030E040E050E06FEF70E00E94EA177E
:1031A0001F910F9108950F931F930FEF10E020E0F0
:1031B00030E040E050E06FEF70E00E94EA171F91AE
:1031C0000F9108950F931F93DC01D596ED91FC911B
:1031D00004851585268537854085518562857385EB
:1031E0000E94EA171F910F9108950F931F93CF9399
:1031F000DF93EC010E949003EDA9FEA980FD3BC086
:1032000040855185628573850085118522853385CA
:1032100084859585A685B785081719072A073B0772
:1032200039F4CE010E9490030E94D001AB01BC0191
:10323000CE010E94080FEDA9FEA9478180819181EE
:1032400029AD3AAD2250310947FF1AC0AC014E5F9B
:103250005F4FBC01CE010E94C217EDA9FEA9848177
:10326000958124E0969587952A95E1F7DF91CF9196
:103270001F910F9108954089518962897389C4CF44
:10328000BC016E5F7F4FAC01E5CFCF92DF92EF9232
:10329000FF92CF93DF93EC01EFA9F8AD84810E94F8
:1032A000D0016B017C01EDA9FEA929AD3AAD2150F9
:1032B000310980819181BC016F5F7F4F478147FF5A
:1032C0003BC0AB01BC01CE010E94C217EDA9FEA913
:1032D00062817381A7019601CE010E94080569AD44
:1032E0007AAD80E091E00E94D81E611101C061E0DA
:1032F000EFA9F8AD84819581A681B781860F911DD4
:10330000A11DB11D8F3F9105A105B10509F0E8F49C
:1033100084839583A683B783EDA9FEA984819581D3
:1033200026E0969587952A95E1F7DF91CF91FF905A
:10333000EF90DF90CF900895AC01CE010E94C217AC
:10334000EDA9FEA960817181C5CF9927AA27BB2766
:1033500084839583A683B783858580648587DCCF46
:103360004F925F926F927F928F929F92AF92BF9295
:10337000CF92DF92EF92FF920F931F93CF93DF9341
:10338000EC012A013B01B901A801EFA9F8AD848144
:103390009581A681B781892B8A2B8B2BC1F509AD2D
:1033A0001AADEDA9FEA920813181CE010E94500EF7
:1033B000C9ACDAACD694C794D694C7948FEFC81A28
:1033C000D80A4601880C991CB12CA12CF12CE12CB7
:1033D000C814D904EA04FB048CF48C189D08AE08C8
:1033E000BF0841F00E941D1EA50194010E94751E98
:1033F0004B015C01C80CD91CEA1CFB1CEFA9F8AD01
:10340000C482D582E682F782858580648587EDA9AE
:10341000FEA9E080F18069AD7AADCE010E94A303E0
:10342000B701680F791FA3019201CE010E94080520
:10343000EFA9F8AD84819581A681B7810197A10993
:10344000B10984839583A683B783EDA9FEA98481FE
:10345000958169AD7AAD0E94D81ECB01DF91CF91E5
:103460001F910F91FF90EF90DF90CF90BF90AF90A2
:103470009F908F907F906F905F904F900895CF9224
:10348000DF92EF92FF920F931F93CF93DF93EC01A4
:10349000EDA9FEA9C484D584E684F7840E94900334
:1034A0000E94D001AB01BC0197018601CE010E94B0
:1034B000B019DF91CF911F910F91FF90EF90DF90A6
:1034C000CF9008950F931F93DC01D596ED91FC9159
:1034D00004851585268537854085518562857385E8
:1034E0000E94B0191F910F9108951F920F920FB66D
:1034F0000F9211242F933F938F939F93AF93BF937A
:103500008091270290912802A0912902B0912A026D
:103510003091260223E0230F2D3758F50196A11D87
:10352000B11D209326028093270290932802A09336
:103530002902B0932A0280912B0290912C02A09133
:103540002D02B0912E020196A11DB11D80932B0278
:1035500090932C02A0932D02B0932E02BF91AF91B5
:103560009F918F913F912F910F900FBE0F901F90C1
:10357000189526E8230F0296A11DB11DD2CF78948D
:1035800084B5826084BD84B5816084BD85B5826068
:1035900085BD85B5816085BD80916E008160809319
:1035A0006E00109281008091810082608093810082
:1035B0008091810081608093810080918000816092
:1035C000809380008091B10084608093B1008091ED
:1035D000B00081608093B00080917A008460809315
:1035E0007A0080917A00826080937A0080917A00DC
:1035F000816080937A0080917A00806880937A005D
:103600001092C1000E947714809135029091360289
:1036100097FD07C061E00E942D02809135020E9453
:10362000880181E08093300260913702613829F18E
:1036300020913802309139026150C9F070E08FEF6B
:1036400090E80E94D81EF901409133025091340253
:10365000CF01821B930B8417950760F44081469F2E
:10366000C001479F900D112490833196EDCF70E0FB
:1036700060E0E9CF81E8809337020E948302E09105
:103680005B02F0915C0288EE93E09583848380E88E
:1036900090E0A0E4B0E080879187A287B38780E0C4
:1036A0000E944D14E0915B02F0915C0216820E9430
:1036B000771481E08093590244E1A42E01E410E0E4
:1036C000C0E0D0E02FB7F8948091270290912802B3
:1036D000A0912902B0912A022FBF809322029093D9
:1036E0002302A0932402B0932502809159028111F4
:1036F00005C080915A02882309F4AAC08FB7F894B4
:10370000C0902702D0902802E0902902F0902A026F
:103710008FBFB12C20E080916202B81608F083C000
:10372000E0915F02F0916002EB0DF11D80818F3F0F
:1037300009F477C0A0915B02B0915C028A9DA00D54
:10374000B11D1124B0936502A093640212968D916D
:103750009C91139701964D915C911197841B950B49
:103760009093690280936802E0915D02F0915E029D
:10377000BA9CE00DF11D1124F0936702E0936602FC
:1037800085858F73858740815181628173814C1556
:103790005D056E057F0528F090915A02992309F482
:1037A00040C0806885871696EC9124E0E29FF00186
:1037B0001124E65EFE4F22813381C90195958795DC
:1037C000815D9D4F0190F081E02D20FF08C0DC015C
:1037D0002D913C91E20FF31F0190F081E02D0995AE
:1037E000E0916602F09167028A30910510F48AE058
:1037F00090E0A7019601280F391F411D511DDA01E4
:10380000C90180839183A283B38380859185A2853A
:10381000B3850196A11DB11D80879187A287B387CB
:1038200021E0B39478CF222389F00E945E026B01DD
:103830007C010E945E026C197D098E099F09683E19
:10384000734081059105A8F30E94830210925A02E9
:10385000C0902202D0902302E0902402F090250232
:1038600080911E0290911F02A0912002B09121022E
:10387000A7019601281B390B4A0B5B0BDA01C90122
:1038800089389341A105B105D8F0E0915B02F09130
:103890005C02868190E00196B8010E94EC1EB82E71
:1038A00080E00E944D14E0915B02F0915C02B682D0
:1038B000C0921E02D0921F02E0922002F0922102DA
:1038C000209709F4FFCE0E940000FCCE1F93CF93F7
:1038D000DF93109230021092370210923E02109243
:1038E0003F02109240021092410281E080933D021B
:1038F00080933A0210923B0292E090933C028093B4
:103900002F0280E390E090933402809333020E9470
:10391000061F9093390280933802009709F4AAC0D9
:1039200020E3DC011D922A95E9F780E190E0909375
:103930003202809331028CE090E0909336028093C3
:10394000350280913002882339F061E08CE00E94DA
:103950002D028CE00E948801E8E8F2E0E491F0E0BA
:10396000EE0FFF1FEE58FD4F859194919093430207
:1039700080934202ECE9F2E0E491E093440285E3B3
:1039800094E190934802809347028AE494E19093F3
:103990004A028093490287E494E190934C02809319
:1039A0004B0284E494E190934E0280934D0281E4B3
:1039B00094E19093500280934F028EE394E19093B0
:1039C0005202809351028BE394E1909354028093CE
:1039D000530288E394E1909356028093550210922B
:1039E0005802109257021092630283E380933702C9
:1039F000109259028AE0809361028093620288ECFF
:103A000090E00E94061FFC019C0128533F4F44E1B7
:103A1000DF01542F1D925A95E9F77496E217F307C8
:103A2000B9F790935C0280935B028AE090E00E9479
:103A3000061F9C01265F3F4FFC0111922E173F0786
:103A4000E1F79093600280935F0280916202C82F39
:103A5000D0E0A4E18A9FC00111240E94061FFC014E
:103A600024E1219780F0DF01322F1D923A95E9F78A
:103A70007496F7CF109234021092330210923202F1
:103A80001092310258CF80935D0290935E02209194
:103A90005B0230915C023093650220936402809354
:103AA0006602909367020E9477144091610284E15C
:103AB000489FA001112470E060E080915B0290912A
:103AC0005C020E944A204091620250E06FEF70E079
:103AD00080915F02909160020E944A2010926302DE
:103AE00080916102882309F448C081E080936302D9
:103AF000E0915B02F0915C02118210828FE090E015
:103B000093838283168288EE93E095838483178261
:103B100080E090E0AFEFB0E080879187A287B38725
:103B20001486158616861786108A118A128A138AB9
:103B3000C0916202CC2309F1D0915F021091600222
:103B40004C2F50E070E060E08D2F912F0E942B20D1
:103B5000892B99F43D2F8D2F912F282F231B2C1764
:103B600060F4FC01019620812F3FB9F7108280E0BC
:103B7000DF91CF911F910C944D14DF91CF911F9144
:103B8000089580913802909139020E94A21F80917D
:103B900035029091360297FD03C060E00C942D022F
:103BA00008958F929F92AF92BF92CF92DF92EF9241
:103BB000FF92CF93DF93EC01688179818A819B81A9
:103BC000611571058105910521F464E279ED8BE5BC
:103BD00097E02DE133EF41E050E00E94751E49016E
:103BE0005A019B01AC01A7EAB1E40E94941E6B014B
:103BF0007C01ACEEB4EFA50194010E94A21EC60E9A
:103C0000D71EE81EF91EF7FE06C081E0C81AD108CB
:103C1000E10880E8F80AC882D982EA82FB82C701FB
:103C2000B6019F77DF91CF91FF90EF90DF90CF901B
:103C3000BF90AF909F908F9008958F929F92AF9278
:103C4000BF92CF92DF92EF92FF926091000170914C
:103C500001018091020190910301611571058105B7
:103C6000910521F464E279ED8BE597E02DE133EFE6
:103C700041E050E00E94751E49015A019B01AC01D0
:103C8000A7EAB1E40E94941E6B017C01ACEEB4EF94
:103C9000A50194010E94A21EC60ED71EE81EF91EA1
:103CA000F7FE06C081E0C81AD108E10880E8F80AEA
:103CB000C0920001D0920101E0920201F092030152
:103CC000C701B6019F77FF90EF90DF90CF90BF9034
:103CD000AF909F908F9008956093000170930101C1
:103CE00080930201909303010895052E97FB1EF423
:103CF00000940E948C1E57FD07D00E94A71E07FC4F
:103D000003D04EF40C948C1E50954095309521951F
:103D10003F4F4F4F5F4F08959095809570956195F7
:103D20007F4F8F4F9F4F08950E94C91EA59F900DF2
:103D3000B49F900DA49F800D911D11240895B7FF8D
:103D40000C94941E0E94941E821B930B0895A1E272
:103D50001A2EAA1BBB1BFD010DC0AA1FBB1FEE1F05
:103D6000FF1FA217B307E407F50720F0A21BB30B50
:103D7000E40BF50B661F771F881F991F1A9469F7CC
:103D800060957095809590959B01AC01BD01CF0128
:103D90000895A29FB001B39FC001A39F700D811D24
:103DA0001124911DB29F700D811D1124911D089544
:103DB000AA1BBB1B51E107C0AA1FBB1FA617B70751
:103DC00010F0A61BB70B881F991F5A95A9F780956D
:103DD0009095BC01CD01089597FB072E16F4009431
:103DE00007D077FD09D00E94D81E07FC05D03EF40D
:103DF000909581959F4F0895709561957F4F089597
:103E0000EE0FFF1F0590F491E02D09940F931F937F
:103E1000CF93DF938230910510F482E090E0E0913F
:103E20006C02F0916D0230E020E0B0E0A0E030974D
:103E300099F42115310509F44AC0281B390B2430A7
:103E40003105D8F58A819B816115710589F1FB01E6
:103E500093838283FE0111C04081518102811381CD
:103E600048175907E0F04817590799F4109761F07F
:103E700012960C93129713961C933296CF01DF91F2
:103E8000CF911F910F91089500936C0210936D02D2
:103E9000F4CF2115310551F04217530738F0A9012D
:103EA000DB019A01BD01DF01F801C1CFEF01F9CFBC
:103EB00090936D0280936C02CDCFFE01E20FF31F51
:103EC000819391932250310939832883D7CF209150
:103ED0006A0230916B02232B41F42091060130914C
:103EE000070130936B0220936A0220910401309104
:103EF00005012115310541F42DB73EB74091080168
:103F000050910901241B350BE0916A02F0916B027C
:103F1000E217F307A0F42E1B3F0B2817390778F0A0
:103F2000AC014E5F5F4F2417350748F04E0F5F1FFF
:103F300050936B0240936A02819391939FCFF0E07C
:103F4000E0E09CCFCF93DF930097E9F0FC0132973C
:103F500013821282A0916C02B0916D02ED0130E0EB
:103F600020E01097A1F420813181820F931F2091CE
:103F70006A0230916B022817390709F061C0F0938B
:103F80006B02E0936A02DF91CF910895EA01CE17A8
:103F9000DF07E8F54A815B819E0141155105B1F7C4
:103FA000E901FB83EA8349915991C40FD51FEC17AE
:103FB000FD0761F4808191810296840F951FE901CC
:103FC00099838883828193819B838A83F0E0E0E0F8
:103FD00012968D919C9113970097B9F52D913C9174
:103FE0001197CD010296820F931F20916A023091A2
:103FF0006B022817390739F6309751F510926D0288
:1040000010926C02B0936B02A0936A02BCCFD38370
:10401000C28340815181840F951FC817D90761F46D
:104020004E5F5F4F88819981480F591F51834083AC
:104030008A819B81938382832115310509F0B0CF5A
:10404000F0936D02E0936C029ECFFD01DC01C0CFC6
:1040500013821282D7CFFC014150504030F00190C2
:104060000616D1F73197CF0108958827992708952B
:104070006817790768F4FB01DC01E40FF51FA40F52
:10408000B51F02C002900E9241505040D8F70895DB
:104090000C945120DC0101C06D9341505040E0F779
:1040A0000895FB01DC0102C001900D924150504087
:1040B000D8F7089511E0CDE5D1E004C0FE010E94DB
:0E40C000001F2196CE35D107C9F7F894FFCF27
:1040CE000100000000006E028000000203080808D4
:1040DE000808000101010203040616140000BE12B6
:1040EE00000014170000E00C0000CA0C0000B30C16
:1040FE0000009C0C0000690C0000EB130000F50D95
:10410E000000C40D0000B613000045190000001297
:10411E000000E911000093160000610B00003B0B3C
:10412E000000E2150000621A00003F1A000036116E
:10413E00000028110000C2100000AF1000004C1348
:10414E0000008812000068120000D41200009F12B6
:10415E000000F40700002E080000BE070000400714
:10416E000000DC050000CD0500006F0700001108FF
:10417E00000014070000350C0000E2180000D318F0
:10418E00000076180000490D0000F60C0000051026
:10419E000000F70F0000C418000004050000000521
:1041AE000000FC0400007E0B0000B51800004E0855
:1041BE000000980B0000CC140000F51800008B03D3
:1041CE00000086030000810300007C0300007703DB
:0E41DE000000720300006D0300006803000083
:00000001FF
