:100000000C94E8000C9410010C9410010C94100155
:100010000C9410010C9410010C9410010C9410011C
:100020000C94B6060C9410010C9410010C94100161
:100030000C9410010C9410010C9410010C941001FC
:100040000C9414060C9410010C9484060C945E0617
:100050000C9410010C9410010C9410010C941001DC
:100060000C9410010C9410014861736820005075C5
:100070006C73652044697374616E63652C20004D58
:1000800061676951756573742C2000426F736577E1
:10009000617665202C20004C65676F20506F776576
:1000A000722046756E6374696F6E732C20005768FA
:1000B000796E7465722C200053616D73756E672CB8
:1000C00020004A56432C20004C472C200052433637
:1000D0002C20005243352C2000536F6E792C2000C9
:1000E00044656E6F6E2F53686172702C20005061F2
:1000F0006E61736F6E69632F4B617365696B796FA6
:100100002C20004E45432F4E4543322F4F6E6B79C6
:100110006F2F4170706C652C2000526561647920EE
:10012000746F207265636569766520495220736932
:10013000676E616C73206F662070726F746F636F8F
:100140006C733A2000205200205261773D307800D5
:1001500020433D30780020413D30780020626974B2
:10016000732072656365697665640020233D30788D
:1001700000503D00000000080002010000030407D9
:100180000000000000000000000000002500280022
:100190002B0000000000240027002A0000000000BF
:1001A00023002600290004040404040404040202B9
:1001B00002020202030303030303010204081020E6
:1001C00040800102040810200102040810209F074B
:1001D00011241FBECFEFD8E0DEBFCDBF23E0A0E1EA
:1001E000B2E001C01D92A03DB207E1F712E0A0E02D
:1001F000B1E0E8E0F3E202C005900D92A031B10752
:10020000D9F710E0C8EED0E004C02197FE010E94AB
:100210007C11C73ED107C9F70E94D9070C948211FF
:100220000C940000ACEBB2E011968C93119790E027
:10023000FC01E654FE4FE4911496EC931497FC01F4
:10024000EA55FE4FE491F0E0EE0FFF1FE456FE4F3B
:100250008591949113969C938E9312970895E091B3
:10026000C303F091C4039C013695279536952795D5
:10027000820F931F44E1489F9001499F300D112444
:10028000818592858217930728F48091B603816057
:100290008093B60308950F931F93CF93DF93E0915C
:1002A000C303F091C40340911E02808510E04817FB
:1002B00008F064C0142F117000911D0201114FC08D
:1002C000842F90E0880F991FE80FF91F0184F285B1
:1002D000E02D2CEE3FEF112311F024E130E0C0912E
:1002E0001B02D0911C022C0F3D1FC90163E470E07A
:1002F0000E944F11E617F70760F0C90168E270E04D
:100300000E944F116F5F7F4F81E090E06E177F0773
:1003100010F52C0F3D1FC90163E470E00E944F11DE
:10032000E617F70750F0C90168E270E00E944F112C
:100330006F5F7F4F6E177F0760F42C0F3D1FC90161
:1003400063E470E00E944F11E617F707E8F41FEF2F
:1003500015C082E090E090931A02809319020F5F1B
:1003600000931D028091190290911A020817190634
:1003700028F010921D024F5F40931E02812FDF91E3
:10038000CF911F910F910895C90168E270E00E941A
:100390004F116F5F7F4F6E177F07C8F283E090E0C9
:1003A000DACF90E0FC01EC58FE4F2491FC01E654BA
:1003B000FE4F3491FC01EA55FE4FE491EE23C9F063
:1003C000222339F0233001F1A8F4213019F1223031
:1003D00029F1F0E0EE0FFF1FE857FE4FA591B49111
:1003E0008FB7F894EC91611126C030953E233C9371
:1003F0008FBF08952730A9F02830C9F0243049F77D
:10040000809180008F7D03C0809180008F778093E2
:100410008000DFCF84B58F7784BDDBCF84B58F7D3F
:10042000FBCF8091B0008F778093B000D2CF8091C6
:10043000B0008F7DF9CF3E2BDACF3FB7F894809193
:10044000150290911602A0911702B091180226B5DC
:10045000A89B05C02F3F19F00196A11DB11D3FBFFC
:10046000BA2FA92F982F8827BC01CD01620F711DCB
:10047000811D911D42E0660F771F881F991F4A95C5
:10048000D1F70895FC019B0124513109C90163E4AE
:1004900070E00E944F11E617F70758F0C90168E2B3
:1004A00070E00E944F116F5F7F4F81E06E177F07F2
:1004B00008F480E008952F923F924F925F926F92DE
:1004C0007F928F929F92AF92BF92CF92DF92EF92E4
:1004D000FF920F931F93CF93DF9300D000D000D0F3
:1004E000CDB7DEB7382E3C832B8348012E2C262F28
:1004F00030E0220F331F275F3F4F6091C30370919D
:10050000C403260F371F3E832D839A012C5E3F4F75
:10051000C90163E470E00E944F115B01C90168E208
:1005200070E00E944F11CB0101969A838983C12C00
:10053000D12C7601C394412C512C3201332009F483
:1005400053C0ED81FE81808191818A159B0508F45D
:1005500055C029813A812817390708F44FC0222055
:1005600021F0440C551C661C771CED81FE81028134
:1005700013816B817C81C8010E9442028823A9F00B
:10058000222071F0689440F82D813E812C5F3F4F0E
:100590003E832D83CC0CDD1CEE1CFF1C3A94CECF89
:1005A0004C285D286E287F28EFCFB401C8010E9437
:1005B00042028111E9CF26960FB6F894DEBF0FBE36
:1005C000CDBFDF91CF911F910F91FF90EF90DF9002
:1005D000CF90BF90AF909F908F907F906F905F90E3
:1005E0004F903F902F9008954092B7035092B803D8
:1005F0006092B9037092BA0381E0DDCF80E0DBCF77
:10060000EF920F931F93FC01862F642F05851685AB
:100610002185328547815085E7840E945B021F91C6
:100620000F91EF9008950F931F93CF93DF93EC01F9
:10063000E091C303F091C403038514852B813C81B1
:100640002C5E3F4FC90163E470E00E944F11061712
:100650001707A0F0C90168E270E00E944F116F5FB8
:100660007F4F6017710750F06D817E81858596857B
:10067000DF91CF911F910F910C94420280E0DF91A6
:10068000CF911F910F910895AF92BF92CF92DF92B9
:10069000EF92FF920F931F93CF93DF936C017B0137
:1006A0008B01040F151FEB015E01AE18BF08C017C8
:1006B000D10759F06991D601ED91FC910190F0813B
:1006C000E02DC6010995892B79F7C501DF91CF91FE
:1006D0001F910F91FF90EF90DF90CF90BF90AF9060
:1006E0000895FC01538D448D252F30E0842F90E038
:1006F000821B930B541710F0CF960895019708951D
:10070000FC01918D828D981761F0A28DAE0FBF2FE5
:10071000B11D5D968C91928D9F5F9F73928F90E03B
:1007200008958FEF9FEF0895FC01918D828D9817AA
:1007300031F0828DE80FF11D858D90E008958FEFE7
:100740009FEF0895FC01918D228D892F90E0805CB0
:100750009F4F821B91098F73992708958FE192E033
:100760000E94A20321E0892B09F420E0822F089542
:1007700080E090E0892B29F00E94AE0381110C9457
:1007800000000895FC01A48DA80FB92FB11DA35A34
:10079000BF4F2C91848D90E001968F739927848FA1
:1007A000A689B7892C93A089B1898C9183708064C4
:1007B0008C93938D848D981306C00288F389E02D65
:1007C00080818F7D80830895EF92FF920F931F9316
:1007D000CF93DF93EC0181E0888F9B8D8C8D9813F4
:1007E0001AC0E889F989808185FF15C09FB7F89400
:1007F000EE89FF896083E889F9898081837080644C
:1008000080839FBF81E090E0DF91CF911F910F9196
:10081000FF90EF900895F62E0B8D10E00F5F1F4FA5
:100820000F731127E02E8C8D8E110CC00FB607FCB4
:10083000FACFE889F989808185FFF5CFCE010E9442
:10084000C203F1CFEB8DEC0FFD2FF11DE35AFF4FEB
:10085000F0829FB7F8940B8FEA89FB8980818062D0
:10086000CFCF0F931F93CF93DF938C01D0E0C0E0E5
:10087000F801EC0FFD1F6491662341F08FE192E0D7
:100880000E94E403892B11F02196F2CFCE01DF9173
:10089000CF911F910F910895CF93DF93EC01888D35
:1008A0008823B9F0AA89BB89E889F9898C9185FDEB
:1008B00003C0808186FD0DC00FB607FCF7CF8C9179
:1008C00085FFF2CF808185FFEDCFCE010E94C2036C
:1008D000E9CFDF91CF9108958F929F92AF92BF920F
:1008E000CF92DF92EF92FF924B015C010E941D02BA
:1008F0006B017C0124E0C21AD108E108F1080E94D2
:100900001D026C197D098E099F09681579058A05F4
:100910009B05A8F3FF90EF90DF90CF90BF90AF9032
:100920009F908F900895FC0101900020E9F7319786
:10093000AF01481B590BBC018FE192E00C944403BA
:100940008F929F92AF92BF920F931F93CF93DF939B
:10095000CDB7DEB7A1970FB6F894DEBF0FBECDBFFF
:1009600019A2423008F44AE08E010F5D1F4F842E19
:10097000912CB12CA12CA50194010E941311E62FFA
:10098000B901CA01EA30F4F4E05DD801EE938D01BB
:10099000232B242B252B79F790E080E0109719F07A
:1009A000CD010E949304A1960FB6F894DEBF0FBE4E
:1009B000CDBFDF91CF911F910F91BF90AF909F90CE
:1009C0008F900895E95CE1CFCF92DF92EF92FF9292
:1009D000CF93DF936B017C016DE28FE192E00E9487
:1009E000E403EC0166277727CB016C197D098E099A
:1009F0009F094AE00E94A0048C0F9D1FDF91CF91B8
:100A0000FF90EF90DF90CF9008958AE190E090936F
:100A1000A9038093A80385E090E09093AB038093B3
:100A2000AA038091A70390E0FC01E654FE4F2491B5
:100A30008A559E4FFC018491882399F090E0880F9D
:100A4000991FFC01EE56FE4FA591B491FC01E857A9
:100A5000FE4F859194918FB7F894EC91E22BEC9333
:100A60008FBF08958091A503882319F060E00C944E
:100A7000D1012D980895882349F08091A5038823FA
:100A800019F061E00C94D1012D9A08950C9432056F
:100A90004F925F926F927F928F929F92AF92BF928E
:100AA000CF92DF92EF92FF92CF93DF93CDB7DEB775
:100AB0002D970FB6F894DEBF0FBECDBF7C010E940C
:100AC0001D0269837A838B839C834B015C011D86A5
:100AD000B0E0A0E09701AD0125523109410951096B
:100AE0002D833E834F8358879701AD0127503109ED
:100AF0004109510929873A874B875C87F89461E05F
:100B00008091A7030E94D1018091AA039091AB0329
:100B10008230910538F0880F991F880F991F05972B
:100B20000197F1F760E08091A7030E94D1017894CA
:100B30003D85311107C08091A603823019F481E010
:100B40000E943B058091A8039091A903880E991EED
:100B5000A11CB11C0E941D022B013C016B014981AB
:100B60005A81C41AD50AF12CE12C8D819E81AF8166
:100B7000B885C816D906EA06FB0634F08091A603AC
:100B8000823011F40E94320529853A854B855C85B7
:100B9000C216D306E406F50644F431E03D87481456
:100BA00059046A047B04B0F2A9CF2D960FB6F894CD
:100BB000DEBF0FBECDBFDF91CF91FF90EF90DF90F2
:100BC000CF90BF90AF909F908F907F906F905F90ED
:100BD0004F9008950E94050580E891E10E94480524
:100BE00060E871E180E090E00E946C0480E392E0B4
:100BF0000E94480560E372E080E090E00E946C048F
:100C000080E392E00C9448050E94050580E093E2A1
:100C10000E94480560EC78E080E090E00E946C045F
:100C200080E392E00C9448051F920F920FB60F924A
:100C300011242F933F938F939F93AF93BF938091F2
:100C4000110290911202A0911302B09114023091FE
:100C5000100223E0230F2D3758F50196A11DB11D79
:100C6000209310028093110290931202A09313021A
:100C7000B09314028091150290911602A091170270
:100C8000B09118020196A11DB11D80931502909399
:100C90001602A0931702B0931802BF91AF919F91D3
:100CA0008F913F912F910F900FBE0F901F9018952D
:100CB00026E8230F0296A11DB11DD2CF1F920F92DD
:100CC0000FB60F9211242F933F934F935F936F931F
:100CD0007F938F939F93AF93BF93EF93FF938FE196
:100CE00092E00E94C203FF91EF91BF91AF919F915B
:100CF0008F917F916F915F914F913F912F910F90C5
:100D00000FBE0F901F9018951F920F920FB60F9263
:100D100011242F938F939F93EF93FF93E0912F02D2
:100D2000F09130028081E0913502F091360282FD2F
:100D30001BC09081809138028F5F8F7320913902A0
:100D4000821741F0E0913802F0E0E15EFD4F958FAF
:100D500080933802FF91EF919F918F912F910F9087
:100D60000FBE0F901F9018958081F4CF1F920F92A5
:100D70000FB60F9211242F933F934F935F936F936E
:100D80007F938F939F93AF93BF93EF93FF93E091E4
:100D9000BE02F091BF0290818091C0029823209101
:100DA000C1023091C2022F3F320731F02F5F3F4F17
:100DB0003093C2022093C1028091BC02811131C0E4
:100DC000911116C02091C1023091C2022536310521
:100DD00058F01092C3023093C6022093C50281E0FE
:100DE0008093C4028093BC021092C2021092C1028E
:100DF0008091A603813021F4911180E00E943B058F
:100E0000FF91EF91BF91AF919F918F917F916F91E2
:100E10005F914F913F912F910F900FBE0F901F90B8
:100E200018958091BC028130A1F4992309F3E091D7
:100E3000C4028E0F8093C402F0E0EE0FFF1FE45453
:100E4000FD4F2091C1023091C2023287218782E09A
:100E5000C9CF8091BC02823039F5911119C0E0915F
:100E6000C40281E0E03720F08093C30283E0BACF70
:100E70008E0F8093C402F0E0EE0FFF1FE454FD4F8D
:100E80002091C1023091C2023287218781E0AACF2E
:100E90002091C1023091C2022536310508F4A8CF55
:100EA00083E08093BC02A4CF8091BC02833009F020
:100EB0009FCF992309F498CF9BCFEF92FF920F9386
:100EC0001F93CF93DF93EC01F62F8A01790190E015
:100ED00080E030E0E0E0DE01AE0FB11D2C91222376
:100EE00041F0320F2E9F800D911D11241C92FE1394
:100EF00015C0332399F0532F5695850F911D632FFD
:100F000070E00E944F11DE01A60FB11D3C93D80185
:100F10003C9131110EC06C9390E080E0EF5FFE17C2
:100F2000D0F681E0DF91CF911F910F91FF90EF906C
:100F30000895D7013C91332371F380E0F3CFEFE1C3
:100F4000F2E01382128288EE93E0A0E0B0E08483A6
:100F50009583A683B78386ED91E09183808385ECAA
:100F600090E09587848784EC90E09787868780EC73
:100F700090E0918B808B81EC90E0938B828B82EC64
:100F800090E0958B848B86EC90E0978B868B118E0E
:100F9000128E138E148E8CEB92E09093C403809388
:100FA000C30380E00E9412011092A5031092A703D0
:100FB0000895CF93DF93CDB7DEB7E6970FB6F894D9
:100FC000DEBF0FBECDBF789484B5826084BD84B58A
:100FD000816084BD85B5826085BD85B5816085BD34
:100FE00080916E00816080936E00109281008091EC
:100FF0008100826080938100809181008160809374
:101000008100809180008160809380008091B10098
:1010100084608093B1008091B00081608093B000C3
:1010200080917A00846080937A0080917A00826057
:1010300080937A0080917A00816080937A00809119
:101040007A00806880937A001092C100E0912F02AC
:10105000F091300282E08083E0912B02F0912C022B
:101060001082E0912D02F0912E0280E18083109297
:101070003702E0913302F091340286E08083E09100
:101080003102F0913202808180618083E0913102EF
:10109000F0913202808188608083E0913102F0918A
:1010A0003202808180688083E0913102F0913202C7
:1010B00080818F7D808384EE91E00E9493048CE098
:1010C00092E00E94930482E00E9412011092A50314
:1010D0008091A60381608093A603259A8091BD022A
:1010E00090E0FC01E654FE4F24918A559E4FFC018E
:1010F00084918823C9F090E0880F991FFC01EE5677
:10110000FE4FA591B491FC01E857FE4F45915491D3
:101110009FB7F8948C91E22FE0958E238C93DA019F
:101120008C91E823EC939FBF82E08093B000809382
:10113000B10084E68093B3008093B4001092B200B3
:101140008091BC02833011F41092BC0284E0809341
:1011500070008AE191E00E94310483E091E00E94F6
:1011600031048EEE90E00E94310480EE90E00E9407
:10117000310489ED90E00E94310483ED90E00E94FB
:1011800031048DEC90E00E94310488EC90E00E94E4
:10119000310482EC90E00E94310488EB90E00E94E0
:1011A00031048EEA90E00E94310487E990E00E94C9
:1011B00031048BE890E00E9431048FE790E00E94B8
:1011C00031048EE690E00E94310488E690E00E94AF
:1011D0003104FE0131966F01B0E28B2E912C80918B
:1011E000BC02833009F09AC48091C302882309F4B9
:1011F0005CC01092C3021092C40280E48093B603D4
:101200001092AD031092AC031092B1031092B00390
:101210001092AF031092AE031092B7031092B8036E
:101220001092B9031092BA031092B5031092B4034E
:101230008091B60386FD24C4E091C303F091C403FA
:101240002085822F8F7B843009F0C0C083859485F0
:10125000865891098C35910508F0B8C0858596852A
:10126000243009F049C08197489708F0AFC08785BE
:1012700090890897089708F0A9C081E08093B60389
:101280008091C7039091C8039093AF038093AE03FE
:101290008091CB039091CC039093B1038093B003E2
:1012A0008091C5039091C60394C11092B6038091BA
:1012B000AC039091AD039093C6038093C5038091D6
:1012C000B0039091B103B0E0A0E08093CB03909382
:1012D000CC03A093CD03B093CE038091AE03909145
:1012E000AF03B0E0A0E08093C7039093C803A0933E
:1012F000C903B093CA0384CF825491098F9708F031
:1013000065C043E060E28DEB91E00E94000388231A
:1013100009F45CC08091B7039091B8034091B90380
:101320005091BA03242F30E03093B1032093B003DF
:101330009C012E3EF7E83F0731F582E090E0909364
:10134000AD038093AC03852F90E09093AF0380931F
:10135000AE039092B5038092B403E091C303F09181
:10136000C40381859285823B944008F089C388E05C
:1013700090E09093AD038093AC038091B6038160BD
:101380008093B6037DC39095891310C090E090932D
:10139000AF038093AE03852F809548130CC087E080
:1013A00090E09093AD038093AC03D3CF3093AF0321
:1013B0002093AE03F0CF89E090E09093AD0380934B
:1013C000AC034093B0035093B103C3CFE091C30388
:1013D000F091C4038085843609F08FC088EA91E0DB
:1013E0000E941303882309F488C043E060E188EA7F
:1013F00091E00E940003882309F47FC0B090B703F6
:101400000B2D1091B803FAE0EF2EF12C023030E2F0
:101410001307F9F0EDE0EE2EF12C0A3A6AE5160713
:10142000C1F07CE0E72EF12C043582E3180789F047
:101430006EE0E62EF12C033091E0190751F0AFE099
:10144000EA2EF12C0332ABEC1A0719F05BE0E52E23
:10145000F12C43E260E288EA91E00E9400038823D5
:1014600009F44BC0B1268091B7039091B803A091C5
:10147000B903B091BA039C0144E0369527954A958B
:10148000E1F73093AF032093AE032A2F30E030937F
:10149000B1032093B003382F3A2739272B2D2295FB
:1014A0002F702B252F70482F4F70241719F024E030
:1014B0002093B603EBE0EE16F10449F42091B60355
:1014C00020612093B6031093B3030093B2033B173C
:1014D00029F08091B60384608093B60380E390E0A6
:1014E0009093B5038093B403F092AD03E092AC0304
:1014F0008AE490E00E942F01C3C2E091C303F091FF
:10150000C4038085803209F06FC041E06FE083E959
:1015100091E00E940003882309F466C0E091C303B0
:10152000F091C403DF01A95BBF4F8D919C9104979B
:10153000059708F059C080E88093B6038091B703FF
:101540009091B803A091B903B091BA03AC01BD0169
:10155000A2E07695679557954795AA95D1F7509350
:10156000AE031092AF039A0133273093B103209357
:10157000B003218532852536344080F52091CF0394
:101580002F5F2093CF0380FF11C032E83093B60362
:10159000E091CB03F091CC0340954E1719F036E85B
:1015A0003093B603E093B003F093B103223028F0F8
:1015B0002091B60321602093B6032FE030E03093F2
:1015C000B5032093B40383708150823050F484E1DA
:1015D00090E09093AD038093AC0352C21092CF037E
:1015E000ECCF83E090E0F5CF8EE791E00E9413030B
:1015F000882309F44AC0A091C303B091C40318968C
:101600002C9118972A3121F02A3211F02032E9F575
:1016100030E0C901019797FDC90195958795182F6D
:10162000FD013F96220F331F275F3F4F2A0F3B1FBD
:10163000412C512C3201439440E050E0BA01112377
:1016400009F453C0A081B181A231B105C8F09097CF
:10165000E0F44429552966297729DF011296A2175B
:10166000B30738F4A281B3811897189770F4DF019B
:101670001496440C551C661C771C1150FD01DFCFDD
:10168000A930B10510F0519740F381E080931E021C
:1016900029E733E030931C0220931B0210921D02B5
:1016A0000E944B01813009F08BC0412C512C32013A
:1016B00010E0E091C303F091C403908580911E0275
:1016C000891708F043C00E944B01082F0E944B016C
:1016D000011132C0813009F073C0440C551C661CE6
:1016E000771C689440F81F5FE4CF4093B703509392
:1016F000B8036093B9037093BA039A012F77332725
:101700003093B1032093B00327E076956795579502
:1017100047952A95D1F75093AF034093AE0380933A
:10172000B4039093B50385E190E09093AD0380936B
:10173000AC0388E190E0DECE013009F041C08111B8
:101740003FC0440C551C661C771CCDCF812F90E008
:101750009093B5038093B4034092B7035092B803BB
:101760006092B9037092BA03842D8F7390E09093C6
:10177000B1038093B003920116E0369527951A9530
:10178000E1F72F7133273093AF032093AE0392011B
:1017900022273071232B31F4805C9F4F9093B1034B
:1017A0008093B00380E853FC88E88093B60380E11F
:1017B00090E09093AD038093AC0384E690E09ACEE2
:1017C000E091C303F091C4038385948588974D9776
:1017D00008F046C0858596850C970B9708F040C0A9
:1017E00083E080931E028CEB91E090931C02809327
:1017F0001B0210921D020E944B01813089F50E944C
:101800004B0181112DC0412C512C320110E0E0918F
:10181000C303F091C403908580911E02891708F0DC
:1018200071C00E944B01F82E1330B1F00E944B01A1
:10183000082F133021F40E944B01081311C031E02E
:10184000F31256C001110CC0440C551C661C771CC9
:10185000689440F81F5FDBCF0E944B01F81631F30C
:10186000E091C303F091C40320852C3311F02430A0
:1018700051F4838594858638910508F488C0833EA9
:10188000910508F4A0C0E091C303F091C4038085E2
:10189000843209F450C1823209F077C18185928582
:1018A0008C3E9C4508F0ECC083859485089707978B
:1018B00008F0E6C0E55BFF4F8081918108970797AC
:1018C00008F0DEC081E08093B6038091C703909159
:1018D000C8039093AF038093AE038091CB039091A4
:1018E000CC039093B1038093B00384E090E071CE79
:1018F000F110B6CF013009F0B3CF440C551C661C73
:10190000771CA8CF812F90E09093B5038093B40308
:101910004092B7035092B8036092B9037092BA0331
:10192000242D30E0852D1432F8F480E88093B6033E
:101930003093B1032093B003852D90E09093AF03D3
:101940008093AE0360FE03C088E88093B603818570
:10195000928583379A4028F48091B6038160809302
:10196000B60381E190E035CE90E89093B60357FE40
:1019700003C098E89093B6033093B1032093B0036B
:101980008F7790E09093AF038093AE03E0CF8D32DA
:10199000910508F478CF6CE175E206E010E08D3433
:1019A000910508F070CF85859685243089F44D9790
:1019B000469708F068CF878590890797089708F0C1
:1019C00062CF81E85BCC68E670E105E010E0EBCF28
:1019D0000E944202882309F456CF43E06CE180E084
:1019E00091E00E940003882309F44DCF80E88093A2
:1019F000B6038091B7039091B803A091B903B09159
:101A0000BA032C013D01E4E076946794579447941F
:101A1000EA95D1F7A2015092B1034092B0032C0194
:101A20003D01F4E17694679457944794FA95D1F781
:101A30005092AF034092AE0324E030E060E0742F98
:101A40007F70670F74E0569547957A95E1F72150BE
:101A50003109A9F786278F709927AA27BB27892BD9
:101A60008A2B8B2B19F084E88093B6031093AD0377
:101A70000093AC038CE190E09093B5038093B403A2
:101A80008CE092E00E94930481E791E00E9431048F
:101A90006091AC037091AD03072E000C880B990B7D
:101AA00097FF7AC30E94E4048091AC039091AD0348
:101AB000892B09F075C38BE691E00E943104609197
:101AC000B7037091B8038091B9039091BA0340E1D4
:101AD0000E94A00460E28FE192E00E94E403E091A2
:101AE000C303F091C403608570E06F5F7F4F75950D
:101AF0006795072E000C880B990B4AE00E94A00402
:101B00008CE591E00E9431048CE092E00E94930405
:101B10008091BC02833011F41092BC0280E090E00E
:101B2000892B09F45CCB0E94AE03882309F454CBC3
:101B30000E94000051CB85E191E00E9413038823AD
:101B400021F143E060E185E191E00E9400038823F8
:101B5000E1F08091B7039091B803A091B903B091DF
:101B6000BA03492F5A2F6B2F77275093B103409315
:101B7000B00399279093AF038093AE0380E190E088
:101B80009093B5038093B403B0CEE091C303F0917A
:101B9000C4031085812F8F7D843419F0163009F02D
:101BA0007AC08AE291E00E941303882309F473C08B
:101BB0001630B1F481E08093B6038091C703909111
:101BC000C8039093AF038093AE038091CB039091B1
:101BD000CC039093B1038093B00383E190E0F9CC00
:101BE00043E060E28AE291E00E940003882309F466
:101BF00052C01091B9030091BA039091B70380913C
:101C0000B8039093AE038093AF03E091C303F091C8
:101C1000C4038085843651F543E260E18AE291E0B5
:101C20000E9400038823B9F19091B7038091B80313
:101C30001095011731F09095981719F094E0909352
:101C4000B603982F802F9093B1038093B00380E365
:101C500090E09093B5038093B40382E190E0909379
:101C6000AD038093AC0387E390E044CC802F809554
:101C700018130BC0812F90E09093B1038093B003B1
:101C80009092B5038092B403E8CFC8019093B0035B
:101C90008093B103F5CFE091C303F091C403808535
:101CA0008434C1F48FE391E00E941303882391F000
:101CB00043E060E28FE391E00E940003882351F04B
:101CC00080E88093B6039092B5038092B40389E1D3
:101CD00090E07FCC84E591E00E941303E091C30380
:101CE000F091C4039085882309F455C0943209F01B
:101CF00052C043E060E184E591E00E940003882344
:101D000009F449C0E091C303F091C403DF01A15B72
:101D1000BF4F8D919C9102970497E8F580E88093DE
:101D2000B6039091B7034091B803292F342F542F55
:101D300052955F704F7004E0369527950A95E1F74C
:101D40002F709F708FE0852784278227981719F0BE
:101D500084E88093B60381859285883F914128F479
:101D60008091B60382608093B6035093AE031092C5
:101D7000AF03E0E14E9FC0011124822B9093B10389
:101D80008093B00380E190E09093B5038093B40317
:101D900087E190E01ECC89E691E00E941303E09178
:101DA000C303F091C4039085882381F1943271F5C7
:101DB00043E060E189E691E00E940003882331F16D
:101DC000E091C303F091C403E15BFF4F80819181F7
:101DD00008970797D8F48091B7039091B803982794
:101DE0009F3FA1F490E09093B1038093B00380E112
:101DF00090E09093B5038093B40386E190E09093D4
:101E0000AD038093AC0382E390E074CBA091C30355
:101E1000B091C40318968C911897803709F077C059
:101E20007D0120E030E040E050E060E070E080E0E4
:101E300090E0412CF701A384B484F42DFF0F13E04C
:101E4000512E5F0EF70105851685F7E34F1641F019
:101E50000A0D1B1D015111090E30110508F05AC061
:101E600001E00E946311F32F142F052F762E672EA9
:101E7000E8E0AE1AB108E8E0AE16B10408F421605B
:101E80004394E4E0EE0EF11CE8E34E12D3CF88E178
:101E900090E09093AD038093AC035694852D90E031
:101EA0009093B5038093B40380E88093B603812FA9
:101EB000902FA72DB62D412F2F0F210F200F270D6B
:101EC000260D19F024E82093B6032F2F30E030932D
:101ED000B1032093B00340FF05C033953093B103A5
:101EE0002093B003B695A795979587958093B703F0
:101EF0009093B803A093B903B093BA039093AF0340
:101F00008093AE03B093B303A093B203B9CD8431F1
:101F100008F4DBC082E3F60111928A95E9F718967E
:101F20002C9118972250330B60E043E0842F90E00F
:101F3000821793079CF4880F991FFD01E80FF91F82
:101F40008185823348F4F601E80FF11D90819F5F8F
:101F50009083681708F4682F4E5FE8CF1EAA1DAA69
:101F60009E012B5C3F4FAE014A5C5F4FC6010E9451
:101F70005D0782E3D6011D928A95E9F7A091C3031C
:101F8000B091C40318962C9118972250330B60E03F
:101F900044E0842F90E0821793079CF4880F991FE8
:101FA000FD01E80FF91F8185823348F4F601E80F3F
:101FB000F11D90819F5F9083681708F4682F4E5F32
:101FC000E8CF1CAA1BAA9E012D5C3F4FAE014C5CC2
:101FD0005F4FC6010E945D07882309F476C0E09137
:101FE000C303F091C403F084F6942F2D30E0C901AF
:101FF00002979093B5038093B4033384212C858595
:102000009685822993299093B3038093B2038EA976
:1020100090E0982F88274BA9BC01642B7093AF03E5
:102020006093AE035CA9852B9093B1038093B003BA
:10203000C901039755E0969587955A95E1F7B82E13
:10204000442309F43FC0E1E0F0E0F093AD03E093F6
:10205000AC03FA94FA9493E0792EA12C22E3622E39
:102060000CA9069D800111242BA9269D9001112405
:102070004EA9469DA00111248F2DF0E2FF1508F412
:1020800080E2E12C672D0E945B028823F1F024E0BE
:10209000A29EF0011124E455FC4F8091B70390916A
:1020A000B803A091B903B091BA038787908BA18B35
:1020B000B28B30E4730EA39460EEF60EBA1480F681
:1020C00080E15EC98DA98111FBCFE090C303F09040
:1020D000C403D70118960C91063008F4D1CCBB2468
:1020E000B39425EC3DE94CE151E810E08AE0A82EDC
:1020F0008B2D90E0BC016E5F7F4F60177107DCF5A0
:10210000660F771FF701E60FF71F61857285880F4D
:10211000991FF701E80FF91F81859285A69ED001CE
:10212000A79EB00D1124FC01EE0FFF1FEE0FFF1F45
:10213000EE0FFF1FAE17BF07D0F0A89EF001A99EBB
:10214000F00D1124CB0163E0880F991F6A95E1F728
:10215000E817F90770F4E2E063E971E080E091E0EC
:102160000E9403119B01AC012E27B394C1CFE0E084
:10217000F3CFE1E0F1CF2093B7033093B80340935E
:10218000B9035093BA039092B5038092B4031092AE
:10219000AD031092AC0374CC4AE00E94A00484CC3E
:1021A00086E591E00E9431046091AE037091AF0327
:1021B00090E080E040E10E94A00480E591E00E9470
:1021C00031046091B0037091B10390E080E040E190
:1021D0000E94A00488E491E00E9431046091B7035A
:1021E0007091B8038091B9039091BA0340E10E94C5
:1021F000A0048091B603837009F48ACC85E491E051
:102200000E94310485CCDB018F939F930E9435118E
:10221000BF91AF91A29F800D911DA39F900DB29F82
:10222000900D11240895A1E21A2EAA1BBB1BFD01DB
:102230000DC0AA1FBB1FEE1FFF1FA217B307E407A5
:10224000F50720F0A21BB30BE40BF50B661F771FFD
:10225000881F991F1A9469F76095709580959095DD
:102260009B01AC01BD01CF0108950E944011A59FC3
:10227000900DB49F900DA49F800D911D1124089581
:10228000A29FB001B39FC001A39F700D811D1124B7
:10229000911DB29F700D811D1124911D0895AA1BDF
:1022A000BB1B51E107C0AA1FBB1FA617B70710F041
:1022B000A61BB70B881F991F5A95A9F78095909573
:1022C000BC01CD010895002E083090F0982F872F83
:1022D000762F652F542F432F322F22270850F4CF0B
:1022E000220F331F441F551F661F771F881F991F1A
:1022F0000A95B2F7002D0895EE0FFF1F0590F49197
:08230000E02D0994F894FFCFD1
:1023080005002628236810F4012C06F40126020192
:10231800016E000406040026E02070100E022A0652
:102328000E020E02000141000000120026801180FA
:1023380011300290063002300200016E00EA0519E1
:102348000026220B220BEE026608EE02EE020101C5
:102358006E0000001700269E0002049E0029029EBF
:1023680000070100016E000000160026F603BC05F8
:102378000802BC050802D40100014B00000015004A
:102388002860095802B00458025802580200002D6B
:1023980000000003002604010C0304011C070401CB
:1023A8000C0301016E0000000B0025800DC006B073
:1023B800011005B001B001000182000000070026ED
:1023C80000238011300290063002300200016E00B6
:1023D800040600000000E403440371034C04A20354
:1023E80080039403495220526563656976657220BB
:1023F8002D2068747470733A2F2F7573696E692E67
:1024080065752F657370726573732F000D0A000070
:00000001FF
